{
  "address": "0xeb9361Ec0d712C5B12965FB91c409262b7d6703c",
  "abi": [
    {
      "inputs": [],
      "stateMutability": "nonpayable",
      "type": "constructor"
    },
    {
      "inputs": [
        {
          "internalType": "address",
          "name": "spender",
          "type": "address"
        },
        {
          "internalType": "uint256",
          "name": "allowance",
          "type": "uint256"
        },
        {
          "internalType": "uint256",
          "name": "needed",
          "type": "uint256"
        }
      ],
      "name": "ERC20InsufficientAllowance",
      "type": "error"
    },
    {
      "inputs": [
        {
          "internalType": "address",
          "name": "sender",
          "type": "address"
        },
        {
          "internalType": "uint256",
          "name": "balance",
          "type": "uint256"
        },
        {
          "internalType": "uint256",
          "name": "needed",
          "type": "uint256"
        }
      ],
      "name": "ERC20InsufficientBalance",
      "type": "error"
    },
    {
      "inputs": [
        {
          "internalType": "address",
          "name": "approver",
          "type": "address"
        }
      ],
      "name": "ERC20InvalidApprover",
      "type": "error"
    },
    {
      "inputs": [
        {
          "internalType": "address",
          "name": "receiver",
          "type": "address"
        }
      ],
      "name": "ERC20InvalidReceiver",
      "type": "error"
    },
    {
      "inputs": [
        {
          "internalType": "address",
          "name": "sender",
          "type": "address"
        }
      ],
      "name": "ERC20InvalidSender",
      "type": "error"
    },
    {
      "inputs": [
        {
          "internalType": "address",
          "name": "spender",
          "type": "address"
        }
      ],
      "name": "ERC20InvalidSpender",
      "type": "error"
    },
    {
      "inputs": [],
      "name": "EnforcedPause",
      "type": "error"
    },
    {
      "inputs": [],
      "name": "ExpectedPause",
      "type": "error"
    },
    {
      "inputs": [
        {
          "internalType": "address",
          "name": "owner",
          "type": "address"
        }
      ],
      "name": "OwnableInvalidOwner",
      "type": "error"
    },
    {
      "inputs": [
        {
          "internalType": "address",
          "name": "account",
          "type": "address"
        }
      ],
      "name": "OwnableUnauthorizedAccount",
      "type": "error"
    },
    {
      "anonymous": false,
      "inputs": [
        {
          "indexed": true,
          "internalType": "address",
          "name": "owner",
          "type": "address"
        },
        {
          "indexed": true,
          "internalType": "address",
          "name": "spender",
          "type": "address"
        },
        {
          "indexed": false,
          "internalType": "uint256",
          "name": "value",
          "type": "uint256"
        }
      ],
      "name": "Approval",
      "type": "event"
    },
    {
      "anonymous": false,
      "inputs": [
        {
          "indexed": true,
          "internalType": "address",
          "name": "user",
          "type": "address"
        },
        {
          "indexed": false,
          "internalType": "uint256",
          "name": "amount",
          "type": "uint256"
        }
      ],
      "name": "FaucetClaimed",
      "type": "event"
    },
    {
      "anonymous": false,
      "inputs": [
        {
          "indexed": true,
          "internalType": "address",
          "name": "previousOwner",
          "type": "address"
        },
        {
          "indexed": true,
          "internalType": "address",
          "name": "newOwner",
          "type": "address"
        }
      ],
      "name": "OwnershipTransferred",
      "type": "event"
    },
    {
      "anonymous": false,
      "inputs": [
        {
          "indexed": false,
          "internalType": "address",
          "name": "account",
          "type": "address"
        }
      ],
      "name": "Paused",
      "type": "event"
    },
    {
      "anonymous": false,
      "inputs": [
        {
          "indexed": true,
          "internalType": "address",
          "name": "from",
          "type": "address"
        },
        {
          "indexed": false,
          "internalType": "uint256",
          "name": "amount",
          "type": "uint256"
        }
      ],
      "name": "TokensBurned",
      "type": "event"
    },
    {
      "anonymous": false,
      "inputs": [
        {
          "indexed": true,
          "internalType": "address",
          "name": "to",
          "type": "address"
        },
        {
          "indexed": false,
          "internalType": "uint256",
          "name": "amount",
          "type": "uint256"
        }
      ],
      "name": "TokensMinted",
      "type": "event"
    },
    {
      "anonymous": false,
      "inputs": [
        {
          "indexed": true,
          "internalType": "address",
          "name": "from",
          "type": "address"
        },
        {
          "indexed": true,
          "internalType": "address",
          "name": "to",
          "type": "address"
        },
        {
          "indexed": false,
          "internalType": "uint256",
          "name": "value",
          "type": "uint256"
        }
      ],
      "name": "Transfer",
      "type": "event"
    },
    {
      "anonymous": false,
      "inputs": [
        {
          "indexed": false,
          "internalType": "address",
          "name": "account",
          "type": "address"
        }
      ],
      "name": "Unpaused",
      "type": "event"
    },
    {
      "inputs": [],
      "name": "FAUCET_AMOUNT",
      "outputs": [
        {
          "internalType": "uint256",
          "name": "",
          "type": "uint256"
        }
      ],
      "stateMutability": "view",
      "type": "function"
    },
    {
      "inputs": [],
      "name": "FAUCET_COOLDOWN",
      "outputs": [
        {
          "internalType": "uint256",
          "name": "",
          "type": "uint256"
        }
      ],
      "stateMutability": "view",
      "type": "function"
    },
    {
      "inputs": [],
      "name": "MAX_SUPPLY",
      "outputs": [
        {
          "internalType": "uint256",
          "name": "",
          "type": "uint256"
        }
      ],
      "stateMutability": "view",
      "type": "function"
    },
    {
      "inputs": [
        {
          "internalType": "address",
          "name": "owner",
          "type": "address"
        },
        {
          "internalType": "address",
          "name": "spender",
          "type": "address"
        }
      ],
      "name": "allowance",
      "outputs": [
        {
          "internalType": "uint256",
          "name": "",
          "type": "uint256"
        }
      ],
      "stateMutability": "view",
      "type": "function"
    },
    {
      "inputs": [
        {
          "internalType": "address",
          "name": "spender",
          "type": "address"
        },
        {
          "internalType": "uint256",
          "name": "value",
          "type": "uint256"
        }
      ],
      "name": "approve",
      "outputs": [
        {
          "internalType": "bool",
          "name": "",
          "type": "bool"
        }
      ],
      "stateMutability": "nonpayable",
      "type": "function"
    },
    {
      "inputs": [
        {
          "internalType": "address",
          "name": "account",
          "type": "address"
        }
      ],
      "name": "balanceOf",
      "outputs": [
        {
          "internalType": "uint256",
          "name": "",
          "type": "uint256"
        }
      ],
      "stateMutability": "view",
      "type": "function"
    },
    {
      "inputs": [
        {
          "internalType": "address",
          "name": "from",
          "type": "address"
        },
        {
          "internalType": "uint256",
          "name": "amount",
          "type": "uint256"
        }
      ],
      "name": "burn",
      "outputs": [],
      "stateMutability": "nonpayable",
      "type": "function"
    },
    {
      "inputs": [
        {
          "internalType": "address",
          "name": "user",
          "type": "address"
        }
      ],
      "name": "canClaimFaucet",
      "outputs": [
        {
          "internalType": "bool",
          "name": "canClaim",
          "type": "bool"
        },
        {
          "internalType": "uint256",
          "name": "timeUntilClaim",
          "type": "uint256"
        }
      ],
      "stateMutability": "view",
      "type": "function"
    },
    {
      "inputs": [],
      "name": "claimFaucet",
      "outputs": [],
      "stateMutability": "nonpayable",
      "type": "function"
    },
    {
      "inputs": [],
      "name": "decimals",
      "outputs": [
        {
          "internalType": "uint8",
          "name": "",
          "type": "uint8"
        }
      ],
      "stateMutability": "pure",
      "type": "function"
    },
    {
      "inputs": [
        {
          "internalType": "address",
          "name": "",
          "type": "address"
        }
      ],
      "name": "lastFaucetClaim",
      "outputs": [
        {
          "internalType": "uint256",
          "name": "",
          "type": "uint256"
        }
      ],
      "stateMutability": "view",
      "type": "function"
    },
    {
      "inputs": [
        {
          "internalType": "address",
          "name": "to",
          "type": "address"
        },
        {
          "internalType": "uint256",
          "name": "amount",
          "type": "uint256"
        }
      ],
      "name": "mint",
      "outputs": [],
      "stateMutability": "nonpayable",
      "type": "function"
    },
    {
      "inputs": [],
      "name": "name",
      "outputs": [
        {
          "internalType": "string",
          "name": "",
          "type": "string"
        }
      ],
      "stateMutability": "view",
      "type": "function"
    },
    {
      "inputs": [],
      "name": "owner",
      "outputs": [
        {
          "internalType": "address",
          "name": "",
          "type": "address"
        }
      ],
      "stateMutability": "view",
      "type": "function"
    },
    {
      "inputs": [],
      "name": "pause",
      "outputs": [],
      "stateMutability": "nonpayable",
      "type": "function"
    },
    {
      "inputs": [],
      "name": "paused",
      "outputs": [
        {
          "internalType": "bool",
          "name": "",
          "type": "bool"
        }
      ],
      "stateMutability": "view",
      "type": "function"
    },
    {
      "inputs": [],
      "name": "renounceOwnership",
      "outputs": [],
      "stateMutability": "nonpayable",
      "type": "function"
    },
    {
      "inputs": [],
      "name": "symbol",
      "outputs": [
        {
          "internalType": "string",
          "name": "",
          "type": "string"
        }
      ],
      "stateMutability": "view",
      "type": "function"
    },
    {
      "inputs": [],
      "name": "totalSupply",
      "outputs": [
        {
          "internalType": "uint256",
          "name": "",
          "type": "uint256"
        }
      ],
      "stateMutability": "view",
      "type": "function"
    },
    {
      "inputs": [
        {
          "internalType": "address",
          "name": "to",
          "type": "address"
        },
        {
          "internalType": "uint256",
          "name": "value",
          "type": "uint256"
        }
      ],
      "name": "transfer",
      "outputs": [
        {
          "internalType": "bool",
          "name": "",
          "type": "bool"
        }
      ],
      "stateMutability": "nonpayable",
      "type": "function"
    },
    {
      "inputs": [
        {
          "internalType": "address",
          "name": "from",
          "type": "address"
        },
        {
          "internalType": "address",
          "name": "to",
          "type": "address"
        },
        {
          "internalType": "uint256",
          "name": "value",
          "type": "uint256"
        }
      ],
      "name": "transferFrom",
      "outputs": [
        {
          "internalType": "bool",
          "name": "",
          "type": "bool"
        }
      ],
      "stateMutability": "nonpayable",
      "type": "function"
    },
    {
      "inputs": [
        {
          "internalType": "address",
          "name": "newOwner",
          "type": "address"
        }
      ],
      "name": "transferOwnership",
      "outputs": [],
      "stateMutability": "nonpayable",
      "type": "function"
    },
    {
      "inputs": [],
      "name": "unpause",
      "outputs": [],
      "stateMutability": "nonpayable",
      "type": "function"
    }
  ],
  "transactionHash": "0x37eac141450b979669316af99976193a46b016f8f9de382531a95485b995b8ac",
  "args": [],
  "numDeployments": 1,
  "solcInputHash": "1e7f658a624141603997a4c1dbf9231d",
  "bytecode": "0x60806040523480156200001157600080fd5b50336040518060400160405280600e81526020016d10985cd9481554d110c815195cdd60921b81525060405180604001604052806005815260200164625553444360d81b815250816003908162000069919062000386565b50600462000078828262000386565b5050506001600160a01b038116620000ab57604051631e4fbdf760e01b8152600060048201526024015b60405180910390fd5b620000b681620000ce565b50620000c83364174876e80062000120565b6200047a565b600580546001600160a01b038381166001600160a01b0319831681179093556040519116919082907f8be0079c531659141344cd1fd0a4f28419497f9722a3daafe3b4186f6b6457e090600090a35050565b6001600160a01b0382166200014c5760405163ec442f0560e01b815260006004820152602401620000a2565b6200015a600083836200015e565b5050565b620001686200017a565b62000175838383620001af565b505050565b6200018e600554600160a01b900460ff1690565b15620001ad5760405163d93c066560e01b815260040160405180910390fd5b565b6001600160a01b038316620001de578060026000828254620001d2919062000452565b90915550620002529050565b6001600160a01b03831660009081526020819052604090205481811015620002335760405163391434e360e21b81526001600160a01b03851660048201526024810182905260448101839052606401620000a2565b6001600160a01b03841660009081526020819052604090209082900390555b6001600160a01b03821662000270576002805482900390556200028f565b6001600160a01b03821660009081526020819052604090208054820190555b816001600160a01b0316836001600160a01b03167fddf252ad1be2c89b69c2b068fc378daa952ba7f163c4a11628f55a4df523b3ef83604051620002d591815260200190565b60405180910390a3505050565b634e487b7160e01b600052604160045260246000fd5b600181811c908216806200030d57607f821691505b6020821081036200032e57634e487b7160e01b600052602260045260246000fd5b50919050565b601f8211156200017557600081815260208120601f850160051c810160208610156200035d5750805b601f850160051c820191505b818110156200037e5782815560010162000369565b505050505050565b81516001600160401b03811115620003a257620003a2620002e2565b620003ba81620003b38454620002f8565b8462000334565b602080601f831160018114620003f25760008415620003d95750858301515b600019600386901b1c1916600185901b1785556200037e565b600085815260208120601f198616915b82811015620004235788860151825594840194600190910190840162000402565b5085821015620004425787850151600019600388901b60f8161c191681555b5050505050600190811b01905550565b808201808211156200047457634e487b7160e01b600052601160045260246000fd5b92915050565b610e06806200048a6000396000f3fe608060405234801561001057600080fd5b506004361061014d5760003560e01c806370a08231116100c35780638da5cb5b1161007c5780638da5cb5b146102a057806395d89b41146102bb5780639dc29fac146102c3578063a9059cbb146102d6578063dd62ed3e146102e9578063f2fde38b1461032257600080fd5b806370a0823114610232578063715018a61461025b57806376697640146102635780637d1d5d191461026e5780638456cb59146102785780638a8772051461028057600080fd5b8063313ce56711610115578063313ce567146101de57806332cb6b0c146101ed5780633f4ba83a146101fb57806340c10f19146102055780634fe15335146102185780635c975abb1461022057600080fd5b806301d8a2961461015257806306fdde0314610181578063095ea7b31461019657806318160ddd146101b957806323b872dd146101cb575b600080fd5b610165610160366004610c51565b610335565b6040805192151583526020830191909152015b60405180910390f35b61018961038c565b6040516101789190610c73565b6101a96101a4366004610cc1565b61041e565b6040519015158152602001610178565b6002545b604051908152602001610178565b6101a96101d9366004610ceb565b610438565b60405160068152602001610178565b6101bd66038d7ea4c6800081565b61020361045c565b005b610203610213366004610cc1565b61046e565b610203610536565b600554600160a01b900460ff166101a9565b6101bd610240366004610c51565b6001600160a01b031660009081526020819052604090205490565b61020361068d565b6101bd633b9aca0081565b6101bd6201518081565b61020361069f565b6101bd61028e366004610c51565b60066020526000908152604090205481565b6005546040516001600160a01b039091168152602001610178565b6101896106af565b6102036102d1366004610cc1565b6106be565b6101a96102e4366004610cc1565b61070b565b6101bd6102f7366004610d27565b6001600160a01b03918216600090815260016020908152604080832093909416825291909152205490565b610203610330366004610c51565b610719565b6001600160a01b03811660009081526006602052604081205481908161035e6201518083610d70565b9050804210610374576001935060009250610385565b600093506103824282610d83565b92505b5050915091565b60606003805461039b90610d96565b80601f01602080910402602001604051908101604052809291908181526020018280546103c790610d96565b80156104145780601f106103e957610100808354040283529160200191610414565b820191906000526020600020905b8154815290600101906020018083116103f757829003601f168201915b5050505050905090565b60003361042c818585610757565b60019150505b92915050565b600033610446858285610769565b6104518585856107e8565b506001949350505050565b610464610847565b61046c610874565b565b610476610847565b66038d7ea4c680008161048860025490565b6104929190610d70565b11156104e55760405162461bcd60e51b815260206004820152601960248201527f62555344433a2045786365656473206d617820737570706c790000000000000060448201526064015b60405180910390fd5b6104ef82826108c9565b816001600160a01b03167f3f2c9d57c068687834f0de942a9babb9e5acab57d516d3480a3c16ee165a42738260405161052a91815260200190565b60405180910390a25050565b61053e610903565b3360009081526006602052604090205461055c906201518090610d70565b4210156105b65760405162461bcd60e51b815260206004820152602260248201527f62555344433a2046617563657420636f6f6c646f776e206e6f74206578706972604482015261195960f21b60648201526084016104dc565b66038d7ea4c68000633b9aca006105cc60025490565b6105d69190610d70565b11156106325760405162461bcd60e51b815260206004820152602560248201527f62555344433a2046617563657420776f756c6420657863656564206d617820736044820152647570706c7960d81b60648201526084016104dc565b33600081815260066020526040902042905561065290633b9aca006108c9565b604051633b9aca00815233907f5d4f415c63cd8a5874d9d291cdd64cec37e5dc236d90d659c958d109d78074b39060200160405180910390a2565b610695610847565b61046c600061092e565b6106a7610847565b61046c610980565b60606004805461039b90610d96565b6106c6610847565b6106d082826109c3565b816001600160a01b03167ffd38818f5291bf0bb3a2a48aadc06ba8757865d1dabd804585338aab3009dcb68260405161052a91815260200190565b60003361042c8185856107e8565b610721610847565b6001600160a01b03811661074b57604051631e4fbdf760e01b8152600060048201526024016104dc565b6107548161092e565b50565b61076483838360016109f9565b505050565b6001600160a01b038381166000908152600160209081526040808320938616835292905220546000198110156107e257818110156107d357604051637dc7a0d960e11b81526001600160a01b038416600482015260248101829052604481018390526064016104dc565b6107e2848484840360006109f9565b50505050565b6001600160a01b03831661081257604051634b637e8f60e11b8152600060048201526024016104dc565b6001600160a01b03821661083c5760405163ec442f0560e01b8152600060048201526024016104dc565b610764838383610ace565b6005546001600160a01b0316331461046c5760405163118cdaa760e01b81523360048201526024016104dc565b61087c610ae1565b6005805460ff60a01b191690557f5db9ee0a495bf2e6ff9c91a7834c1ba4fdd244a5e8aa4e537bd38aeae4b073aa335b6040516001600160a01b03909116815260200160405180910390a1565b6001600160a01b0382166108f35760405163ec442f0560e01b8152600060048201526024016104dc565b6108ff60008383610ace565b5050565b600554600160a01b900460ff161561046c5760405163d93c066560e01b815260040160405180910390fd5b600580546001600160a01b038381166001600160a01b0319831681179093556040519116919082907f8be0079c531659141344cd1fd0a4f28419497f9722a3daafe3b4186f6b6457e090600090a35050565b610988610903565b6005805460ff60a01b1916600160a01b1790557f62e78cea01bee320cd4e420270b5ea74000d11b0c9f74754ebdbfc544b05a2586108ac3390565b6001600160a01b0382166109ed57604051634b637e8f60e11b8152600060048201526024016104dc565b6108ff82600083610ace565b6001600160a01b038416610a235760405163e602df0560e01b8152600060048201526024016104dc565b6001600160a01b038316610a4d57604051634a1406b160e11b8152600060048201526024016104dc565b6001600160a01b03808516600090815260016020908152604080832093871683529290522082905580156107e257826001600160a01b0316846001600160a01b03167f8c5be1e5ebec7d5bd14f71427d1e84f3dd0314c0f7b2291e5b200ac8c7c3b92584604051610ac091815260200190565b60405180910390a350505050565b610ad6610903565b610764838383610b0b565b600554600160a01b900460ff1661046c57604051638dfc202b60e01b815260040160405180910390fd5b6001600160a01b038316610b36578060026000828254610b2b9190610d70565b90915550610ba89050565b6001600160a01b03831660009081526020819052604090205481811015610b895760405163391434e360e21b81526001600160a01b038516600482015260248101829052604481018390526064016104dc565b6001600160a01b03841660009081526020819052604090209082900390555b6001600160a01b038216610bc457600280548290039055610be3565b6001600160a01b03821660009081526020819052604090208054820190555b816001600160a01b0316836001600160a01b03167fddf252ad1be2c89b69c2b068fc378daa952ba7f163c4a11628f55a4df523b3ef83604051610c2891815260200190565b60405180910390a3505050565b80356001600160a01b0381168114610c4c57600080fd5b919050565b600060208284031215610c6357600080fd5b610c6c82610c35565b9392505050565b600060208083528351808285015260005b81811015610ca057858101830151858201604001528201610c84565b506000604082860101526040601f19601f8301168501019250505092915050565b60008060408385031215610cd457600080fd5b610cdd83610c35565b946020939093013593505050565b600080600060608486031215610d0057600080fd5b610d0984610c35565b9250610d1760208501610c35565b9150604084013590509250925092565b60008060408385031215610d3a57600080fd5b610d4383610c35565b9150610d5160208401610c35565b90509250929050565b634e487b7160e01b600052601160045260246000fd5b8082018082111561043257610432610d5a565b8181038181111561043257610432610d5a565b600181811c90821680610daa57607f821691505b602082108103610dca57634e487b7160e01b600052602260045260246000fd5b5091905056fea2646970667358221220fd7ab6680ee897d230b3821e9f7b6d52490621e34f83c4e7e349508d837aa82264736f6c63430008140033",
  "devdoc": {
    "details": "A mintable ERC20 token for testing Tap&Go Pay on Base Sepolia This is a test stablecoin that simulates USDC functionality",
    "errors": {
      "ERC20InsufficientAllowance(address,uint256,uint256)": [
        {
          "details": "Indicates a failure with the `spender`s `allowance`. Used in transfers.",
          "params": {
            "allowance": "Amount of tokens a `spender` is allowed to operate with.",
            "needed": "Minimum amount required to perform a transfer.",
            "spender": "Address that may be allowed to operate on tokens without being their owner."
          }
        }
      ],
      "ERC20InsufficientBalance(address,uint256,uint256)": [
        {
          "details": "Indicates an error related to the current `balance` of a `sender`. Used in transfers.",
          "params": {
            "balance": "Current balance for the interacting account.",
            "needed": "Minimum amount required to perform a transfer.",
            "sender": "Address whose tokens are being transferred."
          }
        }
      ],
      "ERC20InvalidApprover(address)": [
        {
          "details": "Indicates a failure with the `approver` of a token to be approved. Used in approvals.",
          "params": {
            "approver": "Address initiating an approval operation."
          }
        }
      ],
      "ERC20InvalidReceiver(address)": [
        {
          "details": "Indicates a failure with the token `receiver`. Used in transfers.",
          "params": {
            "receiver": "Address to which tokens are being transferred."
          }
        }
      ],
      "ERC20InvalidSender(address)": [
        {
          "details": "Indicates a failure with the token `sender`. Used in transfers.",
          "params": {
            "sender": "Address whose tokens are being transferred."
          }
        }
      ],
      "ERC20InvalidSpender(address)": [
        {
          "details": "Indicates a failure with the `spender` to be approved. Used in approvals.",
          "params": {
            "spender": "Address that may be allowed to operate on tokens without being their owner."
          }
        }
      ],
      "EnforcedPause()": [
        {
          "details": "The operation failed because the contract is paused."
        }
      ],
      "ExpectedPause()": [
        {
          "details": "The operation failed because the contract is not paused."
        }
      ],
      "OwnableInvalidOwner(address)": [
        {
          "details": "The owner is not a valid owner account. (eg. `address(0)`)"
        }
      ],
      "OwnableUnauthorizedAccount(address)": [
        {
          "details": "The caller account is not authorized to perform an operation."
        }
      ]
    },
    "events": {
      "Approval(address,address,uint256)": {
        "details": "Emitted when the allowance of a `spender` for an `owner` is set by a call to {approve}. `value` is the new allowance."
      },
      "Paused(address)": {
        "details": "Emitted when the pause is triggered by `account`."
      },
      "Transfer(address,address,uint256)": {
        "details": "Emitted when `value` tokens are moved from one account (`from`) to another (`to`). Note that `value` may be zero."
      },
      "Unpaused(address)": {
        "details": "Emitted when the pause is lifted by `account`."
      }
    },
    "kind": "dev",
    "methods": {
      "allowance(address,address)": {
        "details": "Returns the remaining number of tokens that `spender` will be allowed to spend on behalf of `owner` through {transferFrom}. This is zero by default. This value changes when {approve} or {transferFrom} are called."
      },
      "approve(address,uint256)": {
        "details": "See {IERC20-approve}. NOTE: If `value` is the maximum `uint256`, the allowance is not updated on `transferFrom`. This is semantically equivalent to an infinite approval. Requirements: - `spender` cannot be the zero address."
      },
      "balanceOf(address)": {
        "details": "Returns the value of tokens owned by `account`."
      },
      "burn(address,uint256)": {
        "details": "Burn tokens from a specific address (only owner)",
        "params": {
          "amount": "Amount of tokens to burn (in wei, 6 decimals)",
          "from": "Address to burn tokens from"
        }
      },
      "canClaimFaucet(address)": {
        "details": "Check if an address can claim from faucet",
        "params": {
          "user": "Address to check"
        },
        "returns": {
          "canClaim": "True if user can claim from faucet",
          "timeUntilClaim": "Time until next claim is available (0 if can claim now)"
        }
      },
      "claimFaucet()": {
        "details": "Faucet function - allows users to claim test tokens Users can claim once every 24 hours"
      },
      "decimals()": {
        "details": "Get the number of decimals for this token (6, like real USDC)"
      },
      "mint(address,uint256)": {
        "details": "Mint tokens to a specific address (only owner)",
        "params": {
          "amount": "Amount of tokens to mint (in wei, 6 decimals)",
          "to": "Address to mint tokens to"
        }
      },
      "name()": {
        "details": "Returns the name of the token."
      },
      "owner()": {
        "details": "Returns the address of the current owner."
      },
      "pause()": {
        "details": "Pause the contract (only owner)"
      },
      "paused()": {
        "details": "Returns true if the contract is paused, and false otherwise."
      },
      "renounceOwnership()": {
        "details": "Leaves the contract without owner. It will not be possible to call `onlyOwner` functions. Can only be called by the current owner. NOTE: Renouncing ownership will leave the contract without an owner, thereby disabling any functionality that is only available to the owner."
      },
      "symbol()": {
        "details": "Returns the symbol of the token, usually a shorter version of the name."
      },
      "totalSupply()": {
        "details": "Returns the value of tokens in existence."
      },
      "transfer(address,uint256)": {
        "details": "See {IERC20-transfer}. Requirements: - `to` cannot be the zero address. - the caller must have a balance of at least `value`."
      },
      "transferFrom(address,address,uint256)": {
        "details": "See {IERC20-transferFrom}. Skips emitting an {Approval} event indicating an allowance update. This is not required by the ERC. See {xref-ERC20-_approve-address-address-uint256-bool-}[_approve]. NOTE: Does not update the allowance if the current allowance is the maximum `uint256`. Requirements: - `from` and `to` cannot be the zero address. - `from` must have a balance of at least `value`. - the caller must have allowance for ``from``'s tokens of at least `value`."
      },
      "transferOwnership(address)": {
        "details": "Transfers ownership of the contract to a new account (`newOwner`). Can only be called by the current owner."
      },
      "unpause()": {
        "details": "Unpause the contract (only owner)"
      }
    },
    "title": "bUSDC - Base USDC Test Token",
    "version": 1
  },
  "userdoc": {
    "kind": "user",
    "methods": {},
    "version": 1
  },
  "storageLayout": {
    "storage": [
      {
        "astId": 307,
        "contract": "contracts/bUSDC.sol:bUSDC",
        "label": "_balances",
        "offset": 0,
        "slot": "0",
        "type": "t_mapping(t_address,t_uint256)"
      },
      {
        "astId": 313,
        "contract": "contracts/bUSDC.sol:bUSDC",
        "label": "_allowances",
        "offset": 0,
        "slot": "1",
        "type": "t_mapping(t_address,t_mapping(t_address,t_uint256))"
      },
      {
        "astId": 315,
        "contract": "contracts/bUSDC.sol:bUSDC",
        "label": "_totalSupply",
        "offset": 0,
        "slot": "2",
        "type": "t_uint256"
      },
      {
        "astId": 317,
        "contract": "contracts/bUSDC.sol:bUSDC",
        "label": "_name",
        "offset": 0,
        "slot": "3",
        "type": "t_string_storage"
      },
      {
        "astId": 319,
        "contract": "contracts/bUSDC.sol:bUSDC",
        "label": "_symbol",
        "offset": 0,
        "slot": "4",
        "type": "t_string_storage"
      },
      {
        "astId": 8,
        "contract": "contracts/bUSDC.sol:bUSDC",
        "label": "_owner",
        "offset": 0,
        "slot": "5",
        "type": "t_address"
      },
      {
        "astId": 942,
        "contract": "contracts/bUSDC.sol:bUSDC",
        "label": "_paused",
        "offset": 20,
        "slot": "5",
        "type": "t_bool"
      },
      {
        "astId": 4862,
        "contract": "contracts/bUSDC.sol:bUSDC",
        "label": "lastFaucetClaim",
        "offset": 0,
        "slot": "6",
        "type": "t_mapping(t_address,t_uint256)"
      }
    ],
    "types": {
      "t_address": {
        "encoding": "inplace",
        "label": "address",
        "numberOfBytes": "20"
      },
      "t_bool": {
        "encoding": "inplace",
        "label": "bool",
        "numberOfBytes": "1"
      },
      "t_mapping(t_address,t_mapping(t_address,t_uint256))": {
        "encoding": "mapping",
        "key": "t_address",
        "label": "mapping(address => mapping(address => uint256))",
        "numberOfBytes": "32",
        "value": "t_mapping(t_address,t_uint256)"
      },
      "t_mapping(t_address,t_uint256)": {
        "encoding": "mapping",
        "key": "t_address",
        "label": "mapping(address => uint256)",
        "numberOfBytes": "32",
        "value": "t_uint256"
      },
      "t_string_storage": {
        "encoding": "bytes",
        "label": "string",
        "numberOfBytes": "32"
      },
      "t_uint256": {
        "encoding": "inplace",
        "label": "uint256",
        "numberOfBytes": "32"
      }
    }
  }
}