{
  "address": "0x0598c74C30e4e70fb6Cd7cd63c3DDE74756EAb73",
  "abi": [
    {
      "inputs": [
        {
          "internalType": "address",
          "name": "_busdcToken",
          "type": "address"
        },
        {
          "internalType": "address",
          "name": "_vendorRegistry",
          "type": "address"
        },
        {
          "internalType": "address",
          "name": "_feeRecipient",
          "type": "address"
        }
      ],
      "stateMutability": "nonpayable",
      "type": "constructor"
    },
    {
      "inputs": [],
      "name": "EnforcedPause",
      "type": "error"
    },
    {
      "inputs": [],
      "name": "ExpectedPause",
      "type": "error"
    },
    {
      "inputs": [
        {
          "internalType": "address",
          "name": "owner",
          "type": "address"
        }
      ],
      "name": "OwnableInvalidOwner",
      "type": "error"
    },
    {
      "inputs": [
        {
          "internalType": "address",
          "name": "account",
          "type": "address"
        }
      ],
      "name": "OwnableUnauthorizedAccount",
      "type": "error"
    },
    {
      "inputs": [],
      "name": "ReentrancyGuardReentrantCall",
      "type": "error"
    },
    {
      "anonymous": false,
      "inputs": [
        {
          "indexed": false,
          "internalType": "uint256",
          "name": "oldRate",
          "type": "uint256"
        },
        {
          "indexed": false,
          "internalType": "uint256",
          "name": "newRate",
          "type": "uint256"
        }
      ],
      "name": "ExchangeRateUpdated",
      "type": "event"
    },
    {
      "anonymous": false,
      "inputs": [
        {
          "indexed": false,
          "internalType": "address",
          "name": "oldRecipient",
          "type": "address"
        },
        {
          "indexed": false,
          "internalType": "address",
          "name": "newRecipient",
          "type": "address"
        }
      ],
      "name": "FeeRecipientUpdated",
      "type": "event"
    },
    {
      "anonymous": false,
      "inputs": [
        {
          "indexed": true,
          "internalType": "address",
          "name": "previousOwner",
          "type": "address"
        },
        {
          "indexed": true,
          "internalType": "address",
          "name": "newOwner",
          "type": "address"
        }
      ],
      "name": "OwnershipTransferred",
      "type": "event"
    },
    {
      "anonymous": false,
      "inputs": [
        {
          "indexed": false,
          "internalType": "address",
          "name": "account",
          "type": "address"
        }
      ],
      "name": "Paused",
      "type": "event"
    },
    {
      "anonymous": false,
      "inputs": [
        {
          "indexed": true,
          "internalType": "bytes32",
          "name": "orderId",
          "type": "bytes32"
        },
        {
          "indexed": true,
          "internalType": "address",
          "name": "buyer",
          "type": "address"
        },
        {
          "indexed": true,
          "internalType": "address",
          "name": "vendor",
          "type": "address"
        },
        {
          "indexed": false,
          "internalType": "uint256",
          "name": "amountUSDC",
          "type": "uint256"
        },
        {
          "indexed": false,
          "internalType": "uint256",
          "name": "platformFee",
          "type": "uint256"
        },
        {
          "indexed": false,
          "internalType": "uint256",
          "name": "vendorAmount",
          "type": "uint256"
        }
      ],
      "name": "PaymentCompleted",
      "type": "event"
    },
    {
      "anonymous": false,
      "inputs": [
        {
          "indexed": true,
          "internalType": "bytes32",
          "name": "orderId",
          "type": "bytes32"
        },
        {
          "indexed": true,
          "internalType": "address",
          "name": "buyer",
          "type": "address"
        },
        {
          "indexed": true,
          "internalType": "address",
          "name": "vendor",
          "type": "address"
        },
        {
          "indexed": false,
          "internalType": "string",
          "name": "reason",
          "type": "string"
        }
      ],
      "name": "PaymentFailed",
      "type": "event"
    },
    {
      "anonymous": false,
      "inputs": [
        {
          "indexed": true,
          "internalType": "bytes32",
          "name": "orderId",
          "type": "bytes32"
        },
        {
          "indexed": true,
          "internalType": "address",
          "name": "buyer",
          "type": "address"
        },
        {
          "indexed": true,
          "internalType": "address",
          "name": "vendor",
          "type": "address"
        },
        {
          "indexed": false,
          "internalType": "uint256",
          "name": "amountUSDC",
          "type": "uint256"
        },
        {
          "indexed": false,
          "internalType": "enum PaymentRouter.PaymentType",
          "name": "paymentType",
          "type": "uint8"
        }
      ],
      "name": "PaymentInitiated",
      "type": "event"
    },
    {
      "anonymous": false,
      "inputs": [
        {
          "indexed": true,
          "internalType": "bytes32",
          "name": "orderId",
          "type": "bytes32"
        },
        {
          "indexed": true,
          "internalType": "address",
          "name": "buyer",
          "type": "address"
        },
        {
          "indexed": true,
          "internalType": "address",
          "name": "vendor",
          "type": "address"
        },
        {
          "indexed": false,
          "internalType": "uint256",
          "name": "amountUSDC",
          "type": "uint256"
        }
      ],
      "name": "PaymentRefunded",
      "type": "event"
    },
    {
      "anonymous": false,
      "inputs": [
        {
          "indexed": false,
          "internalType": "uint256",
          "name": "oldFee",
          "type": "uint256"
        },
        {
          "indexed": false,
          "internalType": "uint256",
          "name": "newFee",
          "type": "uint256"
        }
      ],
      "name": "PlatformFeeUpdated",
      "type": "event"
    },
    {
      "anonymous": false,
      "inputs": [
        {
          "indexed": false,
          "internalType": "address",
          "name": "account",
          "type": "address"
        }
      ],
      "name": "Unpaused",
      "type": "event"
    },
    {
      "inputs": [],
      "name": "busdcToken",
      "outputs": [
        {
          "internalType": "contract bUSDC",
          "name": "",
          "type": "address"
        }
      ],
      "stateMutability": "view",
      "type": "function"
    },
    {
      "inputs": [
        {
          "internalType": "uint256",
          "name": "amountGHS",
          "type": "uint256"
        }
      ],
      "name": "calculateUSDCAmount",
      "outputs": [
        {
          "internalType": "uint256",
          "name": "amountUSDC",
          "type": "uint256"
        }
      ],
      "stateMutability": "view",
      "type": "function"
    },
    {
      "inputs": [
        {
          "internalType": "bytes32",
          "name": "orderId",
          "type": "bytes32"
        }
      ],
      "name": "completePayment",
      "outputs": [],
      "stateMutability": "nonpayable",
      "type": "function"
    },
    {
      "inputs": [],
      "name": "currentFxRate",
      "outputs": [
        {
          "internalType": "uint256",
          "name": "",
          "type": "uint256"
        }
      ],
      "stateMutability": "view",
      "type": "function"
    },
    {
      "inputs": [
        {
          "internalType": "address",
          "name": "token",
          "type": "address"
        },
        {
          "internalType": "uint256",
          "name": "amount",
          "type": "uint256"
        }
      ],
      "name": "emergencyWithdraw",
      "outputs": [],
      "stateMutability": "nonpayable",
      "type": "function"
    },
    {
      "inputs": [],
      "name": "feeRecipient",
      "outputs": [
        {
          "internalType": "address",
          "name": "",
          "type": "address"
        }
      ],
      "stateMutability": "view",
      "type": "function"
    },
    {
      "inputs": [],
      "name": "fxRateUpdater",
      "outputs": [
        {
          "internalType": "address",
          "name": "",
          "type": "address"
        }
      ],
      "stateMutability": "view",
      "type": "function"
    },
    {
      "inputs": [
        {
          "internalType": "bytes32",
          "name": "orderId",
          "type": "bytes32"
        }
      ],
      "name": "getReceipt",
      "outputs": [
        {
          "components": [
            {
              "internalType": "bytes32",
              "name": "orderId",
              "type": "bytes32"
            },
            {
              "internalType": "string",
              "name": "vendorENS",
              "type": "string"
            },
            {
              "internalType": "address",
              "name": "buyer",
              "type": "address"
            },
            {
              "internalType": "address",
              "name": "vendor",
              "type": "address"
            },
            {
              "internalType": "uint256",
              "name": "amountGHS",
              "type": "uint256"
            },
            {
              "internalType": "uint256",
              "name": "amountUSDC",
              "type": "uint256"
            },
            {
              "internalType": "uint256",
              "name": "fxRate",
              "type": "uint256"
            },
            {
              "internalType": "uint256",
              "name": "timestamp",
              "type": "uint256"
            },
            {
              "internalType": "enum PaymentRouter.PaymentType",
              "name": "paymentType",
              "type": "uint8"
            },
            {
              "internalType": "enum PaymentRouter.PaymentStatus",
              "name": "status",
              "type": "uint8"
            },
            {
              "internalType": "string",
              "name": "metadata",
              "type": "string"
            }
          ],
          "internalType": "struct PaymentRouter.Receipt",
          "name": "receipt",
          "type": "tuple"
        }
      ],
      "stateMutability": "view",
      "type": "function"
    },
    {
      "inputs": [
        {
          "internalType": "address",
          "name": "user",
          "type": "address"
        },
        {
          "internalType": "uint256",
          "name": "offset",
          "type": "uint256"
        },
        {
          "internalType": "uint256",
          "name": "limit",
          "type": "uint256"
        }
      ],
      "name": "getUserReceipts",
      "outputs": [
        {
          "internalType": "bytes32[]",
          "name": "orderIds",
          "type": "bytes32[]"
        }
      ],
      "stateMutability": "view",
      "type": "function"
    },
    {
      "inputs": [
        {
          "internalType": "address",
          "name": "vendor",
          "type": "address"
        }
      ],
      "name": "getVendorEarnings",
      "outputs": [
        {
          "internalType": "uint256",
          "name": "earnings",
          "type": "uint256"
        }
      ],
      "stateMutability": "view",
      "type": "function"
    },
    {
      "inputs": [
        {
          "internalType": "address",
          "name": "vendor",
          "type": "address"
        },
        {
          "internalType": "uint256",
          "name": "amountGHS",
          "type": "uint256"
        },
        {
          "internalType": "string",
          "name": "metadata",
          "type": "string"
        }
      ],
      "name": "initiateInvoicePay",
      "outputs": [
        {
          "internalType": "bytes32",
          "name": "orderId",
          "type": "bytes32"
        }
      ],
      "stateMutability": "nonpayable",
      "type": "function"
    },
    {
      "inputs": [
        {
          "internalType": "address",
          "name": "vendor",
          "type": "address"
        },
        {
          "internalType": "uint256",
          "name": "amountGHS",
          "type": "uint256"
        }
      ],
      "name": "initiateQuickPay",
      "outputs": [
        {
          "internalType": "bytes32",
          "name": "orderId",
          "type": "bytes32"
        }
      ],
      "stateMutability": "nonpayable",
      "type": "function"
    },
    {
      "inputs": [
        {
          "internalType": "bytes32",
          "name": "orderId",
          "type": "bytes32"
        },
        {
          "internalType": "string",
          "name": "reason",
          "type": "string"
        }
      ],
      "name": "markPaymentFailed",
      "outputs": [],
      "stateMutability": "nonpayable",
      "type": "function"
    },
    {
      "inputs": [],
      "name": "owner",
      "outputs": [
        {
          "internalType": "address",
          "name": "",
          "type": "address"
        }
      ],
      "stateMutability": "view",
      "type": "function"
    },
    {
      "inputs": [],
      "name": "pause",
      "outputs": [],
      "stateMutability": "nonpayable",
      "type": "function"
    },
    {
      "inputs": [],
      "name": "paused",
      "outputs": [
        {
          "internalType": "bool",
          "name": "",
          "type": "bool"
        }
      ],
      "stateMutability": "view",
      "type": "function"
    },
    {
      "inputs": [],
      "name": "platformFeeBps",
      "outputs": [
        {
          "internalType": "uint256",
          "name": "",
          "type": "uint256"
        }
      ],
      "stateMutability": "view",
      "type": "function"
    },
    {
      "inputs": [
        {
          "internalType": "bytes32",
          "name": "",
          "type": "bytes32"
        }
      ],
      "name": "receipts",
      "outputs": [
        {
          "internalType": "bytes32",
          "name": "orderId",
          "type": "bytes32"
        },
        {
          "internalType": "string",
          "name": "vendorENS",
          "type": "string"
        },
        {
          "internalType": "address",
          "name": "buyer",
          "type": "address"
        },
        {
          "internalType": "address",
          "name": "vendor",
          "type": "address"
        },
        {
          "internalType": "uint256",
          "name": "amountGHS",
          "type": "uint256"
        },
        {
          "internalType": "uint256",
          "name": "amountUSDC",
          "type": "uint256"
        },
        {
          "internalType": "uint256",
          "name": "fxRate",
          "type": "uint256"
        },
        {
          "internalType": "uint256",
          "name": "timestamp",
          "type": "uint256"
        },
        {
          "internalType": "enum PaymentRouter.PaymentType",
          "name": "paymentType",
          "type": "uint8"
        },
        {
          "internalType": "enum PaymentRouter.PaymentStatus",
          "name": "status",
          "type": "uint8"
        },
        {
          "internalType": "string",
          "name": "metadata",
          "type": "string"
        }
      ],
      "stateMutability": "view",
      "type": "function"
    },
    {
      "inputs": [
        {
          "internalType": "bytes32",
          "name": "orderId",
          "type": "bytes32"
        }
      ],
      "name": "refundPayment",
      "outputs": [],
      "stateMutability": "nonpayable",
      "type": "function"
    },
    {
      "inputs": [],
      "name": "renounceOwnership",
      "outputs": [],
      "stateMutability": "nonpayable",
      "type": "function"
    },
    {
      "inputs": [
        {
          "internalType": "address",
          "name": "newOwner",
          "type": "address"
        }
      ],
      "name": "transferOwnership",
      "outputs": [],
      "stateMutability": "nonpayable",
      "type": "function"
    },
    {
      "inputs": [],
      "name": "unpause",
      "outputs": [],
      "stateMutability": "nonpayable",
      "type": "function"
    },
    {
      "inputs": [
        {
          "internalType": "uint256",
          "name": "newRate",
          "type": "uint256"
        }
      ],
      "name": "updateExchangeRate",
      "outputs": [],
      "stateMutability": "nonpayable",
      "type": "function"
    },
    {
      "inputs": [
        {
          "internalType": "address",
          "name": "newRecipient",
          "type": "address"
        }
      ],
      "name": "updateFeeRecipient",
      "outputs": [],
      "stateMutability": "nonpayable",
      "type": "function"
    },
    {
      "inputs": [
        {
          "internalType": "address",
          "name": "newUpdater",
          "type": "address"
        }
      ],
      "name": "updateFxRateUpdater",
      "outputs": [],
      "stateMutability": "nonpayable",
      "type": "function"
    },
    {
      "inputs": [
        {
          "internalType": "uint256",
          "name": "newFeeBps",
          "type": "uint256"
        }
      ],
      "name": "updatePlatformFee",
      "outputs": [],
      "stateMutability": "nonpayable",
      "type": "function"
    },
    {
      "inputs": [
        {
          "internalType": "address",
          "name": "",
          "type": "address"
        },
        {
          "internalType": "uint256",
          "name": "",
          "type": "uint256"
        }
      ],
      "name": "userReceipts",
      "outputs": [
        {
          "internalType": "bytes32",
          "name": "",
          "type": "bytes32"
        }
      ],
      "stateMutability": "view",
      "type": "function"
    },
    {
      "inputs": [
        {
          "internalType": "address",
          "name": "",
          "type": "address"
        }
      ],
      "name": "vendorEarnings",
      "outputs": [
        {
          "internalType": "uint256",
          "name": "",
          "type": "uint256"
        }
      ],
      "stateMutability": "view",
      "type": "function"
    },
    {
      "inputs": [],
      "name": "vendorRegistry",
      "outputs": [
        {
          "internalType": "contract VendorRegistry",
          "name": "",
          "type": "address"
        }
      ],
      "stateMutability": "view",
      "type": "function"
    }
  ],
  "transactionHash": "0xcbde41f1f8c58e6b4750b0a5312dfa4810af57db67cc9f38070ed8704886d6b9",
  "args": [
    "0xeb9361Ec0d712C5B12965FB91c409262b7d6703c",
    "0xA9F04F020CF9F511982719196E25FE7c666c9E4D",
    "0xBab2d51d46042098690a9767339d7603C9F737C1"
  ],
  "numDeployments": 1,
  "solcInputHash": "1e7f658a624141603997a4c1dbf9231d",
  "bytecode": "0x6080604052620f424060045560196006556000600b553480156200002257600080fd5b5060405162002df138038062002df1833981016040819052620000459162000139565b33806200006c57604051631e4fbdf760e01b81526000600482015260240160405180910390fd5b6200007781620000cc565b5060018055600280546001600160a01b039485166001600160a01b0319918216179091556003805493851693821693909317909255600780549190931690821617909155600580549091163317905562000183565b600080546001600160a01b038381166001600160a01b0319831681178455604051919092169283917f8be0079c531659141344cd1fd0a4f28419497f9722a3daafe3b4186f6b6457e09190a35050565b80516001600160a01b03811681146200013457600080fd5b919050565b6000806000606084860312156200014f57600080fd5b6200015a846200011c565b92506200016a602085016200011c565b91506200017a604085016200011c565b90509250925092565b612c5e80620001936000396000f3fe608060405234801561001057600080fd5b50600436106101cf5760003560e01c80638da5cb5b11610104578063d290dcfc116100a2578063ef6cf04d11610071578063ef6cf04d146103df578063f160d36914610409578063f2fde38b1461041c578063fcecbb611461042f57600080fd5b8063d290dcfc14610386578063de8f8b3f14610399578063df867859146103ac578063ee5ac03e146103bf57600080fd5b80639aadf60a116100de5780639aadf60a1461033a578063a843c5fe1461034d578063aa0b598814610360578063b9e205ae1461037357600080fd5b80638da5cb5b146102ed5780638eefcf62146102fe57806395ccea671461032757600080fd5b806347ca8a8b11610171578063715018a61161014b578063715018a6146102aa5780638456cb59146102b25780638926e419146102ba5780638d420d13146102cd57600080fd5b806347ca8a8b146102675780634cabb8241461027a5780635c975abb1461028d57600080fd5b806322dcd13e116101ad57806322dcd13e14610230578063237e288a146102395780633f4ba83a1461024c578063469048401461025457600080fd5b8063012beac9146101d4578063155f82e9146102045780631ab154961461021b575b600080fd5b6003546101e7906001600160a01b031681565b6040516001600160a01b0390911681526020015b60405180910390f35b61020d60045481565b6040519081526020016101fb565b61022e61022936600461237e565b61044f565b005b61020d60065481565b61020d61024736600461248a565b6104f2565b61022e610876565b6007546101e7906001600160a01b031681565b61022e6102753660046124e3565b610888565b61020d6102883660046124e3565b610dac565b600054600160a01b900460ff1660405190151581526020016101fb565b61022e610dd0565b61022e610de2565b61020d6102c83660046124fc565b610df2565b6102e06102db366004612528565b61111a565b6040516101fb919061255d565b6000546001600160a01b03166101e7565b61020d61030c36600461237e565b6001600160a01b03166000908152600a602052604090205490565b61022e6103353660046124fc565b61126c565b61022e6103483660046125a1565b6115dc565b61020d61035b3660046124fc565b61174e565b61022e61036e3660046124e3565b61177f565b61022e6103813660046124e3565b61182b565b6002546101e7906001600160a01b031681565b61022e6103a73660046124e3565b61195c565b6005546101e7906001600160a01b031681565b61020d6103cd36600461237e565b600a6020526000908152604090205481565b6103f26103ed3660046124e3565b611b96565b6040516101fb9b9a99989796959493929190612672565b61022e61041736600461237e565b611d14565b61022e61042a36600461237e565b611de8565b61044261043d3660046124e3565b611e23565b6040516101fb9190612702565b610457612062565b6001600160a01b0381166104d05760405162461bcd60e51b815260206004820152603560248201527f5061796d656e74526f757465723a204658207261746520757064617465722063604482015274616e6e6f74206265207a65726f206164647265737360581b60648201526084015b60405180910390fd5b600580546001600160a01b0319166001600160a01b0392909216919091179055565b60035460405163353f20fd60e01b81526001600160a01b038086166004830152600092869291169063353f20fd90602401602060405180830381865afa158015610540573d6000803e3d6000fd5b505050506040513d601f19601f8201168201806040525081019061056491906127eb565b6105b05760405162461bcd60e51b815260206004820181905260248201527f5061796d656e74526f757465723a2056656e646f72206e6f742061637469766560448201526064016104c7565b6105b861208f565b6000620f4240600454866105cc919061281c565b6105d69190612833565b9050600081116106285760405162461bcd60e51b815260206004820152601f60248201527f5061796d656e74526f757465723a20416d6f756e7420746f6f20736d616c6c0060448201526064016104c7565b60008451116106895760405162461bcd60e51b815260206004820152602760248201527f5061796d656e74526f757465723a204d657461646174612063616e6e6f7420626044820152666520656d70747960c81b60648201526084016104c7565b6106916120ba565b92506040518061016001604052808481526020016106ae8861212b565b81523360208201526001600160a01b0388166040820152606081018790526080810183905260045460a08201524260c082015260e00160018152602001600081526020908101869052600085815260088252604090208251815590820151600182019061071b90826128d7565b5060408201516002820180546001600160a01b039283166001600160a01b03199182161790915560608401516003840180549190931691161790556080820151600482015560a0820151600582015560c0820151600682015560e0820151600782015561010082015160088201805460ff1916600183818111156107a1576107a1612638565b021790555061012082015160088201805461ff0019166101008360038111156107cc576107cc612638565b021790555061014082015160098201906107e690826128d7565b5050336000818152600960209081526040808320805460018181018355918552838520018990556001600160a01b038c1680855282852080548084018255908652939094209092018890555191935086917fd1cbe362484d6d80f52e20672fd2e4b5579125af9908612b8bda8199d99f8bd19161086591879190612997565b60405180910390a450509392505050565b61087e612062565b6108866121ad565b565b610890612202565b60008181526008602052604090205481906108bd5760405162461bcd60e51b81526004016104c7906129ab565b6000828152600860205260408120906008820154610100900460ff1660038111156108ea576108ea612638565b146109075760405162461bcd60e51b81526004016104c7906129e2565b60028101546001600160a01b0316331461097a5760405162461bcd60e51b815260206004820152602e60248201527f5061796d656e74526f757465723a204f6e6c792062757965722063616e20636f60448201526d1b5c1b195d19481c185e5b595b9d60921b60648201526084016104c7565b60058101546002546040516370a0823160e01b81523360048201526001600160a01b03909116906370a0823190602401602060405180830381865afa1580156109c7573d6000803e3d6000fd5b505050506040513d601f19601f820116820180604052508101906109eb9190612a24565b1015610a4b5760405162461bcd60e51b815260206004820152602960248201527f5061796d656e74526f757465723a20496e73756666696369656e742062555344604482015268432062616c616e636560b81b60648201526084016104c7565b60006127106006548360050154610a62919061281c565b610a6c9190612833565b90506000818360050154610a809190612a3d565b60025460058501546040516323b872dd60e01b815233600482015230602482015260448101919091529192506001600160a01b0316906323b872dd906064016020604051808303816000875af1158015610ade573d6000803e3d6000fd5b505050506040513d601f19601f82011682018060405250810190610b0291906127eb565b610b4e5760405162461bcd60e51b815260206004820152601e60248201527f5061796d656e74526f757465723a205472616e73666572206661696c6564000060448201526064016104c7565b8115610c245760025460075460405163a9059cbb60e01b81526001600160a01b0391821660048201526024810185905291169063a9059cbb906044016020604051808303816000875af1158015610ba9573d6000803e3d6000fd5b505050506040513d601f19601f82011682018060405250810190610bcd91906127eb565b610c245760405162461bcd60e51b815260206004820152602260248201527f5061796d656e74526f757465723a20466565207472616e73666572206661696c604482015261195960f21b60648201526084016104c7565b600254600384015460405163a9059cbb60e01b81526001600160a01b0391821660048201526024810184905291169063a9059cbb906044016020604051808303816000875af1158015610c7b573d6000803e3d6000fd5b505050506040513d601f19601f82011682018060405250810190610c9f91906127eb565b610cf95760405162461bcd60e51b815260206004820152602560248201527f5061796d656e74526f757465723a2056656e646f72207472616e736665722066604482015264185a5b195960da1b60648201526084016104c7565b60088301805461ff00191661010017905560038301546001600160a01b03166000908152600a602052604081208054839290610d36908490612a50565b9091555050600383015460028401546005850154604080519182526020820186905281018490526001600160a01b03928316929091169087907fab776149fc023f3e5cafa5099ef7b7c5a5756789546721c3b359ef4e0f9005d99060600160405180910390a450505050610da960018055565b50565b6000620f424060045483610dc0919061281c565b610dca9190612833565b92915050565b610dd8612062565b610886600061222c565b610dea612062565b61088661227c565b60035460405163353f20fd60e01b81526001600160a01b038085166004830152600092859291169063353f20fd90602401602060405180830381865afa158015610e40573d6000803e3d6000fd5b505050506040513d601f19601f82011682018060405250810190610e6491906127eb565b610eb05760405162461bcd60e51b815260206004820181905260248201527f5061796d656e74526f757465723a2056656e646f72206e6f742061637469766560448201526064016104c7565b610eb861208f565b6000620f424060045485610ecc919061281c565b610ed69190612833565b905060008111610f285760405162461bcd60e51b815260206004820152601f60248201527f5061796d656e74526f757465723a20416d6f756e7420746f6f20736d616c6c0060448201526064016104c7565b610f306120ba565b9250604051806101600160405280848152602001610f4d8761212b565b81523360208201526001600160a01b0387166040820152606081018690526080810183905260045460a08201524260c082015260e0016000815260200160008152604080516020818101835260008083529381019190915286835260088152912082518155908201516001820190610fc590826128d7565b5060408201516002820180546001600160a01b039283166001600160a01b03199182161790915560608401516003840180549190931691161790556080820151600482015560a0820151600582015560c0820151600682015560e0820151600782015561010082015160088201805460ff19166001838181111561104b5761104b612638565b021790555061012082015160088201805461ff00191661010083600381111561107657611076612638565b0217905550610140820151600982019061109090826128d7565b5050336000818152600960209081526040808320805460018181018355918552838520018990556001600160a01b038b16808552828520805492830181558552928420018890555190935086917fd1cbe362484d6d80f52e20672fd2e4b5579125af9908612b8bda8199d99f8bd19161110a918791612997565b60405180910390a4505092915050565b6001600160a01b038316600090815260096020526040902080546060919084106111925760405162461bcd60e51b815260206004820152602360248201527f5061796d656e74526f757465723a204f6666736574206f7574206f6620626f756044820152626e647360e81b60648201526084016104c7565b600061119e8486612a50565b82549091508111156111ae575080545b60006111ba8683612a3d565b67ffffffffffffffff8111156111d2576111d261239b565b6040519080825280602002602001820160405280156111fb578160200160208202803683370190505b509050855b8281101561125f5783818154811061121a5761121a612a63565b90600052602060002001548288836112329190612a3d565b8151811061124257611242612a63565b60209081029190910101528061125781612a79565b915050611200565b50925050505b9392505050565b611274612062565b6001600160a01b0382166113a357600081156112905781611292565b475b9050600081116112ee5760405162461bcd60e51b815260206004820152602160248201527f5061796d656e74526f757465723a204e6f2045544820746f20776974686472616044820152607760f81b60648201526084016104c7565b600080546040516001600160a01b039091169083908381818185875af1925050503d806000811461133b576040519150601f19603f3d011682016040523d82523d6000602084013e611340565b606091505b505090508061139d5760405162461bcd60e51b8152602060048201526024808201527f5061796d656e74526f757465723a20455448207769746864726177616c2066616044820152631a5b195960e21b60648201526084016104c7565b50505050565b6002546001600160a01b0383811691161461140f5760405162461bcd60e51b815260206004820152602660248201527f5061796d656e74526f757465723a2043616e206f6e6c7920776974686472617760448201526520625553444360d01b60648201526084016104c7565b6000811561141d5781611489565b6002546040516370a0823160e01b81523060048201526001600160a01b03909116906370a0823190602401602060405180830381865afa158015611465573d6000803e3d6000fd5b505050506040513d601f19601f820116820180604052508101906114899190612a24565b9050600081116114e75760405162461bcd60e51b8152602060048201526024808201527f5061796d656e74526f757465723a204e6f20746f6b656e7320746f20776974686044820152636472617760e01b60648201526084016104c7565b6002546001600160a01b031663a9059cbb61150a6000546001600160a01b031690565b6040516001600160e01b031960e084901b1681526001600160a01b039091166004820152602481018490526044016020604051808303816000875af1158015611557573d6000803e3d6000fd5b505050506040513d601f19601f8201168201806040525081019061157b91906127eb565b6115d65760405162461bcd60e51b815260206004820152602660248201527f5061796d656e74526f757465723a20546f6b656e207769746864726177616c2060448201526519985a5b195960d21b60648201526084016104c7565b505b5050565b60008281526008602052604090205482906116095760405162461bcd60e51b81526004016104c7906129ab565b6000838152600860205260408120906008820154610100900460ff16600381111561163657611636612638565b146116535760405162461bcd60e51b81526004016104c7906129e2565b60038101546001600160a01b031633148061167857506000546001600160a01b031633145b6116e35760405162461bcd60e51b815260206004820152603660248201527f5061796d656e74526f757465723a204f6e6c792076656e646f72206f722061646044820152751b5a5b8818d85b881b585c9ac8185cc819985a5b195960521b60648201526084016104c7565b60088101805461ff001916610200179055600381015460028201546040516001600160a01b03928316929091169086907f7a2ea751754fe932d035d5b4731a6eb8f5d1571412b2f691a4440ff6a520a4e290611740908890612a92565b60405180910390a450505050565b6009602052816000526040600020818154811061176a57600080fd5b90600052602060002001600091509150505481565b611787612062565b6103e88111156117e55760405162461bcd60e51b8152602060048201526024808201527f5061796d656e74526f757465723a204665652063616e6e6f74206578636565646044820152632031302560e01b60648201526084016104c7565b600680549082905560408051828152602081018490527fd347e206f25a89b917fc9482f1a2d294d749baa4dc9bde7fb495ee11fe49164391015b60405180910390a15050565b6005546001600160a01b031633148061184e57506000546001600160a01b031633145b6118b85760405162461bcd60e51b815260206004820152603560248201527f5061796d656e74526f757465723a204e6f7420617574686f72697a656420746f604482015274207570646174652065786368616e6765207261746560581b60648201526084016104c7565b6000811161191e5760405162461bcd60e51b815260206004820152602d60248201527f5061796d656e74526f757465723a2045786368616e67652072617465206d757360448201526c7420626520706f73697469766560981b60648201526084016104c7565b600480549082905560408051828152602081018490527fc8d1043f24843c0a1c9251fdc30017d84e87498fbcf232af9f86816b5e182bde910161181f565b611964612062565b60008181526008602052604090205481906119915760405162461bcd60e51b81526004016104c7906129ab565b611999612202565b600082815260086020526040902060016008820154610100900460ff1660038111156119c7576119c7612638565b14611a205760405162461bcd60e51b8152602060048201526024808201527f5061796d656e74526f757465723a205061796d656e74206e6f7420636f6d706c604482015263195d195960e21b60648201526084016104c7565b6005810154600280549083015460405163a9059cbb60e01b81526001600160a01b0391821660048201526024810184905291169063a9059cbb906044016020604051808303816000875af1158015611a7c573d6000803e3d6000fd5b505050506040513d601f19601f82011682018060405250810190611aa091906127eb565b611afa5760405162461bcd60e51b815260206004820152602560248201527f5061796d656e74526f757465723a20526566756e64207472616e736665722066604482015264185a5b195960da1b60648201526084016104c7565b60088201805461ff00191661030017905560038201546001600160a01b03166000908152600a602052604081208054839290611b37908490612a3d565b9091555050600382015460028301546040518381526001600160a01b03928316929091169086907f42b8ba31338f985ac11f6eaa31356b5cbd8eaa2f7f01e453369f02f1cf234b989060200160405180910390a450506115d860018055565b60086020526000908152604090208054600182018054919291611bb890612855565b80601f0160208091040260200160405190810160405280929190818152602001828054611be490612855565b8015611c315780601f10611c0657610100808354040283529160200191611c31565b820191906000526020600020905b815481529060010190602001808311611c1457829003601f168201915b50505060028401546003850154600486015460058701546006880154600789015460088a015460098b0180549a9b6001600160a01b039889169b97909816995094975092959194909360ff808516946101009004169291611c9190612855565b80601f0160208091040260200160405190810160405280929190818152602001828054611cbd90612855565b8015611d0a5780601f10611cdf57610100808354040283529160200191611d0a565b820191906000526020600020905b815481529060010190602001808311611ced57829003601f168201915b505050505090508b565b611d1c612062565b6001600160a01b038116611d8e5760405162461bcd60e51b815260206004820152603360248201527f5061796d656e74526f757465723a2046656520726563697069656e742063616e6044820152726e6f74206265207a65726f206164647265737360681b60648201526084016104c7565b600780546001600160a01b038381166001600160a01b031983168117909355604080519190921680825260208201939093527faaebcf1bfa00580e41d966056b48521fa9f202645c86d4ddf28113e617c1b1d3910161181f565b611df0612062565b6001600160a01b038116611e1a57604051631e4fbdf760e01b8152600060048201526024016104c7565b610da98161222c565b611e2b6122e9565b6000828152600860205260409020548290611e585760405162461bcd60e51b81526004016104c7906129ab565b600860008481526020019081526020016000206040518061016001604052908160008201548152602001600182018054611e9190612855565b80601f0160208091040260200160405190810160405280929190818152602001828054611ebd90612855565b8015611f0a5780601f10611edf57610100808354040283529160200191611f0a565b820191906000526020600020905b815481529060010190602001808311611eed57829003601f168201915b505050918352505060028201546001600160a01b03908116602083015260038301541660408201526004820154606082015260058201546080820152600682015460a0820152600782015460c0820152600882015460e09091019060ff166001811115611f7957611f79612638565b6001811115611f8a57611f8a612638565b81526020016008820160019054906101000a900460ff166003811115611fb257611fb2612638565b6003811115611fc357611fc3612638565b8152602001600982018054611fd790612855565b80601f016020809104026020016040519081016040528092919081815260200182805461200390612855565b80156120505780601f1061202557610100808354040283529160200191612050565b820191906000526020600020905b81548152906001019060200180831161203357829003601f168201915b50505050508152505091505b50919050565b6000546001600160a01b031633146108865760405163118cdaa760e01b81523360048201526024016104c7565b600054600160a01b900460ff16156108865760405163d93c066560e01b815260040160405180910390fd5b600b8054600091826120cb83612a79565b9091555050600b5460405161211091429143913391602001938452602084019290925260601b6bffffffffffffffffffffffff19166040830152605482015260740190565b60405160208183030381529060405280519060200120905090565b600354604051635480df8960e01b81526001600160a01b038381166004830152606092600092911690635480df8990602401600060405180830381865afa15801561217a573d6000803e3d6000fd5b505050506040513d6000823e601f3d908101601f191682016040526121a29190810190612b0c565b602001519392505050565b6121b56122bf565b6000805460ff60a01b191690557f5db9ee0a495bf2e6ff9c91a7834c1ba4fdd244a5e8aa4e537bd38aeae4b073aa335b6040516001600160a01b03909116815260200160405180910390a1565b60026001540361222557604051633ee5aeb560e01b815260040160405180910390fd5b6002600155565b600080546001600160a01b038381166001600160a01b0319831681178455604051919092169283917f8be0079c531659141344cd1fd0a4f28419497f9722a3daafe3b4186f6b6457e09190a35050565b61228461208f565b6000805460ff60a01b1916600160a01b1790557f62e78cea01bee320cd4e420270b5ea74000d11b0c9f74754ebdbfc544b05a2586121e53390565b600054600160a01b900460ff1661088657604051638dfc202b60e01b815260040160405180910390fd5b604051806101600160405280600080191681526020016060815260200160006001600160a01b0316815260200160006001600160a01b03168152602001600081526020016000815260200160008152602001600081526020016000600181111561235557612355612638565b815260200160008152602001606081525090565b6001600160a01b0381168114610da957600080fd5b60006020828403121561239057600080fd5b813561126581612369565b634e487b7160e01b600052604160045260246000fd5b604051610140810167ffffffffffffffff811182821017156123d5576123d561239b565b60405290565b604051601f8201601f1916810167ffffffffffffffff811182821017156124045761240461239b565b604052919050565b600067ffffffffffffffff8211156124265761242661239b565b50601f01601f191660200190565b600082601f83011261244557600080fd5b81356124586124538261240c565b6123db565b81815284602083860101111561246d57600080fd5b816020850160208301376000918101602001919091529392505050565b60008060006060848603121561249f57600080fd5b83356124aa81612369565b925060208401359150604084013567ffffffffffffffff8111156124cd57600080fd5b6124d986828701612434565b9150509250925092565b6000602082840312156124f557600080fd5b5035919050565b6000806040838503121561250f57600080fd5b823561251a81612369565b946020939093013593505050565b60008060006060848603121561253d57600080fd5b833561254881612369565b95602085013595506040909401359392505050565b6020808252825182820181905260009190848201906040850190845b8181101561259557835183529284019291840191600101612579565b50909695505050505050565b600080604083850312156125b457600080fd5b82359150602083013567ffffffffffffffff8111156125d257600080fd5b6125de85828601612434565b9150509250929050565b60005b838110156126035781810151838201526020016125eb565b50506000910152565b600081518084526126248160208601602086016125e8565b601f01601f19169290920160200192915050565b634e487b7160e01b600052602160045260246000fd5b6002811061265e5761265e612638565b9052565b6004811061265e5761265e612638565b60006101608d835280602084015261268c8184018e61260c565b6001600160a01b038d811660408601528c166060850152608084018b905260a084018a905260c0840189905260e0840188905290506126cf61010084018761264e565b6126dd610120840186612662565b8281036101408401526126f0818561260c565b9e9d5050505050505050505050505050565b60208152815160208201526000602083015161016080604085015261272b61018085018361260c565b9150604085015161274760608601826001600160a01b03169052565b5060608501516001600160a01b038116608086015250608085015160a085015260a085015160c085015260c085015160e085015260e085015161010081818701528087015191505061012061279e8187018361264e565b86015190506101406127b286820183612662565b860151858403601f19018387015290506127cc838261260c565b9695505050505050565b805180151581146127e657600080fd5b919050565b6000602082840312156127fd57600080fd5b611265826127d6565b634e487b7160e01b600052601160045260246000fd5b8082028115828204841417610dca57610dca612806565b60008261285057634e487b7160e01b600052601260045260246000fd5b500490565b600181811c9082168061286957607f821691505b60208210810361205c57634e487b7160e01b600052602260045260246000fd5b601f8211156115d657600081815260208120601f850160051c810160208610156128b05750805b601f850160051c820191505b818110156128cf578281556001016128bc565b505050505050565b815167ffffffffffffffff8111156128f1576128f161239b565b612905816128ff8454612855565b84612889565b602080601f83116001811461293a57600084156129225750858301515b600019600386901b1c1916600185901b1785556128cf565b600085815260208120601f198616915b828110156129695788860151825594840194600190910190840161294a565b50858210156129875787850151600019600388901b60f8161c191681555b5050505050600190811b01905550565b82815260408101611265602083018461264e565b6020808252601f908201527f5061796d656e74526f757465723a20496e76616c6964206f7264657220494400604082015260600190565b60208082526022908201527f5061796d656e74526f757465723a205061796d656e74206e6f742070656e64696040820152616e6760f01b606082015260800190565b600060208284031215612a3657600080fd5b5051919050565b81810381811115610dca57610dca612806565b80820180821115610dca57610dca612806565b634e487b7160e01b600052603260045260246000fd5b600060018201612a8b57612a8b612806565b5060010190565b602081526000611265602083018461260c565b80516127e681612369565b600082601f830112612ac157600080fd5b8151612acf6124538261240c565b818152846020838601011115612ae457600080fd5b612af58260208301602087016125e8565b949350505050565b8051600481106127e657600080fd5b600060208284031215612b1e57600080fd5b815167ffffffffffffffff80821115612b3657600080fd5b908301906101408286031215612b4b57600080fd5b612b536123b1565b612b5c83612aa5565b8152602083015182811115612b7057600080fd5b612b7c87828601612ab0565b602083015250604083015182811115612b9457600080fd5b612ba087828601612ab0565b604083015250606083015182811115612bb857600080fd5b612bc487828601612ab0565b606083015250612bd6608084016127d6565b6080820152612be760a084016127d6565b60a082015260c083015160c0820152612c0260e08401612afd565b60e08201526101008381015190820152610120928301519281019290925250939250505056fea264697066735822122019342ff5cea3e88ec0510a5914895780d5b48c9dfedffdfe2c48d6a534a620e364736f6c63430008140033",
  "devdoc": {
    "details": "Handles bUSDC payments between buyers and vendors Supports Quick Pay (amount only) and Invoice Pay (with metadata) Emits Receipt events for transaction tracking",
    "errors": {
      "EnforcedPause()": [
        {
          "details": "The operation failed because the contract is paused."
        }
      ],
      "ExpectedPause()": [
        {
          "details": "The operation failed because the contract is not paused."
        }
      ],
      "OwnableInvalidOwner(address)": [
        {
          "details": "The owner is not a valid owner account. (eg. `address(0)`)"
        }
      ],
      "OwnableUnauthorizedAccount(address)": [
        {
          "details": "The caller account is not authorized to perform an operation."
        }
      ],
      "ReentrancyGuardReentrantCall()": [
        {
          "details": "Unauthorized reentrant call."
        }
      ]
    },
    "events": {
      "Paused(address)": {
        "details": "Emitted when the pause is triggered by `account`."
      },
      "Unpaused(address)": {
        "details": "Emitted when the pause is lifted by `account`."
      }
    },
    "kind": "dev",
    "methods": {
      "calculateUSDCAmount(uint256)": {
        "details": "Calculate amount in USDC from GHS",
        "params": {
          "amountGHS": "Amount in GHS"
        },
        "returns": {
          "amountUSDC": "Amount in bUSDC"
        }
      },
      "completePayment(bytes32)": {
        "details": "Complete a payment by transferring bUSDC tokens",
        "params": {
          "orderId": "Order ID to complete"
        }
      },
      "emergencyWithdraw(address,uint256)": {
        "details": "Emergency withdraw (admin only)",
        "params": {
          "amount": "Amount to withdraw (0 for all)",
          "token": "Token address to withdraw (0 for ETH)"
        }
      },
      "getReceipt(bytes32)": {
        "details": "Get receipt by order ID",
        "params": {
          "orderId": "Order ID to query"
        },
        "returns": {
          "receipt": "Receipt struct"
        }
      },
      "getUserReceipts(address,uint256,uint256)": {
        "details": "Get user's receipt IDs",
        "params": {
          "limit": "Maximum number of receipts to return",
          "offset": "Starting index",
          "user": "User address"
        },
        "returns": {
          "orderIds": "Array of order IDs"
        }
      },
      "getVendorEarnings(address)": {
        "details": "Get vendor's total earnings",
        "params": {
          "vendor": "Vendor address"
        },
        "returns": {
          "earnings": "Total earnings in bUSDC"
        }
      },
      "initiateInvoicePay(address,uint256,string)": {
        "details": "Initiate an Invoice Pay transaction with metadata",
        "params": {
          "amountGHS": "Amount in GHS",
          "metadata": "JSON string with invoice details",
          "vendor": "Vendor's address"
        },
        "returns": {
          "orderId": "Generated order ID"
        }
      },
      "initiateQuickPay(address,uint256)": {
        "details": "Initiate a Quick Pay transaction",
        "params": {
          "amountGHS": "Amount in GHS",
          "vendor": "Vendor's address"
        },
        "returns": {
          "orderId": "Generated order ID"
        }
      },
      "markPaymentFailed(bytes32,string)": {
        "details": "Mark a payment as failed (admin or vendor only)",
        "params": {
          "orderId": "Order ID to mark as failed",
          "reason": "Reason for failure"
        }
      },
      "owner()": {
        "details": "Returns the address of the current owner."
      },
      "pause()": {
        "details": "Pause the contract (admin only)"
      },
      "paused()": {
        "details": "Returns true if the contract is paused, and false otherwise."
      },
      "refundPayment(bytes32)": {
        "details": "Refund a completed payment (admin only)",
        "params": {
          "orderId": "Order ID to refund"
        }
      },
      "renounceOwnership()": {
        "details": "Leaves the contract without owner. It will not be possible to call `onlyOwner` functions. Can only be called by the current owner. NOTE: Renouncing ownership will leave the contract without an owner, thereby disabling any functionality that is only available to the owner."
      },
      "transferOwnership(address)": {
        "details": "Transfers ownership of the contract to a new account (`newOwner`). Can only be called by the current owner."
      },
      "unpause()": {
        "details": "Unpause the contract (admin only)"
      },
      "updateExchangeRate(uint256)": {
        "details": "Update exchange rate (GHS to USDC)",
        "params": {
          "newRate": "New exchange rate (6 decimals)"
        }
      },
      "updateFeeRecipient(address)": {
        "details": "Update fee recipient",
        "params": {
          "newRecipient": "New fee recipient address"
        }
      },
      "updateFxRateUpdater(address)": {
        "details": "Update FX rate updater address",
        "params": {
          "newUpdater": "New FX rate updater address"
        }
      },
      "updatePlatformFee(uint256)": {
        "details": "Update platform fee",
        "params": {
          "newFeeBps": "New fee in basis points (100 = 1%)"
        }
      }
    },
    "title": "PaymentRouter",
    "version": 1
  },
  "userdoc": {
    "kind": "user",
    "methods": {},
    "version": 1
  },
  "storageLayout": {
    "storage": [
      {
        "astId": 8,
        "contract": "contracts/PaymentRouter.sol:PaymentRouter",
        "label": "_owner",
        "offset": 0,
        "slot": "0",
        "type": "t_address"
      },
      {
        "astId": 942,
        "contract": "contracts/PaymentRouter.sol:PaymentRouter",
        "label": "_paused",
        "offset": 20,
        "slot": "0",
        "type": "t_bool"
      },
      {
        "astId": 1052,
        "contract": "contracts/PaymentRouter.sol:PaymentRouter",
        "label": "_status",
        "offset": 0,
        "slot": "1",
        "type": "t_uint256"
      },
      {
        "astId": 2016,
        "contract": "contracts/PaymentRouter.sol:PaymentRouter",
        "label": "busdcToken",
        "offset": 0,
        "slot": "2",
        "type": "t_contract(bUSDC)5106"
      },
      {
        "astId": 2019,
        "contract": "contracts/PaymentRouter.sol:PaymentRouter",
        "label": "vendorRegistry",
        "offset": 0,
        "slot": "3",
        "type": "t_contract(VendorRegistry)4829"
      },
      {
        "astId": 2022,
        "contract": "contracts/PaymentRouter.sol:PaymentRouter",
        "label": "currentFxRate",
        "offset": 0,
        "slot": "4",
        "type": "t_uint256"
      },
      {
        "astId": 2024,
        "contract": "contracts/PaymentRouter.sol:PaymentRouter",
        "label": "fxRateUpdater",
        "offset": 0,
        "slot": "5",
        "type": "t_address"
      },
      {
        "astId": 2027,
        "contract": "contracts/PaymentRouter.sol:PaymentRouter",
        "label": "platformFeeBps",
        "offset": 0,
        "slot": "6",
        "type": "t_uint256"
      },
      {
        "astId": 2029,
        "contract": "contracts/PaymentRouter.sol:PaymentRouter",
        "label": "feeRecipient",
        "offset": 0,
        "slot": "7",
        "type": "t_address"
      },
      {
        "astId": 2034,
        "contract": "contracts/PaymentRouter.sol:PaymentRouter",
        "label": "receipts",
        "offset": 0,
        "slot": "8",
        "type": "t_mapping(t_bytes32,t_struct(Receipt)2013_storage)"
      },
      {
        "astId": 2039,
        "contract": "contracts/PaymentRouter.sol:PaymentRouter",
        "label": "userReceipts",
        "offset": 0,
        "slot": "9",
        "type": "t_mapping(t_address,t_array(t_bytes32)dyn_storage)"
      },
      {
        "astId": 2043,
        "contract": "contracts/PaymentRouter.sol:PaymentRouter",
        "label": "vendorEarnings",
        "offset": 0,
        "slot": "10",
        "type": "t_mapping(t_address,t_uint256)"
      },
      {
        "astId": 2046,
        "contract": "contracts/PaymentRouter.sol:PaymentRouter",
        "label": "orderCounter",
        "offset": 0,
        "slot": "11",
        "type": "t_uint256"
      }
    ],
    "types": {
      "t_address": {
        "encoding": "inplace",
        "label": "address",
        "numberOfBytes": "20"
      },
      "t_array(t_bytes32)dyn_storage": {
        "base": "t_bytes32",
        "encoding": "dynamic_array",
        "label": "bytes32[]",
        "numberOfBytes": "32"
      },
      "t_bool": {
        "encoding": "inplace",
        "label": "bool",
        "numberOfBytes": "1"
      },
      "t_bytes32": {
        "encoding": "inplace",
        "label": "bytes32",
        "numberOfBytes": "32"
      },
      "t_contract(VendorRegistry)4829": {
        "encoding": "inplace",
        "label": "contract VendorRegistry",
        "numberOfBytes": "20"
      },
      "t_contract(bUSDC)5106": {
        "encoding": "inplace",
        "label": "contract bUSDC",
        "numberOfBytes": "20"
      },
      "t_enum(PaymentStatus)1988": {
        "encoding": "inplace",
        "label": "enum PaymentRouter.PaymentStatus",
        "numberOfBytes": "1"
      },
      "t_enum(PaymentType)1983": {
        "encoding": "inplace",
        "label": "enum PaymentRouter.PaymentType",
        "numberOfBytes": "1"
      },
      "t_mapping(t_address,t_array(t_bytes32)dyn_storage)": {
        "encoding": "mapping",
        "key": "t_address",
        "label": "mapping(address => bytes32[])",
        "numberOfBytes": "32",
        "value": "t_array(t_bytes32)dyn_storage"
      },
      "t_mapping(t_address,t_uint256)": {
        "encoding": "mapping",
        "key": "t_address",
        "label": "mapping(address => uint256)",
        "numberOfBytes": "32",
        "value": "t_uint256"
      },
      "t_mapping(t_bytes32,t_struct(Receipt)2013_storage)": {
        "encoding": "mapping",
        "key": "t_bytes32",
        "label": "mapping(bytes32 => struct PaymentRouter.Receipt)",
        "numberOfBytes": "32",
        "value": "t_struct(Receipt)2013_storage"
      },
      "t_string_storage": {
        "encoding": "bytes",
        "label": "string",
        "numberOfBytes": "32"
      },
      "t_struct(Receipt)2013_storage": {
        "encoding": "inplace",
        "label": "struct PaymentRouter.Receipt",
        "members": [
          {
            "astId": 1990,
            "contract": "contracts/PaymentRouter.sol:PaymentRouter",
            "label": "orderId",
            "offset": 0,
            "slot": "0",
            "type": "t_bytes32"
          },
          {
            "astId": 1992,
            "contract": "contracts/PaymentRouter.sol:PaymentRouter",
            "label": "vendorENS",
            "offset": 0,
            "slot": "1",
            "type": "t_string_storage"
          },
          {
            "astId": 1994,
            "contract": "contracts/PaymentRouter.sol:PaymentRouter",
            "label": "buyer",
            "offset": 0,
            "slot": "2",
            "type": "t_address"
          },
          {
            "astId": 1996,
            "contract": "contracts/PaymentRouter.sol:PaymentRouter",
            "label": "vendor",
            "offset": 0,
            "slot": "3",
            "type": "t_address"
          },
          {
            "astId": 1998,
            "contract": "contracts/PaymentRouter.sol:PaymentRouter",
            "label": "amountGHS",
            "offset": 0,
            "slot": "4",
            "type": "t_uint256"
          },
          {
            "astId": 2000,
            "contract": "contracts/PaymentRouter.sol:PaymentRouter",
            "label": "amountUSDC",
            "offset": 0,
            "slot": "5",
            "type": "t_uint256"
          },
          {
            "astId": 2002,
            "contract": "contracts/PaymentRouter.sol:PaymentRouter",
            "label": "fxRate",
            "offset": 0,
            "slot": "6",
            "type": "t_uint256"
          },
          {
            "astId": 2004,
            "contract": "contracts/PaymentRouter.sol:PaymentRouter",
            "label": "timestamp",
            "offset": 0,
            "slot": "7",
            "type": "t_uint256"
          },
          {
            "astId": 2007,
            "contract": "contracts/PaymentRouter.sol:PaymentRouter",
            "label": "paymentType",
            "offset": 0,
            "slot": "8",
            "type": "t_enum(PaymentType)1983"
          },
          {
            "astId": 2010,
            "contract": "contracts/PaymentRouter.sol:PaymentRouter",
            "label": "status",
            "offset": 1,
            "slot": "8",
            "type": "t_enum(PaymentStatus)1988"
          },
          {
            "astId": 2012,
            "contract": "contracts/PaymentRouter.sol:PaymentRouter",
            "label": "metadata",
            "offset": 0,
            "slot": "9",
            "type": "t_string_storage"
          }
        ],
        "numberOfBytes": "320"
      },
      "t_uint256": {
        "encoding": "inplace",
        "label": "uint256",
        "numberOfBytes": "32"
      }
    }
  }
}