{
  "address": "0x23E3d0017A282f48bF80dE2A6E670f57be2C9152",
  "abi": [
    {
      "inputs": [
        {
          "internalType": "address",
          "name": "_vendorRegistry",
          "type": "address"
        },
        {
          "internalType": "address",
          "name": "_entryPoint",
          "type": "address"
        }
      ],
      "stateMutability": "nonpayable",
      "type": "constructor"
    },
    {
      "inputs": [],
      "name": "EnforcedPause",
      "type": "error"
    },
    {
      "inputs": [],
      "name": "ExpectedPause",
      "type": "error"
    },
    {
      "inputs": [
        {
          "internalType": "address",
          "name": "owner",
          "type": "address"
        }
      ],
      "name": "OwnableInvalidOwner",
      "type": "error"
    },
    {
      "inputs": [
        {
          "internalType": "address",
          "name": "account",
          "type": "address"
        }
      ],
      "name": "OwnableUnauthorizedAccount",
      "type": "error"
    },
    {
      "inputs": [],
      "name": "ReentrancyGuardReentrantCall",
      "type": "error"
    },
    {
      "anonymous": false,
      "inputs": [
        {
          "indexed": false,
          "internalType": "uint256",
          "name": "maxGasPerTransaction",
          "type": "uint256"
        },
        {
          "indexed": false,
          "internalType": "uint256",
          "name": "maxGasPerDay",
          "type": "uint256"
        },
        {
          "indexed": false,
          "internalType": "uint256",
          "name": "maxGasPerMonth",
          "type": "uint256"
        }
      ],
      "name": "GasLimitsUpdated",
      "type": "event"
    },
    {
      "anonymous": false,
      "inputs": [
        {
          "indexed": true,
          "internalType": "address",
          "name": "user",
          "type": "address"
        },
        {
          "indexed": false,
          "internalType": "uint256",
          "name": "gasUsed",
          "type": "uint256"
        },
        {
          "indexed": false,
          "internalType": "uint256",
          "name": "gasPrice",
          "type": "uint256"
        },
        {
          "indexed": false,
          "internalType": "uint256",
          "name": "totalCost",
          "type": "uint256"
        }
      ],
      "name": "GasSponsored",
      "type": "event"
    },
    {
      "anonymous": false,
      "inputs": [
        {
          "indexed": true,
          "internalType": "address",
          "name": "previousOwner",
          "type": "address"
        },
        {
          "indexed": true,
          "internalType": "address",
          "name": "newOwner",
          "type": "address"
        }
      ],
      "name": "OwnershipTransferred",
      "type": "event"
    },
    {
      "anonymous": false,
      "inputs": [
        {
          "indexed": false,
          "internalType": "address",
          "name": "account",
          "type": "address"
        }
      ],
      "name": "Paused",
      "type": "event"
    },
    {
      "anonymous": false,
      "inputs": [
        {
          "indexed": false,
          "internalType": "uint256",
          "name": "amount",
          "type": "uint256"
        }
      ],
      "name": "PaymasterDeposited",
      "type": "event"
    },
    {
      "anonymous": false,
      "inputs": [
        {
          "indexed": false,
          "internalType": "uint256",
          "name": "amount",
          "type": "uint256"
        }
      ],
      "name": "PaymasterWithdrawn",
      "type": "event"
    },
    {
      "anonymous": false,
      "inputs": [
        {
          "indexed": false,
          "internalType": "address",
          "name": "account",
          "type": "address"
        }
      ],
      "name": "Unpaused",
      "type": "event"
    },
    {
      "anonymous": false,
      "inputs": [
        {
          "indexed": true,
          "internalType": "address",
          "name": "user",
          "type": "address"
        },
        {
          "indexed": false,
          "internalType": "bool",
          "name": "whitelisted",
          "type": "bool"
        }
      ],
      "name": "UserWhitelisted",
      "type": "event"
    },
    {
      "inputs": [],
      "name": "DAY_IN_SECONDS",
      "outputs": [
        {
          "internalType": "uint256",
          "name": "",
          "type": "uint256"
        }
      ],
      "stateMutability": "view",
      "type": "function"
    },
    {
      "inputs": [],
      "name": "MONTH_IN_SECONDS",
      "outputs": [
        {
          "internalType": "uint256",
          "name": "",
          "type": "uint256"
        }
      ],
      "stateMutability": "view",
      "type": "function"
    },
    {
      "inputs": [
        {
          "internalType": "address",
          "name": "user",
          "type": "address"
        },
        {
          "internalType": "uint256",
          "name": "gasToUse",
          "type": "uint256"
        }
      ],
      "name": "canPerformTransaction",
      "outputs": [
        {
          "internalType": "bool",
          "name": "canPerform",
          "type": "bool"
        }
      ],
      "stateMutability": "view",
      "type": "function"
    },
    {
      "inputs": [],
      "name": "deposit",
      "outputs": [],
      "stateMutability": "payable",
      "type": "function"
    },
    {
      "inputs": [],
      "name": "emergencyWithdraw",
      "outputs": [],
      "stateMutability": "nonpayable",
      "type": "function"
    },
    {
      "inputs": [],
      "name": "entryPoint",
      "outputs": [
        {
          "internalType": "contract IEntryPoint",
          "name": "",
          "type": "address"
        }
      ],
      "stateMutability": "view",
      "type": "function"
    },
    {
      "inputs": [],
      "name": "gasLimits",
      "outputs": [
        {
          "internalType": "uint256",
          "name": "maxGasPerTransaction",
          "type": "uint256"
        },
        {
          "internalType": "uint256",
          "name": "maxGasPerDay",
          "type": "uint256"
        },
        {
          "internalType": "uint256",
          "name": "maxGasPerMonth",
          "type": "uint256"
        }
      ],
      "stateMutability": "view",
      "type": "function"
    },
    {
      "inputs": [],
      "name": "getPaymasterBalance",
      "outputs": [
        {
          "internalType": "uint256",
          "name": "balance",
          "type": "uint256"
        }
      ],
      "stateMutability": "view",
      "type": "function"
    },
    {
      "inputs": [
        {
          "internalType": "address",
          "name": "user",
          "type": "address"
        }
      ],
      "name": "getUserGasUsage",
      "outputs": [
        {
          "internalType": "uint256",
          "name": "dailyUsage",
          "type": "uint256"
        },
        {
          "internalType": "uint256",
          "name": "monthlyUsage",
          "type": "uint256"
        },
        {
          "internalType": "uint256",
          "name": "dailyLimit",
          "type": "uint256"
        },
        {
          "internalType": "uint256",
          "name": "monthlyLimit",
          "type": "uint256"
        }
      ],
      "stateMutability": "view",
      "type": "function"
    },
    {
      "inputs": [],
      "name": "owner",
      "outputs": [
        {
          "internalType": "address",
          "name": "",
          "type": "address"
        }
      ],
      "stateMutability": "view",
      "type": "function"
    },
    {
      "inputs": [],
      "name": "pause",
      "outputs": [],
      "stateMutability": "nonpayable",
      "type": "function"
    },
    {
      "inputs": [],
      "name": "paused",
      "outputs": [
        {
          "internalType": "bool",
          "name": "",
          "type": "bool"
        }
      ],
      "stateMutability": "view",
      "type": "function"
    },
    {
      "inputs": [
        {
          "internalType": "bytes",
          "name": "context",
          "type": "bytes"
        },
        {
          "components": [
            {
              "internalType": "address",
              "name": "sender",
              "type": "address"
            },
            {
              "internalType": "uint256",
              "name": "nonce",
              "type": "uint256"
            },
            {
              "internalType": "bytes",
              "name": "initCode",
              "type": "bytes"
            },
            {
              "internalType": "bytes",
              "name": "callData",
              "type": "bytes"
            },
            {
              "internalType": "uint256",
              "name": "callGasLimit",
              "type": "uint256"
            },
            {
              "internalType": "uint256",
              "name": "verificationGasLimit",
              "type": "uint256"
            },
            {
              "internalType": "uint256",
              "name": "preVerificationGas",
              "type": "uint256"
            },
            {
              "internalType": "uint256",
              "name": "maxFeePerGas",
              "type": "uint256"
            },
            {
              "internalType": "uint256",
              "name": "maxPriorityFeePerGas",
              "type": "uint256"
            },
            {
              "internalType": "bytes",
              "name": "paymasterAndData",
              "type": "bytes"
            },
            {
              "internalType": "bytes",
              "name": "signature",
              "type": "bytes"
            }
          ],
          "internalType": "struct UserOperation",
          "name": "userOp",
          "type": "tuple"
        },
        {
          "internalType": "bytes32",
          "name": "userOpHash",
          "type": "bytes32"
        },
        {
          "internalType": "uint256",
          "name": "actualGasCost",
          "type": "uint256"
        }
      ],
      "name": "postOp",
      "outputs": [],
      "stateMutability": "nonpayable",
      "type": "function"
    },
    {
      "inputs": [],
      "name": "renounceOwnership",
      "outputs": [],
      "stateMutability": "nonpayable",
      "type": "function"
    },
    {
      "inputs": [
        {
          "internalType": "address",
          "name": "user",
          "type": "address"
        },
        {
          "internalType": "bool",
          "name": "whitelisted",
          "type": "bool"
        }
      ],
      "name": "setWhitelistedUser",
      "outputs": [],
      "stateMutability": "nonpayable",
      "type": "function"
    },
    {
      "inputs": [
        {
          "internalType": "address",
          "name": "newOwner",
          "type": "address"
        }
      ],
      "name": "transferOwnership",
      "outputs": [],
      "stateMutability": "nonpayable",
      "type": "function"
    },
    {
      "inputs": [],
      "name": "unpause",
      "outputs": [],
      "stateMutability": "nonpayable",
      "type": "function"
    },
    {
      "inputs": [
        {
          "internalType": "uint256",
          "name": "maxGasPerTransaction",
          "type": "uint256"
        },
        {
          "internalType": "uint256",
          "name": "maxGasPerDay",
          "type": "uint256"
        },
        {
          "internalType": "uint256",
          "name": "maxGasPerMonth",
          "type": "uint256"
        }
      ],
      "name": "updateGasLimits",
      "outputs": [],
      "stateMutability": "nonpayable",
      "type": "function"
    },
    {
      "inputs": [
        {
          "internalType": "address",
          "name": "",
          "type": "address"
        }
      ],
      "name": "userGasUsage",
      "outputs": [
        {
          "internalType": "uint256",
          "name": "dailyUsage",
          "type": "uint256"
        },
        {
          "internalType": "uint256",
          "name": "monthlyUsage",
          "type": "uint256"
        },
        {
          "internalType": "uint256",
          "name": "lastDailyReset",
          "type": "uint256"
        },
        {
          "internalType": "uint256",
          "name": "lastMonthlyReset",
          "type": "uint256"
        },
        {
          "internalType": "bool",
          "name": "isWhitelisted",
          "type": "bool"
        }
      ],
      "stateMutability": "view",
      "type": "function"
    },
    {
      "inputs": [
        {
          "components": [
            {
              "internalType": "address",
              "name": "sender",
              "type": "address"
            },
            {
              "internalType": "uint256",
              "name": "nonce",
              "type": "uint256"
            },
            {
              "internalType": "bytes",
              "name": "initCode",
              "type": "bytes"
            },
            {
              "internalType": "bytes",
              "name": "callData",
              "type": "bytes"
            },
            {
              "internalType": "uint256",
              "name": "callGasLimit",
              "type": "uint256"
            },
            {
              "internalType": "uint256",
              "name": "verificationGasLimit",
              "type": "uint256"
            },
            {
              "internalType": "uint256",
              "name": "preVerificationGas",
              "type": "uint256"
            },
            {
              "internalType": "uint256",
              "name": "maxFeePerGas",
              "type": "uint256"
            },
            {
              "internalType": "uint256",
              "name": "maxPriorityFeePerGas",
              "type": "uint256"
            },
            {
              "internalType": "bytes",
              "name": "paymasterAndData",
              "type": "bytes"
            },
            {
              "internalType": "bytes",
              "name": "signature",
              "type": "bytes"
            }
          ],
          "internalType": "struct UserOperation",
          "name": "userOp",
          "type": "tuple"
        },
        {
          "internalType": "bytes32",
          "name": "userOpHash",
          "type": "bytes32"
        },
        {
          "internalType": "uint256",
          "name": "maxCost",
          "type": "uint256"
        }
      ],
      "name": "validatePaymasterUserOp",
      "outputs": [
        {
          "internalType": "bytes",
          "name": "context",
          "type": "bytes"
        },
        {
          "internalType": "uint256",
          "name": "validationData",
          "type": "uint256"
        }
      ],
      "stateMutability": "nonpayable",
      "type": "function"
    },
    {
      "inputs": [],
      "name": "vendorRegistry",
      "outputs": [
        {
          "internalType": "contract VendorRegistry",
          "name": "",
          "type": "address"
        }
      ],
      "stateMutability": "view",
      "type": "function"
    },
    {
      "inputs": [
        {
          "internalType": "address",
          "name": "",
          "type": "address"
        }
      ],
      "name": "whitelistedUsers",
      "outputs": [
        {
          "internalType": "bool",
          "name": "",
          "type": "bool"
        }
      ],
      "stateMutability": "view",
      "type": "function"
    },
    {
      "inputs": [
        {
          "internalType": "uint256",
          "name": "amount",
          "type": "uint256"
        }
      ],
      "name": "withdraw",
      "outputs": [],
      "stateMutability": "nonpayable",
      "type": "function"
    },
    {
      "stateMutability": "payable",
      "type": "receive"
    }
  ],
  "transactionHash": "0xac436047aaf61edfe40754558684917fce4484d8c089af720dad02d96d4f03e5",
  "args": [
    "0xA9F04F020CF9F511982719196E25FE7c666c9E4D",
    "0x5FF137D4b0FDCD49DcA30c7CF57E578a026d2789"
  ],
  "numDeployments": 1,
  "solcInputHash": "1e7f658a624141603997a4c1dbf9231d",
  "bytecode": "0x60806040523480156200001157600080fd5b506040516200183c3803806200183c83398101604081905262000034916200013e565b33806200005b57604051631e4fbdf760e01b81526000600482015260240160405180910390fd5b6200006681620000d1565b5060018055600280546001600160a01b039384166001600160a01b03199182161790915560038054929093169116179055604080516060810182526207a120808252621e8480602083018190526302faf0809290930182905260045560059190915560065562000176565b600080546001600160a01b038381166001600160a01b0319831681178455604051919092169283917f8be0079c531659141344cd1fd0a4f28419497f9722a3daafe3b4186f6b6457e09190a35050565b80516001600160a01b03811681146200013957600080fd5b919050565b600080604083850312156200015257600080fd5b6200015d8362000121565b91506200016d6020840162000121565b90509250929050565b6116b680620001866000396000f3fe6080604052600436106101445760003560e01c8063715018a6116100b6578063ce339e9b1161006f578063ce339e9b14610490578063d0e30db0146104b0578063db2e21bc146104b8578063f2fde38b146104cd578063f465c77e146104ed578063f621cc481461051b57600080fd5b8063715018a6146103f15780637171225c1461040657806375bf37d01461041d5780638456cb591461043d5780638da5cb5b14610452578063b0d691fe1461047057600080fd5b806344710fbe1161010857806344710fbe146102f557806359ff6fb2146103155780635c76dffd146103555780635c975abb1461038f5780635fdc6281146103ba5780636b9f4500146103d157600080fd5b8063012beac9146101ef578063200ccb7d1461022c5780632e1a7d4d146102495780633f4ba83a14610269578063435af2921461027e57600080fd5b366101ea5734156101e85760035460405163b760faf960e01b81523060048201526001600160a01b039091169063b760faf99034906024016000604051808303818588803b15801561019557600080fd5b505af11580156101a9573d6000803e3d6000fd5b50505050507fc241c47cb6187e949afb9bdc167dd3b683184721f0b372a8005acb4ae2085567346040516101df91815260200190565b60405180910390a15b005b600080fd5b3480156101fb57600080fd5b5060025461020f906001600160a01b031681565b6040516001600160a01b0390911681526020015b60405180910390f35b34801561023857600080fd5b50475b604051908152602001610223565b34801561025557600080fd5b506101e8610264366004611352565b61054b565b34801561027557600080fd5b506101e8610702565b34801561028a57600080fd5b506102cb610299366004611380565b600760205260009081526040902080546001820154600283015460038401546004909401549293919290919060ff1685565b6040805195865260208601949094529284019190915260608301521515608082015260a001610223565b34801561030157600080fd5b506101e86103103660046113b2565b610736565b34801561032157600080fd5b50610335610330366004611380565b610838565b604080519485526020850193909352918301526060820152608001610223565b34801561036157600080fd5b5060045460055460065461037492919083565b60408051938452602084019290925290820152606001610223565b34801561039b57600080fd5b50600054600160a01b900460ff165b6040519015158152602001610223565b3480156103c657600080fd5b5061023b6201518081565b3480156103dd57600080fd5b506103aa6103ec3660046113eb565b6108ec565b3480156103fd57600080fd5b506101e8610911565b34801561041257600080fd5b5061023b62278d0081565b34801561042957600080fd5b506101e8610438366004611430565b610923565b34801561044957600080fd5b506101e86109c2565b34801561045e57600080fd5b506000546001600160a01b031661020f565b34801561047c57600080fd5b5060035461020f906001600160a01b031681565b34801561049c57600080fd5b506101e86104ab3660046114d6565b6109f4565b6101e8610bc0565b3480156104c457600080fd5b506101e8610ce7565b3480156104d957600080fd5b506101e86104e8366004611380565b610e2d565b3480156104f957600080fd5b5061050d610508366004611502565b610e68565b604051610223929190611550565b34801561052757600080fd5b506103aa610536366004611380565b60086020526000908152604090205460ff1681565b6000546001600160a01b0316331461057e5760405162461bcd60e51b8152600401610575906115a5565b60405180910390fd5b610586610f61565b600081116105ea5760405162461bcd60e51b815260206004820152602b60248201527f5061796d61737465723a20576974686472617720616d6f756e74206d7573742060448201526a626520706f73697469766560a81b6064820152608401610575565b4781111561063a5760405162461bcd60e51b815260206004820152601f60248201527f5061796d61737465723a20496e73756666696369656e742062616c616e6365006044820152606401610575565b6003546001600160a01b031663205c287861065d6000546001600160a01b031690565b6040516001600160e01b031960e084901b1681526001600160a01b03909116600482015260248101849052604401600060405180830381600087803b1580156106a557600080fd5b505af11580156106b9573d6000803e3d6000fd5b505050507f4e5c5553c1fb209937cafb45cafeb706ac79d452dc03aa36bde24435d067f1a8816040516106ee91815260200190565b60405180910390a16106ff60018055565b50565b6000546001600160a01b0316331461072c5760405162461bcd60e51b8152600401610575906115a5565b610734610f8b565b565b6000546001600160a01b031633146107605760405162461bcd60e51b8152600401610575906115a5565b6001600160a01b0382166107c55760405162461bcd60e51b815260206004820152602660248201527f5061796d61737465723a205573657220616464726573732063616e6e6f74206260448201526565207a65726f60d01b6064820152608401610575565b6001600160a01b0382166000818152600860209081526040808320805486151560ff199182168117909255600784529382902060040180549094168117909355519182527f995d2434d36c9bceaab42c56efe51e8ffe41fd11cabefd9e2cb83700d8b2035e910160405180910390a25050565b6001600160a01b0381166000908152600760209081526040808320815160a081018352815481526001820154938101939093526002810154918301829052600381015460608401526004015460ff1615156080830152829182918291906108a39062015180906115f1565b42106108ae57600081525b62278d0081606001516108c191906115f1565b42106108cf57600060208201525b805160209091015160055460065492989197509550909350915050565b60006108f783610fdb565b801561090857506109088383611087565b90505b92915050565b6109196111a1565b61073460006111ce565b6003546001600160a01b0316331461094d5760405162461bcd60e51b815260040161057590611612565b60008061095c868801886113eb565b9150915061096a828461121e565b6040805184815260e087013560208201529081018490526001600160a01b038316907f30dd8e34b1b28eeb3c9c8247aed3881e51399dd61dc9e4eefb09acf1b6f0d0ff9060600160405180910390a250505050505050565b6000546001600160a01b031633146109ec5760405162461bcd60e51b8152600401610575906115a5565b6107346112ba565b6000546001600160a01b03163314610a1e5760405162461bcd60e51b8152600401610575906115a5565b60008311610a8a5760405162461bcd60e51b815260206004820152603360248201527f5061796d61737465723a204d61782067617320706572207472616e73616374696044820152726f6e206d75737420626520706f73697469766560681b6064820152608401610575565b60008211610aee5760405162461bcd60e51b815260206004820152602b60248201527f5061796d61737465723a204d6178206761732070657220646179206d7573742060448201526a626520706f73697469766560a81b6064820152608401610575565b60008111610b545760405162461bcd60e51b815260206004820152602d60248201527f5061796d61737465723a204d61782067617320706572206d6f6e7468206d757360448201526c7420626520706f73697469766560981b6064820152608401610575565b6040805160608082018352858252602080830186905291830184905260048690556005859055600684905582518681529182018590529181018390527f4d946b3d58f77ca131abbc724ae9f8c84f43648c091e02a9b730260cb4e6bff5910160405180910390a1505050565b6000546001600160a01b03163314610bea5760405162461bcd60e51b8152600401610575906115a5565b60003411610c4d5760405162461bcd60e51b815260206004820152602a60248201527f5061796d61737465723a204465706f73697420616d6f756e74206d75737420626044820152696520706f73697469766560b01b6064820152608401610575565b60035460405163b760faf960e01b81523060048201526001600160a01b039091169063b760faf99034906024016000604051808303818588803b158015610c9357600080fd5b505af1158015610ca7573d6000803e3d6000fd5b50505050507fc241c47cb6187e949afb9bdc167dd3b683184721f0b372a8005acb4ae208556734604051610cdd91815260200190565b60405180910390a1565b6000546001600160a01b03163314610d115760405162461bcd60e51b8152600401610575906115a5565b610d19610f61565b4780610d675760405162461bcd60e51b815260206004820152601f60248201527f5061796d61737465723a204e6f2066756e647320746f207769746864726177006044820152606401610575565b6003546001600160a01b031663205c2878610d8a6000546001600160a01b031690565b6040516001600160e01b031960e084901b1681526001600160a01b03909116600482015260248101849052604401600060405180830381600087803b158015610dd257600080fd5b505af1158015610de6573d6000803e3d6000fd5b505050507f4e5c5553c1fb209937cafb45cafeb706ac79d452dc03aa36bde24435d067f1a881604051610e1b91815260200190565b60405180910390a15061073460018055565b610e356111a1565b6001600160a01b038116610e5f57604051631e4fbdf760e01b815260006004820152602401610575565b6106ff816111ce565b6003546060906000906001600160a01b03163314610e985760405162461bcd60e51b815260040161057590611612565b610ea06112fd565b6000610eaf6020870187611380565b9050610eba81610fdb565b610ed857505060408051602081019091526000815290506001610f59565b610ee6818760800135611087565b610f0457505060408051602081019091526000815290506001610f59565b83471015610f2657505060408051602081019091526000815290506001610f59565b604080516001600160a01b0383166020820152908101859052606001604051602081830303815290604052925060009150505b935093915050565b600260015403610f8457604051633ee5aeb560e01b815260040160405180910390fd5b6002600155565b610f93611328565b6000805460ff60a01b191690557f5db9ee0a495bf2e6ff9c91a7834c1ba4fdd244a5e8aa4e537bd38aeae4b073aa335b6040516001600160a01b039091168152602001610cdd565b6001600160a01b03811660009081526008602052604081205460ff161561100457506001919050565b60025460405163ee54d54f60e01b81526001600160a01b0384811660048301529091169063ee54d54f90602401602060405180830381865afa15801561104e573d6000803e3d6000fd5b505050506040513d601f19601f820116820180604052508101906110729190611663565b1561107f57506001919050565b506001919050565b6001600160a01b03821660009081526008602052604081205460ff16156110b05750600161090b565b6004548211156110c25750600061090b565b6001600160a01b038316600090815260076020908152604091829020825160a081018452815481526001820154928101929092526002810154928201839052600381015460608301526004015460ff1615156080820152906111289062015180906115f1565b421061113357600081525b62278d00816060015161114691906115f1565b421061115457600060208201525b60055481516111649085906115f1565b111561117457600091505061090b565b60065460208201516111879085906115f1565b111561119757600091505061090b565b5060019392505050565b6000546001600160a01b031633146107345760405163118cdaa760e01b8152336004820152602401610575565b600080546001600160a01b038381166001600160a01b0319831681178455604051919092169283917f8be0079c531659141344cd1fd0a4f28419497f9722a3daafe3b4186f6b6457e09190a35050565b6001600160a01b038216600090815260076020526040902060028101546112499062015180906115f1565b421061125a57600081554260028201555b62278d00816003015461126d91906115f1565b421061128157600060018201554260038201555b8181600001600082825461129591906115f1565b92505081905550818160010160008282546112b091906115f1565b9091555050505050565b6112c26112fd565b6000805460ff60a01b1916600160a01b1790557f62e78cea01bee320cd4e420270b5ea74000d11b0c9f74754ebdbfc544b05a258610fc33390565b600054600160a01b900460ff16156107345760405163d93c066560e01b815260040160405180910390fd5b600054600160a01b900460ff1661073457604051638dfc202b60e01b815260040160405180910390fd5b60006020828403121561136457600080fd5b5035919050565b6001600160a01b03811681146106ff57600080fd5b60006020828403121561139257600080fd5b813561139d8161136b565b9392505050565b80151581146106ff57600080fd5b600080604083850312156113c557600080fd5b82356113d08161136b565b915060208301356113e0816113a4565b809150509250929050565b600080604083850312156113fe57600080fd5b82356114098161136b565b946020939093013593505050565b6000610160828403121561142a57600080fd5b50919050565b60008060008060006080868803121561144857600080fd5b853567ffffffffffffffff8082111561146057600080fd5b818801915088601f83011261147457600080fd5b81358181111561148357600080fd5b89602082850101111561149557600080fd5b6020928301975095509087013590808211156114b057600080fd5b506114bd88828901611417565b9598949750949560408101359550606001359392505050565b6000806000606084860312156114eb57600080fd5b505081359360208301359350604090920135919050565b60008060006060848603121561151757600080fd5b833567ffffffffffffffff81111561152e57600080fd5b61153a86828701611417565b9660208601359650604090950135949350505050565b604081526000835180604084015260005b8181101561157e5760208187018101516060868401015201611561565b506000606082850101526060601f19601f8301168401019150508260208301529392505050565b6020808252602c908201527f5061796d61737465723a204f6e6c792061646d696e2063616e2063616c6c207460408201526b3434b990333ab731ba34b7b760a11b606082015260800190565b8082018082111561090b57634e487b7160e01b600052601160045260246000fd5b60208082526031908201527f5061796d61737465723a204f6e6c7920456e747279506f696e742063616e206360408201527030b636103a3434b990333ab731ba34b7b760791b606082015260800190565b60006020828403121561167557600080fd5b815161139d816113a456fea2646970667358221220bcec9b287da8920cf7fb538e56bc8badd1047cc455b290bd8ee1f8527f5205ef64736f6c63430008140033",
  "devdoc": {
    "details": "ERC-4337 Paymaster for sponsoring gas fees for verified users and vendors Implements gasless transactions for Tap&Go Pay users",
    "errors": {
      "EnforcedPause()": [
        {
          "details": "The operation failed because the contract is paused."
        }
      ],
      "ExpectedPause()": [
        {
          "details": "The operation failed because the contract is not paused."
        }
      ],
      "OwnableInvalidOwner(address)": [
        {
          "details": "The owner is not a valid owner account. (eg. `address(0)`)"
        }
      ],
      "OwnableUnauthorizedAccount(address)": [
        {
          "details": "The caller account is not authorized to perform an operation."
        }
      ],
      "ReentrancyGuardReentrantCall()": [
        {
          "details": "Unauthorized reentrant call."
        }
      ]
    },
    "events": {
      "Paused(address)": {
        "details": "Emitted when the pause is triggered by `account`."
      },
      "Unpaused(address)": {
        "details": "Emitted when the pause is lifted by `account`."
      }
    },
    "kind": "dev",
    "methods": {
      "canPerformTransaction(address,uint256)": {
        "details": "Check if user can perform a transaction with given gas",
        "params": {
          "gasToUse": "Gas that will be used",
          "user": "User address"
        },
        "returns": {
          "canPerform": "True if user can perform the transaction"
        }
      },
      "deposit()": {
        "details": "Deposit ETH to the paymaster for gas sponsorship"
      },
      "emergencyWithdraw()": {
        "details": "Emergency withdraw all funds (admin only)"
      },
      "getPaymasterBalance()": {
        "details": "Get paymaster balance in EntryPoint",
        "returns": {
          "balance": "Paymaster balance"
        }
      },
      "getUserGasUsage(address)": {
        "details": "Get user's current gas usage",
        "params": {
          "user": "User address"
        },
        "returns": {
          "dailyLimit": "Daily gas limit",
          "dailyUsage": "Gas used today",
          "monthlyLimit": "Monthly gas limit",
          "monthlyUsage": "Gas used this month"
        }
      },
      "owner()": {
        "details": "Returns the address of the current owner."
      },
      "pause()": {
        "details": "Pause the paymaster (admin only)"
      },
      "paused()": {
        "details": "Returns true if the contract is paused, and false otherwise."
      },
      "postOp(bytes,(address,uint256,bytes,bytes,uint256,uint256,uint256,uint256,uint256,bytes,bytes),bytes32,uint256)": {
        "details": "Post-operation callback (called after transaction execution)",
        "params": {
          "actualGasCost": "Actual gas cost of the transaction",
          "context": "Context data from validatePaymasterUserOp"
        }
      },
      "renounceOwnership()": {
        "details": "Leaves the contract without owner. It will not be possible to call `onlyOwner` functions. Can only be called by the current owner. NOTE: Renouncing ownership will leave the contract without an owner, thereby disabling any functionality that is only available to the owner."
      },
      "setWhitelistedUser(address,bool)": {
        "details": "Whitelist/unwhitelist a user for unlimited gas",
        "params": {
          "user": "User address",
          "whitelisted": "Whether to whitelist the user"
        }
      },
      "transferOwnership(address)": {
        "details": "Transfers ownership of the contract to a new account (`newOwner`). Can only be called by the current owner."
      },
      "unpause()": {
        "details": "Unpause the paymaster (admin only)"
      },
      "updateGasLimits(uint256,uint256,uint256)": {
        "details": "Update gas limits (admin only)",
        "params": {
          "maxGasPerDay": "Maximum gas per day per user",
          "maxGasPerMonth": "Maximum gas per month per user",
          "maxGasPerTransaction": "Maximum gas per transaction"
        }
      },
      "validatePaymasterUserOp((address,uint256,bytes,bytes,uint256,uint256,uint256,uint256,uint256,bytes,bytes),bytes32,uint256)": {
        "details": "Validate a user operation and sponsor gas if eligible This is called by the EntryPoint during transaction validation",
        "params": {
          "maxCost": "Maximum cost the paymaster is willing to pay",
          "userOp": "User operation to validate",
          "userOpHash": "Hash of the user operation"
        },
        "returns": {
          "context": "Context data for post-operation",
          "validationData": "Validation data (0 = success)"
        }
      },
      "withdraw(uint256)": {
        "details": "Withdraw ETH from the paymaster",
        "params": {
          "amount": "Amount to withdraw"
        }
      }
    },
    "title": "Paymaster",
    "version": 1
  },
  "userdoc": {
    "kind": "user",
    "methods": {},
    "version": 1
  },
  "storageLayout": {
    "storage": [
      {
        "astId": 8,
        "contract": "contracts/Paymaster.sol:Paymaster",
        "label": "_owner",
        "offset": 0,
        "slot": "0",
        "type": "t_address"
      },
      {
        "astId": 942,
        "contract": "contracts/Paymaster.sol:Paymaster",
        "label": "_paused",
        "offset": 20,
        "slot": "0",
        "type": "t_bool"
      },
      {
        "astId": 1052,
        "contract": "contracts/Paymaster.sol:Paymaster",
        "label": "_status",
        "offset": 0,
        "slot": "1",
        "type": "t_uint256"
      },
      {
        "astId": 1207,
        "contract": "contracts/Paymaster.sol:Paymaster",
        "label": "vendorRegistry",
        "offset": 0,
        "slot": "2",
        "type": "t_contract(VendorRegistry)4829"
      },
      {
        "astId": 1210,
        "contract": "contracts/Paymaster.sol:Paymaster",
        "label": "entryPoint",
        "offset": 0,
        "slot": "3",
        "type": "t_contract(IEntryPoint)1166"
      },
      {
        "astId": 1213,
        "contract": "contracts/Paymaster.sol:Paymaster",
        "label": "gasLimits",
        "offset": 0,
        "slot": "4",
        "type": "t_struct(GasLimits)1193_storage"
      },
      {
        "astId": 1218,
        "contract": "contracts/Paymaster.sol:Paymaster",
        "label": "userGasUsage",
        "offset": 0,
        "slot": "7",
        "type": "t_mapping(t_address,t_struct(UserGasUsage)1204_storage)"
      },
      {
        "astId": 1222,
        "contract": "contracts/Paymaster.sol:Paymaster",
        "label": "whitelistedUsers",
        "offset": 0,
        "slot": "8",
        "type": "t_mapping(t_address,t_bool)"
      }
    ],
    "types": {
      "t_address": {
        "encoding": "inplace",
        "label": "address",
        "numberOfBytes": "20"
      },
      "t_bool": {
        "encoding": "inplace",
        "label": "bool",
        "numberOfBytes": "1"
      },
      "t_contract(IEntryPoint)1166": {
        "encoding": "inplace",
        "label": "contract IEntryPoint",
        "numberOfBytes": "20"
      },
      "t_contract(VendorRegistry)4829": {
        "encoding": "inplace",
        "label": "contract VendorRegistry",
        "numberOfBytes": "20"
      },
      "t_mapping(t_address,t_bool)": {
        "encoding": "mapping",
        "key": "t_address",
        "label": "mapping(address => bool)",
        "numberOfBytes": "32",
        "value": "t_bool"
      },
      "t_mapping(t_address,t_struct(UserGasUsage)1204_storage)": {
        "encoding": "mapping",
        "key": "t_address",
        "label": "mapping(address => struct Paymaster.UserGasUsage)",
        "numberOfBytes": "32",
        "value": "t_struct(UserGasUsage)1204_storage"
      },
      "t_struct(GasLimits)1193_storage": {
        "encoding": "inplace",
        "label": "struct Paymaster.GasLimits",
        "members": [
          {
            "astId": 1188,
            "contract": "contracts/Paymaster.sol:Paymaster",
            "label": "maxGasPerTransaction",
            "offset": 0,
            "slot": "0",
            "type": "t_uint256"
          },
          {
            "astId": 1190,
            "contract": "contracts/Paymaster.sol:Paymaster",
            "label": "maxGasPerDay",
            "offset": 0,
            "slot": "1",
            "type": "t_uint256"
          },
          {
            "astId": 1192,
            "contract": "contracts/Paymaster.sol:Paymaster",
            "label": "maxGasPerMonth",
            "offset": 0,
            "slot": "2",
            "type": "t_uint256"
          }
        ],
        "numberOfBytes": "96"
      },
      "t_struct(UserGasUsage)1204_storage": {
        "encoding": "inplace",
        "label": "struct Paymaster.UserGasUsage",
        "members": [
          {
            "astId": 1195,
            "contract": "contracts/Paymaster.sol:Paymaster",
            "label": "dailyUsage",
            "offset": 0,
            "slot": "0",
            "type": "t_uint256"
          },
          {
            "astId": 1197,
            "contract": "contracts/Paymaster.sol:Paymaster",
            "label": "monthlyUsage",
            "offset": 0,
            "slot": "1",
            "type": "t_uint256"
          },
          {
            "astId": 1199,
            "contract": "contracts/Paymaster.sol:Paymaster",
            "label": "lastDailyReset",
            "offset": 0,
            "slot": "2",
            "type": "t_uint256"
          },
          {
            "astId": 1201,
            "contract": "contracts/Paymaster.sol:Paymaster",
            "label": "lastMonthlyReset",
            "offset": 0,
            "slot": "3",
            "type": "t_uint256"
          },
          {
            "astId": 1203,
            "contract": "contracts/Paymaster.sol:Paymaster",
            "label": "isWhitelisted",
            "offset": 0,
            "slot": "4",
            "type": "t_bool"
          }
        ],
        "numberOfBytes": "160"
      },
      "t_uint256": {
        "encoding": "inplace",
        "label": "uint256",
        "numberOfBytes": "32"
      }
    }
  }
}