{
  "address": "0xd4C84453E1640BDD8a9EB0Dd645c0C4208dD66eF",
  "abi": [
    {
      "inputs": [
        {
          "internalType": "address",
          "name": "_busdcToken",
          "type": "address"
        },
        {
          "internalType": "address",
          "name": "_vendorRegistry",
          "type": "address"
        },
        {
          "internalType": "address",
          "name": "_subnameRegistrar",
          "type": "address"
        },
        {
          "internalType": "address",
          "name": "_feeRecipient",
          "type": "address"
        }
      ],
      "stateMutability": "nonpayable",
      "type": "constructor"
    },
    {
      "inputs": [],
      "name": "EnforcedPause",
      "type": "error"
    },
    {
      "inputs": [],
      "name": "ExpectedPause",
      "type": "error"
    },
    {
      "inputs": [
        {
          "internalType": "address",
          "name": "owner",
          "type": "address"
        }
      ],
      "name": "OwnableInvalidOwner",
      "type": "error"
    },
    {
      "inputs": [
        {
          "internalType": "address",
          "name": "account",
          "type": "address"
        }
      ],
      "name": "OwnableUnauthorizedAccount",
      "type": "error"
    },
    {
      "inputs": [],
      "name": "ReentrancyGuardReentrantCall",
      "type": "error"
    },
    {
      "anonymous": false,
      "inputs": [
        {
          "indexed": false,
          "internalType": "uint256",
          "name": "oldRate",
          "type": "uint256"
        },
        {
          "indexed": false,
          "internalType": "uint256",
          "name": "newRate",
          "type": "uint256"
        }
      ],
      "name": "ExchangeRateUpdated",
      "type": "event"
    },
    {
      "anonymous": false,
      "inputs": [
        {
          "indexed": false,
          "internalType": "address",
          "name": "oldRecipient",
          "type": "address"
        },
        {
          "indexed": false,
          "internalType": "address",
          "name": "newRecipient",
          "type": "address"
        }
      ],
      "name": "FeeRecipientUpdated",
      "type": "event"
    },
    {
      "anonymous": false,
      "inputs": [
        {
          "indexed": true,
          "internalType": "address",
          "name": "previousOwner",
          "type": "address"
        },
        {
          "indexed": true,
          "internalType": "address",
          "name": "newOwner",
          "type": "address"
        }
      ],
      "name": "OwnershipTransferred",
      "type": "event"
    },
    {
      "anonymous": false,
      "inputs": [
        {
          "indexed": false,
          "internalType": "address",
          "name": "account",
          "type": "address"
        }
      ],
      "name": "Paused",
      "type": "event"
    },
    {
      "anonymous": false,
      "inputs": [
        {
          "indexed": true,
          "internalType": "bytes32",
          "name": "orderId",
          "type": "bytes32"
        },
        {
          "indexed": true,
          "internalType": "address",
          "name": "sender",
          "type": "address"
        },
        {
          "indexed": true,
          "internalType": "address",
          "name": "recipient",
          "type": "address"
        },
        {
          "indexed": false,
          "internalType": "uint256",
          "name": "amountUSDC",
          "type": "uint256"
        },
        {
          "indexed": false,
          "internalType": "uint256",
          "name": "platformFee",
          "type": "uint256"
        },
        {
          "indexed": false,
          "internalType": "uint256",
          "name": "recipientAmount",
          "type": "uint256"
        }
      ],
      "name": "PaymentCompleted",
      "type": "event"
    },
    {
      "anonymous": false,
      "inputs": [
        {
          "indexed": true,
          "internalType": "bytes32",
          "name": "orderId",
          "type": "bytes32"
        },
        {
          "indexed": true,
          "internalType": "address",
          "name": "sender",
          "type": "address"
        },
        {
          "indexed": true,
          "internalType": "address",
          "name": "recipient",
          "type": "address"
        },
        {
          "indexed": false,
          "internalType": "string",
          "name": "reason",
          "type": "string"
        }
      ],
      "name": "PaymentFailed",
      "type": "event"
    },
    {
      "anonymous": false,
      "inputs": [
        {
          "indexed": true,
          "internalType": "bytes32",
          "name": "orderId",
          "type": "bytes32"
        },
        {
          "indexed": true,
          "internalType": "address",
          "name": "sender",
          "type": "address"
        },
        {
          "indexed": true,
          "internalType": "address",
          "name": "recipient",
          "type": "address"
        },
        {
          "indexed": false,
          "internalType": "uint256",
          "name": "amountUSDC",
          "type": "uint256"
        },
        {
          "indexed": false,
          "internalType": "enum PaymentRouter.PaymentType",
          "name": "paymentType",
          "type": "uint8"
        }
      ],
      "name": "PaymentInitiated",
      "type": "event"
    },
    {
      "anonymous": false,
      "inputs": [
        {
          "indexed": true,
          "internalType": "bytes32",
          "name": "orderId",
          "type": "bytes32"
        },
        {
          "indexed": true,
          "internalType": "address",
          "name": "sender",
          "type": "address"
        },
        {
          "indexed": true,
          "internalType": "address",
          "name": "recipient",
          "type": "address"
        },
        {
          "indexed": false,
          "internalType": "uint256",
          "name": "amountUSDC",
          "type": "uint256"
        }
      ],
      "name": "PaymentRefunded",
      "type": "event"
    },
    {
      "anonymous": false,
      "inputs": [
        {
          "indexed": false,
          "internalType": "uint256",
          "name": "oldFee",
          "type": "uint256"
        },
        {
          "indexed": false,
          "internalType": "uint256",
          "name": "newFee",
          "type": "uint256"
        }
      ],
      "name": "PlatformFeeUpdated",
      "type": "event"
    },
    {
      "anonymous": false,
      "inputs": [
        {
          "indexed": false,
          "internalType": "address",
          "name": "account",
          "type": "address"
        }
      ],
      "name": "Unpaused",
      "type": "event"
    },
    {
      "inputs": [],
      "name": "busdcToken",
      "outputs": [
        {
          "internalType": "contract bUSDC",
          "name": "",
          "type": "address"
        }
      ],
      "stateMutability": "view",
      "type": "function"
    },
    {
      "inputs": [
        {
          "internalType": "uint256",
          "name": "amountGHS",
          "type": "uint256"
        }
      ],
      "name": "calculateUSDCAmount",
      "outputs": [
        {
          "internalType": "uint256",
          "name": "amountUSDC",
          "type": "uint256"
        }
      ],
      "stateMutability": "view",
      "type": "function"
    },
    {
      "inputs": [
        {
          "internalType": "bytes32",
          "name": "orderId",
          "type": "bytes32"
        }
      ],
      "name": "completePayment",
      "outputs": [],
      "stateMutability": "nonpayable",
      "type": "function"
    },
    {
      "inputs": [],
      "name": "currentFxRate",
      "outputs": [
        {
          "internalType": "uint256",
          "name": "",
          "type": "uint256"
        }
      ],
      "stateMutability": "view",
      "type": "function"
    },
    {
      "inputs": [
        {
          "internalType": "address",
          "name": "token",
          "type": "address"
        },
        {
          "internalType": "uint256",
          "name": "amount",
          "type": "uint256"
        }
      ],
      "name": "emergencyWithdraw",
      "outputs": [],
      "stateMutability": "nonpayable",
      "type": "function"
    },
    {
      "inputs": [],
      "name": "feeRecipient",
      "outputs": [
        {
          "internalType": "address",
          "name": "",
          "type": "address"
        }
      ],
      "stateMutability": "view",
      "type": "function"
    },
    {
      "inputs": [],
      "name": "fxRateUpdater",
      "outputs": [
        {
          "internalType": "address",
          "name": "",
          "type": "address"
        }
      ],
      "stateMutability": "view",
      "type": "function"
    },
    {
      "inputs": [
        {
          "internalType": "bytes32",
          "name": "orderId",
          "type": "bytes32"
        }
      ],
      "name": "getReceipt",
      "outputs": [
        {
          "components": [
            {
              "internalType": "bytes32",
              "name": "orderId",
              "type": "bytes32"
            },
            {
              "internalType": "string",
              "name": "recipientENS",
              "type": "string"
            },
            {
              "internalType": "address",
              "name": "sender",
              "type": "address"
            },
            {
              "internalType": "address",
              "name": "recipient",
              "type": "address"
            },
            {
              "internalType": "uint256",
              "name": "amountGHS",
              "type": "uint256"
            },
            {
              "internalType": "uint256",
              "name": "amountUSDC",
              "type": "uint256"
            },
            {
              "internalType": "uint256",
              "name": "fxRate",
              "type": "uint256"
            },
            {
              "internalType": "uint256",
              "name": "timestamp",
              "type": "uint256"
            },
            {
              "internalType": "enum PaymentRouter.PaymentType",
              "name": "paymentType",
              "type": "uint8"
            },
            {
              "internalType": "enum PaymentRouter.PaymentStatus",
              "name": "status",
              "type": "uint8"
            },
            {
              "internalType": "string",
              "name": "metadata",
              "type": "string"
            },
            {
              "internalType": "bool",
              "name": "isVendorPayment",
              "type": "bool"
            }
          ],
          "internalType": "struct PaymentRouter.Receipt",
          "name": "receipt",
          "type": "tuple"
        }
      ],
      "stateMutability": "view",
      "type": "function"
    },
    {
      "inputs": [
        {
          "internalType": "address",
          "name": "user",
          "type": "address"
        }
      ],
      "name": "getUserEarnings",
      "outputs": [
        {
          "internalType": "uint256",
          "name": "earnings",
          "type": "uint256"
        }
      ],
      "stateMutability": "view",
      "type": "function"
    },
    {
      "inputs": [
        {
          "internalType": "address",
          "name": "user",
          "type": "address"
        },
        {
          "internalType": "uint256",
          "name": "offset",
          "type": "uint256"
        },
        {
          "internalType": "uint256",
          "name": "limit",
          "type": "uint256"
        }
      ],
      "name": "getUserReceipts",
      "outputs": [
        {
          "internalType": "bytes32[]",
          "name": "orderIds",
          "type": "bytes32[]"
        }
      ],
      "stateMutability": "view",
      "type": "function"
    },
    {
      "inputs": [
        {
          "internalType": "address",
          "name": "vendor",
          "type": "address"
        }
      ],
      "name": "getVendorEarnings",
      "outputs": [
        {
          "internalType": "uint256",
          "name": "earnings",
          "type": "uint256"
        }
      ],
      "stateMutability": "view",
      "type": "function"
    },
    {
      "inputs": [
        {
          "internalType": "bytes32",
          "name": "orderId",
          "type": "bytes32"
        },
        {
          "internalType": "string",
          "name": "reason",
          "type": "string"
        }
      ],
      "name": "markPaymentFailed",
      "outputs": [],
      "stateMutability": "nonpayable",
      "type": "function"
    },
    {
      "inputs": [],
      "name": "owner",
      "outputs": [
        {
          "internalType": "address",
          "name": "",
          "type": "address"
        }
      ],
      "stateMutability": "view",
      "type": "function"
    },
    {
      "inputs": [],
      "name": "pause",
      "outputs": [],
      "stateMutability": "nonpayable",
      "type": "function"
    },
    {
      "inputs": [],
      "name": "paused",
      "outputs": [
        {
          "internalType": "bool",
          "name": "",
          "type": "bool"
        }
      ],
      "stateMutability": "view",
      "type": "function"
    },
    {
      "inputs": [],
      "name": "platformFeeBps",
      "outputs": [
        {
          "internalType": "uint256",
          "name": "",
          "type": "uint256"
        }
      ],
      "stateMutability": "view",
      "type": "function"
    },
    {
      "inputs": [
        {
          "internalType": "bytes32",
          "name": "",
          "type": "bytes32"
        }
      ],
      "name": "receipts",
      "outputs": [
        {
          "internalType": "bytes32",
          "name": "orderId",
          "type": "bytes32"
        },
        {
          "internalType": "string",
          "name": "recipientENS",
          "type": "string"
        },
        {
          "internalType": "address",
          "name": "sender",
          "type": "address"
        },
        {
          "internalType": "address",
          "name": "recipient",
          "type": "address"
        },
        {
          "internalType": "uint256",
          "name": "amountGHS",
          "type": "uint256"
        },
        {
          "internalType": "uint256",
          "name": "amountUSDC",
          "type": "uint256"
        },
        {
          "internalType": "uint256",
          "name": "fxRate",
          "type": "uint256"
        },
        {
          "internalType": "uint256",
          "name": "timestamp",
          "type": "uint256"
        },
        {
          "internalType": "enum PaymentRouter.PaymentType",
          "name": "paymentType",
          "type": "uint8"
        },
        {
          "internalType": "enum PaymentRouter.PaymentStatus",
          "name": "status",
          "type": "uint8"
        },
        {
          "internalType": "string",
          "name": "metadata",
          "type": "string"
        },
        {
          "internalType": "bool",
          "name": "isVendorPayment",
          "type": "bool"
        }
      ],
      "stateMutability": "view",
      "type": "function"
    },
    {
      "inputs": [
        {
          "internalType": "bytes32",
          "name": "orderId",
          "type": "bytes32"
        }
      ],
      "name": "refundPayment",
      "outputs": [],
      "stateMutability": "nonpayable",
      "type": "function"
    },
    {
      "inputs": [],
      "name": "renounceOwnership",
      "outputs": [],
      "stateMutability": "nonpayable",
      "type": "function"
    },
    {
      "inputs": [
        {
          "internalType": "address",
          "name": "recipient",
          "type": "address"
        },
        {
          "internalType": "uint256",
          "name": "amountGHS",
          "type": "uint256"
        },
        {
          "internalType": "string",
          "name": "metadata",
          "type": "string"
        }
      ],
      "name": "sendP2PPayment",
      "outputs": [
        {
          "internalType": "bytes32",
          "name": "orderId",
          "type": "bytes32"
        }
      ],
      "stateMutability": "nonpayable",
      "type": "function"
    },
    {
      "inputs": [
        {
          "internalType": "address",
          "name": "vendor",
          "type": "address"
        },
        {
          "internalType": "uint256",
          "name": "amountGHS",
          "type": "uint256"
        },
        {
          "internalType": "string",
          "name": "metadata",
          "type": "string"
        },
        {
          "internalType": "enum PaymentRouter.PaymentType",
          "name": "paymentType",
          "type": "uint8"
        }
      ],
      "name": "sendVendorPayment",
      "outputs": [
        {
          "internalType": "bytes32",
          "name": "orderId",
          "type": "bytes32"
        }
      ],
      "stateMutability": "nonpayable",
      "type": "function"
    },
    {
      "inputs": [],
      "name": "subnameRegistrar",
      "outputs": [
        {
          "internalType": "contract SubnameRegistrar",
          "name": "",
          "type": "address"
        }
      ],
      "stateMutability": "view",
      "type": "function"
    },
    {
      "inputs": [
        {
          "internalType": "address",
          "name": "newOwner",
          "type": "address"
        }
      ],
      "name": "transferOwnership",
      "outputs": [],
      "stateMutability": "nonpayable",
      "type": "function"
    },
    {
      "inputs": [],
      "name": "unpause",
      "outputs": [],
      "stateMutability": "nonpayable",
      "type": "function"
    },
    {
      "inputs": [
        {
          "internalType": "uint256",
          "name": "newRate",
          "type": "uint256"
        }
      ],
      "name": "updateExchangeRate",
      "outputs": [],
      "stateMutability": "nonpayable",
      "type": "function"
    },
    {
      "inputs": [
        {
          "internalType": "address",
          "name": "newRecipient",
          "type": "address"
        }
      ],
      "name": "updateFeeRecipient",
      "outputs": [],
      "stateMutability": "nonpayable",
      "type": "function"
    },
    {
      "inputs": [
        {
          "internalType": "address",
          "name": "newUpdater",
          "type": "address"
        }
      ],
      "name": "updateFxRateUpdater",
      "outputs": [],
      "stateMutability": "nonpayable",
      "type": "function"
    },
    {
      "inputs": [
        {
          "internalType": "uint256",
          "name": "newFeeBps",
          "type": "uint256"
        }
      ],
      "name": "updatePlatformFee",
      "outputs": [],
      "stateMutability": "nonpayable",
      "type": "function"
    },
    {
      "inputs": [
        {
          "internalType": "address",
          "name": "",
          "type": "address"
        }
      ],
      "name": "userEarnings",
      "outputs": [
        {
          "internalType": "uint256",
          "name": "",
          "type": "uint256"
        }
      ],
      "stateMutability": "view",
      "type": "function"
    },
    {
      "inputs": [
        {
          "internalType": "address",
          "name": "",
          "type": "address"
        },
        {
          "internalType": "uint256",
          "name": "",
          "type": "uint256"
        }
      ],
      "name": "userReceipts",
      "outputs": [
        {
          "internalType": "bytes32",
          "name": "",
          "type": "bytes32"
        }
      ],
      "stateMutability": "view",
      "type": "function"
    },
    {
      "inputs": [
        {
          "internalType": "address",
          "name": "",
          "type": "address"
        }
      ],
      "name": "vendorEarnings",
      "outputs": [
        {
          "internalType": "uint256",
          "name": "",
          "type": "uint256"
        }
      ],
      "stateMutability": "view",
      "type": "function"
    },
    {
      "inputs": [],
      "name": "vendorRegistry",
      "outputs": [
        {
          "internalType": "contract VendorRegistry",
          "name": "",
          "type": "address"
        }
      ],
      "stateMutability": "view",
      "type": "function"
    }
  ],
  "transactionHash": "0x1834b5609116cfe8caa53851ba44cafc076a36c8699751d60622d5295efbb8db",
  "args": [
    "0xeb9361Ec0d712C5B12965FB91c409262b7d6703c",
    "0xA9F04F020CF9F511982719196E25FE7c666c9E4D",
    "0xC3b022250C359c9A9793d018503c20495FcD1B4F",
    "0x918A248f208CCF718825Ed2cFB3a749245bae1F9"
  ],
  "numDeployments": 2,
  "solcInputHash": "6002fd79152c5297841cf1ee1598082e",
  "bytecode": "0x6080604052620f424060055560196007556000600d553480156200002257600080fd5b50604051620031a5380380620031a5833981016040819052620000459162000149565b33806200006c57604051631e4fbdf760e01b81526000600482015260240160405180910390fd5b6200007781620000dc565b5060018055600280546001600160a01b03199081166001600160a01b03968716179091556003805482169486169490941790935560048054841692851692909217909155600880548316919093161790915560068054339216919091179055620001a6565b600080546001600160a01b038381166001600160a01b0319831681178455604051919092169283917f8be0079c531659141344cd1fd0a4f28419497f9722a3daafe3b4186f6b6457e09190a35050565b80516001600160a01b03811681146200014457600080fd5b919050565b600080600080608085870312156200016057600080fd5b6200016b856200012c565b93506200017b602086016200012c565b92506200018b604086016200012c565b91506200019b606086016200012c565b905092959194509250565b612fef80620001b66000396000f3fe608060405234801561001057600080fd5b50600436106101f05760003560e01c806395ccea671161010f578063df867859116100a2578063f160d36911610071578063f160d3691461045e578063f2fde38b14610471578063f42b880914610484578063fcecbb61146104ad57600080fd5b8063df867859146103ed578063e142fac814610400578063ee5ac03e14610413578063ef6cf04d1461043357600080fd5b8063b9e205ae116100de578063b9e205ae14610394578063d290dcfc146103a7578063d8ba6021146103ba578063de8f8b3f146103da57600080fd5b806395ccea67146103485780639aadf60a1461035b578063a843c5fe1461036e578063aa0b59881461038157600080fd5b806357b7b519116101875780638456cb59116101565780638456cb59146102e65780638d420d13146102ee5780638da5cb5b1461030e5780638eefcf621461031f57600080fd5b806357b7b5191461029b5780635c975abb146102ae5780636e91edcd146102cb578063715018a6146102de57600080fd5b80633f4ba83a116101c35780633f4ba83a1461025a578063469048401461026257806347ca8a8b146102755780634cabb8241461028857600080fd5b8063012beac9146101f5578063155f82e9146102255780631ab154961461023c57806322dcd13e14610251575b600080fd5b600354610208906001600160a01b031681565b6040516001600160a01b0390911681526020015b60405180910390f35b61022e60055481565b60405190815260200161021c565b61024f61024a366004612667565b6104cd565b005b61022e60075481565b61024f610570565b600854610208906001600160a01b031681565b61024f61028336600461268b565b610582565b61022e61029636600461268b565b610b03565b61022e6102a93660046127a0565b610b27565b600054600160a01b900460ff16604051901515815260200161021c565b61022e6102d936600461280c565b610f1e565b61024f6112e3565b61024f6112f5565b6103016102fc366004612865565b611305565b60405161021c919061289a565b6000546001600160a01b0316610208565b61022e61032d366004612667565b6001600160a01b03166000908152600b602052604090205490565b61024f6103563660046128de565b611455565b61024f61036936600461290a565b6117c5565b61022e61037c3660046128de565b61193e565b61024f61038f36600461268b565b61196f565b61024f6103a236600461268b565b611a1b565b600254610208906001600160a01b031681565b61022e6103c8366004612667565b600c6020526000908152604090205481565b61024f6103e836600461268b565b611b4c565b600654610208906001600160a01b031681565b600454610208906001600160a01b031681565b61022e610421366004612667565b600b6020526000908152604090205481565b61044661044136600461268b565b611dcb565b60405161021c9c9b9a999897969594939291906129e2565b61024f61046c366004612667565b611f52565b61024f61047f366004612667565b612026565b61022e610492366004612667565b6001600160a01b03166000908152600c602052604090205490565b6104c06104bb36600461268b565b612061565b60405161021c9190612a81565b6104d56122b3565b6001600160a01b03811661054e5760405162461bcd60e51b815260206004820152603560248201527f5061796d656e74526f757465723a204658207261746520757064617465722063604482015274616e6e6f74206265207a65726f206164647265737360581b60648201526084015b60405180910390fd5b600680546001600160a01b0319166001600160a01b0392909216919091179055565b6105786122b3565b6105806122e0565b565b61058a612335565b60008181526009602052604090205481906105b75760405162461bcd60e51b815260040161054590612b62565b6000828152600960205260408120906008820154610100900460ff1660038111156105e4576105e46129a1565b146106015760405162461bcd60e51b815260040161054590612b99565b60028101546001600160a01b031633146106755760405162461bcd60e51b815260206004820152602f60248201527f5061796d656e74526f757465723a204f6e6c792073656e6465722063616e206360448201526e1bdb5c1b195d19481c185e5b595b9d608a1b6064820152608401610545565b60058101546002546040516370a0823160e01b81523360048201526001600160a01b03909116906370a0823190602401602060405180830381865afa1580156106c2573d6000803e3d6000fd5b505050506040513d601f19601f820116820180604052508101906106e69190612bdb565b10156107465760405162461bcd60e51b815260206004820152602960248201527f5061796d656e74526f757465723a20496e73756666696369656e742062555344604482015268432062616c616e636560b81b6064820152608401610545565b6005810154600a8201546000919060ff16156107905761271060075484600501546107719190612c0a565b61077b9190612c21565b915081836005015461078d9190612c43565b90505b60025460058401546040516323b872dd60e01b815233600482015230602482015260448101919091526001600160a01b03909116906323b872dd906064016020604051808303816000875af11580156107ed573d6000803e3d6000fd5b505050506040513d601f19601f820116820180604052508101906108119190612c6b565b61085d5760405162461bcd60e51b815260206004820152601e60248201527f5061796d656e74526f757465723a205472616e73666572206661696c656400006044820152606401610545565b81156109335760025460085460405163a9059cbb60e01b81526001600160a01b0391821660048201526024810185905291169063a9059cbb906044016020604051808303816000875af11580156108b8573d6000803e3d6000fd5b505050506040513d601f19601f820116820180604052508101906108dc9190612c6b565b6109335760405162461bcd60e51b815260206004820152602260248201527f5061796d656e74526f757465723a20466565207472616e73666572206661696c604482015261195960f21b6064820152608401610545565b600254600384015460405163a9059cbb60e01b81526001600160a01b0391821660048201526024810184905291169063a9059cbb906044016020604051808303816000875af115801561098a573d6000803e3d6000fd5b505050506040513d601f19601f820116820180604052508101906109ae9190612c6b565b610a0b5760405162461bcd60e51b815260206004820152602860248201527f5061796d656e74526f757465723a20526563697069656e74207472616e7366656044820152671c8819985a5b195960c21b6064820152608401610545565b60088301805461ff001916610100179055600a83015460ff1615610a605760038301546001600160a01b03166000908152600b602052604081208054839290610a55908490612c86565b90915550610a929050565b60038301546001600160a01b03166000908152600c602052604081208054839290610a8c908490612c86565b90915550505b600383015460028401546005850154604080519182526020820186905281018490526001600160a01b03928316929091169087907fab776149fc023f3e5cafa5099ef7b7c5a5756789546721c3b359ef4e0f9005d99060600160405180910390a450505050610b0060018055565b50565b6000620f424060055483610b179190612c0a565b610b219190612c21565b92915050565b60035460405163353f20fd60e01b81526001600160a01b038087166004830152600092879291169063353f20fd90602401602060405180830381865afa158015610b75573d6000803e3d6000fd5b505050506040513d601f19601f82011682018060405250810190610b999190612c6b565b610be55760405162461bcd60e51b815260206004820181905260248201527f5061796d656e74526f757465723a2056656e646f72206e6f74206163746976656044820152606401610545565b610bed61235f565b6002836003811115610c0157610c016129a1565b1480610c1e57506001836003811115610c1c57610c1c6129a1565b145b610c815760405162461bcd60e51b815260206004820152602e60248201527f5061796d656e74526f757465723a20496e76616c6964207061796d656e74207460448201526d3cb832903337b9103b32b73237b960911b6064820152608401610545565b6000620f424060055487610c959190612c0a565b610c9f9190612c21565b905060008111610cf15760405162461bcd60e51b815260206004820152601f60248201527f5061796d656e74526f757465723a20416d6f756e7420746f6f20736d616c6c006044820152606401610545565b610cf961238a565b9250604051806101800160405280848152602001610d16896123fb565b8152602001336001600160a01b03168152602001886001600160a01b031681526020018781526020018281526020016005548152602001428152602001856003811115610d6557610d656129a1565b8152602001600081526020808201889052600160409283018190526000878152600983529290922083518155908301519091820190610da49082612d1b565b5060408201516002820180546001600160a01b03199081166001600160a01b0393841617909155606084015160038085018054909316919093161790556080830151600483015560a0830151600583015560c0830151600683015560e083015160078301556101008301516008830180549192909160ff1916906001908490811115610e3257610e326129a1565b021790555061012082015160088201805461ff001916610100836003811115610e5d57610e5d6129a1565b02179055506101408201516009820190610e779082612d1b565b506101609190910151600a918201805460ff191691151591909117905533600081815260209283526040808220805460018181018355918452858420018890556001600160a01b038c16808452828420805492830181558452949092209091018690555185907fd1cbe362484d6d80f52e20672fd2e4b5579125af9908612b8bda8199d99f8bd190610f0c9086908a90612ddb565b60405180910390a45050949350505050565b6000836001600160a01b038116610f885760405162461bcd60e51b815260206004820152602860248201527f5061796d656e74526f757465723a20496e76616c696420726563697069656e74604482015267206164647265737360c01b6064820152608401610545565b336001600160a01b03821603610feb5760405162461bcd60e51b815260206004820152602260248201527f5061796d656e74526f757465723a2043616e6e6f742073656e6420746f207365604482015261363360f11b6064820152608401610545565b610ff361235f565b6000620f4240600554866110079190612c0a565b6110119190612c21565b9050600081116110635760405162461bcd60e51b815260206004820152601f60248201527f5061796d656e74526f757465723a20416d6f756e7420746f6f20736d616c6c006044820152606401610545565b61106b61238a565b92506040518061018001604052808481526020016110888861247d565b81523360208201526001600160a01b0388166040820152606081018790526080810183905260055460a08201524260c082015260e0016000815260200160008152602081018690526003546040805163ee54d54f60e01b81526001600160a01b038b81166004830152919093019291169063ee54d54f90602401602060405180830381865afa15801561111f573d6000803e3d6000fd5b505050506040513d601f19601f820116820180604052508101906111439190612c6b565b1515905260008481526009602090815260409091208251815590820151600182019061116f9082612d1b565b5060408201516002820180546001600160a01b03199081166001600160a01b0393841617909155606084015160038085018054909316919093161790556080830151600483015560a0830151600583015560c0830151600683015560e083015160078301556101008301516008830180549192909160ff19169060019084908111156111fd576111fd6129a1565b021790555061012082015160088201805461ff001916610100836003811115611228576112286129a1565b021790555061014082015160098201906112429082612d1b565b506101609190910151600a918201805460ff191691151591909117905533600081815260209283526040808220805460018181018355918452858420018890556001600160a01b038b16808452828420805492830181558452948320018790555186917fd1cbe362484d6d80f52e20672fd2e4b5579125af9908612b8bda8199d99f8bd1916112d2918791612ddb565b60405180910390a450509392505050565b6112eb6122b3565b610580600061250e565b6112fd6122b3565b61058061255e565b6001600160a01b0383166000908152600a60205260409020805460609190841061137d5760405162461bcd60e51b815260206004820152602360248201527f5061796d656e74526f757465723a204f6666736574206f7574206f6620626f756044820152626e647360e81b6064820152608401610545565b60006113898486612c86565b8254909150811115611399575080545b60006113a58683612c43565b67ffffffffffffffff8111156113bd576113bd6126a4565b6040519080825280602002602001820160405280156113e6578160200160208202803683370190505b509050855b8281101561144a5783818154811061140557611405612df8565b906000526020600020015482888361141d9190612c43565b8151811061142d5761142d612df8565b60209081029190910101528061144281612e0e565b9150506113eb565b509695505050505050565b61145d6122b3565b6001600160a01b03821661158c5760008115611479578161147b565b475b9050600081116114d75760405162461bcd60e51b815260206004820152602160248201527f5061796d656e74526f757465723a204e6f2045544820746f20776974686472616044820152607760f81b6064820152608401610545565b600080546040516001600160a01b039091169083908381818185875af1925050503d8060008114611524576040519150601f19603f3d011682016040523d82523d6000602084013e611529565b606091505b50509050806115865760405162461bcd60e51b8152602060048201526024808201527f5061796d656e74526f757465723a20455448207769746864726177616c2066616044820152631a5b195960e21b6064820152608401610545565b50505050565b6002546001600160a01b038381169116146115f85760405162461bcd60e51b815260206004820152602660248201527f5061796d656e74526f757465723a2043616e206f6e6c7920776974686472617760448201526520625553444360d01b6064820152608401610545565b600081156116065781611672565b6002546040516370a0823160e01b81523060048201526001600160a01b03909116906370a0823190602401602060405180830381865afa15801561164e573d6000803e3d6000fd5b505050506040513d601f19601f820116820180604052508101906116729190612bdb565b9050600081116116d05760405162461bcd60e51b8152602060048201526024808201527f5061796d656e74526f757465723a204e6f20746f6b656e7320746f20776974686044820152636472617760e01b6064820152608401610545565b6002546001600160a01b031663a9059cbb6116f36000546001600160a01b031690565b6040516001600160e01b031960e084901b1681526001600160a01b039091166004820152602481018490526044016020604051808303816000875af1158015611740573d6000803e3d6000fd5b505050506040513d601f19601f820116820180604052508101906117649190612c6b565b6117bf5760405162461bcd60e51b815260206004820152602660248201527f5061796d656e74526f757465723a20546f6b656e207769746864726177616c2060448201526519985a5b195960d21b6064820152608401610545565b505b5050565b60008281526009602052604090205482906117f25760405162461bcd60e51b815260040161054590612b62565b6000838152600960205260408120906008820154610100900460ff16600381111561181f5761181f6129a1565b1461183c5760405162461bcd60e51b815260040161054590612b99565b60038101546001600160a01b031633148061186157506000546001600160a01b031633145b6118d35760405162461bcd60e51b815260206004820152603960248201527f5061796d656e74526f757465723a204f6e6c7920726563697069656e74206f7260448201527f2061646d696e2063616e206d61726b206173206661696c6564000000000000006064820152608401610545565b60088101805461ff001916610200179055600381015460028201546040516001600160a01b03928316929091169086907f7a2ea751754fe932d035d5b4731a6eb8f5d1571412b2f691a4440ff6a520a4e290611930908890612e27565b60405180910390a450505050565b600a602052816000526040600020818154811061195a57600080fd5b90600052602060002001600091509150505481565b6119776122b3565b6103e88111156119d55760405162461bcd60e51b8152602060048201526024808201527f5061796d656e74526f757465723a204665652063616e6e6f74206578636565646044820152632031302560e01b6064820152608401610545565b600780549082905560408051828152602081018490527fd347e206f25a89b917fc9482f1a2d294d749baa4dc9bde7fb495ee11fe49164391015b60405180910390a15050565b6006546001600160a01b0316331480611a3e57506000546001600160a01b031633145b611aa85760405162461bcd60e51b815260206004820152603560248201527f5061796d656e74526f757465723a204e6f7420617574686f72697a656420746f604482015274207570646174652065786368616e6765207261746560581b6064820152608401610545565b60008111611b0e5760405162461bcd60e51b815260206004820152602d60248201527f5061796d656e74526f757465723a2045786368616e67652072617465206d757360448201526c7420626520706f73697469766560981b6064820152608401610545565b600580549082905560408051828152602081018490527fc8d1043f24843c0a1c9251fdc30017d84e87498fbcf232af9f86816b5e182bde9101611a0f565b611b546122b3565b6000818152600960205260409020548190611b815760405162461bcd60e51b815260040161054590612b62565b611b89612335565b600082815260096020526040902060016008820154610100900460ff166003811115611bb757611bb76129a1565b14611c105760405162461bcd60e51b8152602060048201526024808201527f5061796d656e74526f757465723a205061796d656e74206e6f7420636f6d706c604482015263195d195960e21b6064820152608401610545565b6005810154600280549083015460405163a9059cbb60e01b81526001600160a01b0391821660048201526024810184905291169063a9059cbb906044016020604051808303816000875af1158015611c6c573d6000803e3d6000fd5b505050506040513d601f19601f82011682018060405250810190611c909190612c6b565b611cea5760405162461bcd60e51b815260206004820152602560248201527f5061796d656e74526f757465723a20526566756e64207472616e736665722066604482015264185a5b195960da1b6064820152608401610545565b60088201805461ff001916610300179055600a82015460ff1615611d3f5760038201546001600160a01b03166000908152600b602052604081208054839290611d34908490612c43565b90915550611d719050565b60038201546001600160a01b03166000908152600c602052604081208054839290611d6b908490612c43565b90915550505b600382015460028301546040518381526001600160a01b03928316929091169086907f42b8ba31338f985ac11f6eaa31356b5cbd8eaa2f7f01e453369f02f1cf234b989060200160405180910390a450506117c160018055565b60096020526000908152604090208054600182018054919291611ded90612c99565b80601f0160208091040260200160405190810160405280929190818152602001828054611e1990612c99565b8015611e665780601f10611e3b57610100808354040283529160200191611e66565b820191906000526020600020905b815481529060010190602001808311611e4957829003601f168201915b50505060028401546003850154600486015460058701546006880154600789015460088a015460098b0180549a9b6001600160a01b039889169b97909816995094975092959194909360ff808516946101009004169291611ec690612c99565b80601f0160208091040260200160405190810160405280929190818152602001828054611ef290612c99565b8015611f3f5780601f10611f1457610100808354040283529160200191611f3f565b820191906000526020600020905b815481529060010190602001808311611f2257829003601f168201915b505050600a909301549192505060ff168c565b611f5a6122b3565b6001600160a01b038116611fcc5760405162461bcd60e51b815260206004820152603360248201527f5061796d656e74526f757465723a2046656520726563697069656e742063616e6044820152726e6f74206265207a65726f206164647265737360681b6064820152608401610545565b600880546001600160a01b038381166001600160a01b031983168117909355604080519190921680825260208201939093527faaebcf1bfa00580e41d966056b48521fa9f202645c86d4ddf28113e617c1b1d39101611a0f565b61202e6122b3565b6001600160a01b03811661205857604051631e4fbdf760e01b815260006004820152602401610545565b610b008161250e565b6120696125cb565b60008281526009602052604090205482906120965760405162461bcd60e51b815260040161054590612b62565b6009600084815260200190815260200160002060405180610180016040529081600082015481526020016001820180546120cf90612c99565b80601f01602080910402602001604051908101604052809291908181526020018280546120fb90612c99565b80156121485780601f1061211d57610100808354040283529160200191612148565b820191906000526020600020905b81548152906001019060200180831161212b57829003601f168201915b505050918352505060028201546001600160a01b03908116602083015260038084015490911660408301526004830154606083015260058301546080830152600683015460a0830152600783015460c0830152600883015460e09092019160ff16908111156121b9576121b96129a1565b60038111156121ca576121ca6129a1565b81526020016008820160019054906101000a900460ff1660038111156121f2576121f26129a1565b6003811115612203576122036129a1565b815260200160098201805461221790612c99565b80601f016020809104026020016040519081016040528092919081815260200182805461224390612c99565b80156122905780601f1061226557610100808354040283529160200191612290565b820191906000526020600020905b81548152906001019060200180831161227357829003601f168201915b5050509183525050600a919091015460ff16151560209091015291505b50919050565b6000546001600160a01b031633146105805760405163118cdaa760e01b8152336004820152602401610545565b6122e86125a1565b6000805460ff60a01b191690557f5db9ee0a495bf2e6ff9c91a7834c1ba4fdd244a5e8aa4e537bd38aeae4b073aa335b6040516001600160a01b03909116815260200160405180910390a1565b60026001540361235857604051633ee5aeb560e01b815260040160405180910390fd5b6002600155565b600054600160a01b900460ff16156105805760405163d93c066560e01b815260040160405180910390fd5b600d80546000918261239b83612e0e565b9091555050600d546040516123e091429143913391602001938452602084019290925260601b6bffffffffffffffffffffffff19166040830152605482015260740190565b60405160208183030381529060405280519060200120905090565b600354604051635480df8960e01b81526001600160a01b038381166004830152606092600092911690635480df8990602401600060405180830381865afa15801561244a573d6000803e3d6000fd5b505050506040513d6000823e601f3d908101601f191682016040526124729190810190612e9d565b602001519392505050565b60035460405163ee54d54f60e01b81526001600160a01b038381166004830152606092169063ee54d54f90602401602060405180830381865afa1580156124c8573d6000803e3d6000fd5b505050506040513d601f19601f820116820180604052508101906124ec9190612c6b565b156124fa57610b21826123fb565b505060408051602081019091526000815290565b600080546001600160a01b038381166001600160a01b0319831681178455604051919092169283917f8be0079c531659141344cd1fd0a4f28419497f9722a3daafe3b4186f6b6457e09190a35050565b61256661235f565b6000805460ff60a01b1916600160a01b1790557f62e78cea01bee320cd4e420270b5ea74000d11b0c9f74754ebdbfc544b05a2586123183390565b600054600160a01b900460ff1661058057604051638dfc202b60e01b815260040160405180910390fd5b604051806101800160405280600080191681526020016060815260200160006001600160a01b0316815260200160006001600160a01b031681526020016000815260200160008152602001600081526020016000815260200160006003811115612637576126376129a1565b81526020016000815260606020820152600060409091015290565b6001600160a01b0381168114610b0057600080fd5b60006020828403121561267957600080fd5b813561268481612652565b9392505050565b60006020828403121561269d57600080fd5b5035919050565b634e487b7160e01b600052604160045260246000fd5b604051610140810167ffffffffffffffff811182821017156126de576126de6126a4565b60405290565b604051601f8201601f1916810167ffffffffffffffff8111828210171561270d5761270d6126a4565b604052919050565b600067ffffffffffffffff82111561272f5761272f6126a4565b50601f01601f191660200190565b600082601f83011261274e57600080fd5b813561276161275c82612715565b6126e4565b81815284602083860101111561277657600080fd5b816020850160208301376000918101602001919091529392505050565b60048110610b0057600080fd5b600080600080608085870312156127b657600080fd5b84356127c181612652565b935060208501359250604085013567ffffffffffffffff8111156127e457600080fd5b6127f08782880161273d565b925050606085013561280181612793565b939692955090935050565b60008060006060848603121561282157600080fd5b833561282c81612652565b925060208401359150604084013567ffffffffffffffff81111561284f57600080fd5b61285b8682870161273d565b9150509250925092565b60008060006060848603121561287a57600080fd5b833561288581612652565b95602085013595506040909401359392505050565b6020808252825182820181905260009190848201906040850190845b818110156128d2578351835292840192918401916001016128b6565b50909695505050505050565b600080604083850312156128f157600080fd5b82356128fc81612652565b946020939093013593505050565b6000806040838503121561291d57600080fd5b82359150602083013567ffffffffffffffff81111561293b57600080fd5b6129478582860161273d565b9150509250929050565b60005b8381101561296c578181015183820152602001612954565b50506000910152565b6000815180845261298d816020860160208601612951565b601f01601f19169290920160200192915050565b634e487b7160e01b600052602160045260246000fd5b60048110610b0057634e487b7160e01b600052602160045260246000fd5b6129de816129b7565b9052565b60006101808e83528060208401526129fc8184018f612975565b6001600160a01b038e811660408601528d166060850152608084018c905260a084018b905260c084018a905260e084018990529050612a3a876129b7565b86610100840152612a4a866129b7565b85610120840152828103610140840152612a648186612975565b9150508215156101608301529d9c50505050505050505050505050565b602081528151602082015260006020830151610180806040850152612aaa6101a0850183612975565b91506040850151612ac660608601826001600160a01b03169052565b5060608501516001600160a01b038116608086015250608085015160a085015260a085015160c085015260c085015160e085015260e0850151610100818187015280870151915050610120612b1d818701836129d5565b8601519050610140612b31868201836129d5565b80870151915050610160601f198685030181870152612b508483612975565b96015115159190940152509192915050565b6020808252601f908201527f5061796d656e74526f757465723a20496e76616c6964206f7264657220494400604082015260600190565b60208082526022908201527f5061796d656e74526f757465723a205061796d656e74206e6f742070656e64696040820152616e6760f01b606082015260800190565b600060208284031215612bed57600080fd5b5051919050565b634e487b7160e01b600052601160045260246000fd5b8082028115828204841417610b2157610b21612bf4565b600082612c3e57634e487b7160e01b600052601260045260246000fd5b500490565b81810381811115610b2157610b21612bf4565b80518015158114612c6657600080fd5b919050565b600060208284031215612c7d57600080fd5b61268482612c56565b80820180821115610b2157610b21612bf4565b600181811c90821680612cad57607f821691505b6020821081036122ad57634e487b7160e01b600052602260045260246000fd5b601f8211156117bf57600081815260208120601f850160051c81016020861015612cf45750805b601f850160051c820191505b81811015612d1357828155600101612d00565b505050505050565b815167ffffffffffffffff811115612d3557612d356126a4565b612d4981612d438454612c99565b84612ccd565b602080601f831160018114612d7e5760008415612d665750858301515b600019600386901b1c1916600185901b178555612d13565b600085815260208120601f198616915b82811015612dad57888601518255948401946001909101908401612d8e565b5085821015612dcb5787850151600019600388901b60f8161c191681555b5050505050600190811b01905550565b82815260408101612deb836129b7565b8260208301529392505050565b634e487b7160e01b600052603260045260246000fd5b600060018201612e2057612e20612bf4565b5060010190565b6020815260006126846020830184612975565b8051612c6681612652565b600082601f830112612e5657600080fd5b8151612e6461275c82612715565b818152846020838601011115612e7957600080fd5b612e8a826020830160208701612951565b949350505050565b8051612c6681612793565b600060208284031215612eaf57600080fd5b815167ffffffffffffffff80821115612ec757600080fd5b908301906101408286031215612edc57600080fd5b612ee46126ba565b612eed83612e3a565b8152602083015182811115612f0157600080fd5b612f0d87828601612e45565b602083015250604083015182811115612f2557600080fd5b612f3187828601612e45565b604083015250606083015182811115612f4957600080fd5b612f5587828601612e45565b606083015250612f6760808401612c56565b6080820152612f7860a08401612c56565b60a082015260c083015160c0820152612f9360e08401612e92565b60e08201526101008381015190820152610120928301519281019290925250939250505056fea2646970667358221220d773cd633b64707b62213d42efec352762966ec65ed4639b4a4d33c159f2eac864736f6c63430008140033",
  "devdoc": {
    "details": "Handles bUSDC payments between users (P2P) and vendors Supports P2P transfers, vendor payments, ENS resolution, QR/NFC payments Emits Receipt events for transaction tracking",
    "errors": {
      "EnforcedPause()": [
        {
          "details": "The operation failed because the contract is paused."
        }
      ],
      "ExpectedPause()": [
        {
          "details": "The operation failed because the contract is not paused."
        }
      ],
      "OwnableInvalidOwner(address)": [
        {
          "details": "The owner is not a valid owner account. (eg. `address(0)`)"
        }
      ],
      "OwnableUnauthorizedAccount(address)": [
        {
          "details": "The caller account is not authorized to perform an operation."
        }
      ],
      "ReentrancyGuardReentrantCall()": [
        {
          "details": "Unauthorized reentrant call."
        }
      ]
    },
    "events": {
      "Paused(address)": {
        "details": "Emitted when the pause is triggered by `account`."
      },
      "Unpaused(address)": {
        "details": "Emitted when the pause is lifted by `account`."
      }
    },
    "kind": "dev",
    "methods": {
      "calculateUSDCAmount(uint256)": {
        "details": "Calculate amount in USDC from GHS",
        "params": {
          "amountGHS": "Amount in GHS"
        },
        "returns": {
          "amountUSDC": "Amount in bUSDC"
        }
      },
      "completePayment(bytes32)": {
        "details": "Complete a payment by transferring bUSDC tokens",
        "params": {
          "orderId": "Order ID to complete"
        }
      },
      "emergencyWithdraw(address,uint256)": {
        "details": "Emergency withdraw (admin only)",
        "params": {
          "amount": "Amount to withdraw (0 for all)",
          "token": "Token address to withdraw (0 for ETH)"
        }
      },
      "getReceipt(bytes32)": {
        "details": "Get receipt by order ID",
        "params": {
          "orderId": "Order ID to query"
        },
        "returns": {
          "receipt": "Receipt struct"
        }
      },
      "getUserEarnings(address)": {
        "details": "Get user's total P2P earnings",
        "params": {
          "user": "User address"
        },
        "returns": {
          "earnings": "Total P2P earnings in bUSDC"
        }
      },
      "getUserReceipts(address,uint256,uint256)": {
        "details": "Get user's receipt IDs",
        "params": {
          "limit": "Maximum number of receipts to return",
          "offset": "Starting index",
          "user": "User address"
        },
        "returns": {
          "orderIds": "Array of order IDs"
        }
      },
      "getVendorEarnings(address)": {
        "details": "Get vendor's total earnings",
        "params": {
          "vendor": "Vendor address"
        },
        "returns": {
          "earnings": "Total earnings in bUSDC"
        }
      },
      "markPaymentFailed(bytes32,string)": {
        "details": "Mark a payment as failed (admin or recipient only)",
        "params": {
          "orderId": "Order ID to mark as failed",
          "reason": "Reason for failure"
        }
      },
      "owner()": {
        "details": "Returns the address of the current owner."
      },
      "pause()": {
        "details": "Pause the contract (admin only)"
      },
      "paused()": {
        "details": "Returns true if the contract is paused, and false otherwise."
      },
      "refundPayment(bytes32)": {
        "details": "Refund a completed payment (admin only)",
        "params": {
          "orderId": "Order ID to refund"
        }
      },
      "renounceOwnership()": {
        "details": "Leaves the contract without owner. It will not be possible to call `onlyOwner` functions. Can only be called by the current owner. NOTE: Renouncing ownership will leave the contract without an owner, thereby disabling any functionality that is only available to the owner."
      },
      "sendP2PPayment(address,uint256,string)": {
        "details": "Send P2P payment to any address",
        "params": {
          "amountGHS": "Amount in GHS",
          "metadata": "Optional metadata",
          "recipient": "Recipient's address"
        },
        "returns": {
          "orderId": "Generated order ID"
        }
      },
      "sendVendorPayment(address,uint256,string,uint8)": {
        "details": "Send payment to vendor (with QR/NFC support)",
        "params": {
          "amountGHS": "Amount in GHS",
          "metadata": "JSON string with payment details",
          "paymentType": "QR or NFC payment type",
          "vendor": "Vendor's address"
        },
        "returns": {
          "orderId": "Generated order ID"
        }
      },
      "transferOwnership(address)": {
        "details": "Transfers ownership of the contract to a new account (`newOwner`). Can only be called by the current owner."
      },
      "unpause()": {
        "details": "Unpause the contract (admin only)"
      },
      "updateExchangeRate(uint256)": {
        "details": "Update exchange rate (GHS to USDC)",
        "params": {
          "newRate": "New exchange rate (6 decimals)"
        }
      },
      "updateFeeRecipient(address)": {
        "details": "Update fee recipient",
        "params": {
          "newRecipient": "New fee recipient address"
        }
      },
      "updateFxRateUpdater(address)": {
        "details": "Update FX rate updater address",
        "params": {
          "newUpdater": "New FX rate updater address"
        }
      },
      "updatePlatformFee(uint256)": {
        "details": "Update platform fee",
        "params": {
          "newFeeBps": "New fee in basis points (100 = 1%)"
        }
      }
    },
    "title": "PaymentRouter",
    "version": 1
  },
  "userdoc": {
    "kind": "user",
    "methods": {},
    "version": 1
  },
  "storageLayout": {
    "storage": [
      {
        "astId": 8,
        "contract": "contracts/PaymentRouter.sol:PaymentRouter",
        "label": "_owner",
        "offset": 0,
        "slot": "0",
        "type": "t_address"
      },
      {
        "astId": 942,
        "contract": "contracts/PaymentRouter.sol:PaymentRouter",
        "label": "_paused",
        "offset": 20,
        "slot": "0",
        "type": "t_bool"
      },
      {
        "astId": 1052,
        "contract": "contracts/PaymentRouter.sol:PaymentRouter",
        "label": "_status",
        "offset": 0,
        "slot": "1",
        "type": "t_uint256"
      },
      {
        "astId": 2021,
        "contract": "contracts/PaymentRouter.sol:PaymentRouter",
        "label": "busdcToken",
        "offset": 0,
        "slot": "2",
        "type": "t_contract(bUSDC)5287"
      },
      {
        "astId": 2024,
        "contract": "contracts/PaymentRouter.sol:PaymentRouter",
        "label": "vendorRegistry",
        "offset": 0,
        "slot": "3",
        "type": "t_contract(VendorRegistry)5010"
      },
      {
        "astId": 2027,
        "contract": "contracts/PaymentRouter.sol:PaymentRouter",
        "label": "subnameRegistrar",
        "offset": 0,
        "slot": "4",
        "type": "t_contract(SubnameRegistrar)4096"
      },
      {
        "astId": 2030,
        "contract": "contracts/PaymentRouter.sol:PaymentRouter",
        "label": "currentFxRate",
        "offset": 0,
        "slot": "5",
        "type": "t_uint256"
      },
      {
        "astId": 2032,
        "contract": "contracts/PaymentRouter.sol:PaymentRouter",
        "label": "fxRateUpdater",
        "offset": 0,
        "slot": "6",
        "type": "t_address"
      },
      {
        "astId": 2035,
        "contract": "contracts/PaymentRouter.sol:PaymentRouter",
        "label": "platformFeeBps",
        "offset": 0,
        "slot": "7",
        "type": "t_uint256"
      },
      {
        "astId": 2037,
        "contract": "contracts/PaymentRouter.sol:PaymentRouter",
        "label": "feeRecipient",
        "offset": 0,
        "slot": "8",
        "type": "t_address"
      },
      {
        "astId": 2042,
        "contract": "contracts/PaymentRouter.sol:PaymentRouter",
        "label": "receipts",
        "offset": 0,
        "slot": "9",
        "type": "t_mapping(t_bytes32,t_struct(Receipt)2018_storage)"
      },
      {
        "astId": 2047,
        "contract": "contracts/PaymentRouter.sol:PaymentRouter",
        "label": "userReceipts",
        "offset": 0,
        "slot": "10",
        "type": "t_mapping(t_address,t_array(t_bytes32)dyn_storage)"
      },
      {
        "astId": 2051,
        "contract": "contracts/PaymentRouter.sol:PaymentRouter",
        "label": "vendorEarnings",
        "offset": 0,
        "slot": "11",
        "type": "t_mapping(t_address,t_uint256)"
      },
      {
        "astId": 2055,
        "contract": "contracts/PaymentRouter.sol:PaymentRouter",
        "label": "userEarnings",
        "offset": 0,
        "slot": "12",
        "type": "t_mapping(t_address,t_uint256)"
      },
      {
        "astId": 2058,
        "contract": "contracts/PaymentRouter.sol:PaymentRouter",
        "label": "orderCounter",
        "offset": 0,
        "slot": "13",
        "type": "t_uint256"
      }
    ],
    "types": {
      "t_address": {
        "encoding": "inplace",
        "label": "address",
        "numberOfBytes": "20"
      },
      "t_array(t_bytes32)dyn_storage": {
        "base": "t_bytes32",
        "encoding": "dynamic_array",
        "label": "bytes32[]",
        "numberOfBytes": "32"
      },
      "t_bool": {
        "encoding": "inplace",
        "label": "bool",
        "numberOfBytes": "1"
      },
      "t_bytes32": {
        "encoding": "inplace",
        "label": "bytes32",
        "numberOfBytes": "32"
      },
      "t_contract(SubnameRegistrar)4096": {
        "encoding": "inplace",
        "label": "contract SubnameRegistrar",
        "numberOfBytes": "20"
      },
      "t_contract(VendorRegistry)5010": {
        "encoding": "inplace",
        "label": "contract VendorRegistry",
        "numberOfBytes": "20"
      },
      "t_contract(bUSDC)5287": {
        "encoding": "inplace",
        "label": "contract bUSDC",
        "numberOfBytes": "20"
      },
      "t_enum(PaymentStatus)1991": {
        "encoding": "inplace",
        "label": "enum PaymentRouter.PaymentStatus",
        "numberOfBytes": "1"
      },
      "t_enum(PaymentType)1986": {
        "encoding": "inplace",
        "label": "enum PaymentRouter.PaymentType",
        "numberOfBytes": "1"
      },
      "t_mapping(t_address,t_array(t_bytes32)dyn_storage)": {
        "encoding": "mapping",
        "key": "t_address",
        "label": "mapping(address => bytes32[])",
        "numberOfBytes": "32",
        "value": "t_array(t_bytes32)dyn_storage"
      },
      "t_mapping(t_address,t_uint256)": {
        "encoding": "mapping",
        "key": "t_address",
        "label": "mapping(address => uint256)",
        "numberOfBytes": "32",
        "value": "t_uint256"
      },
      "t_mapping(t_bytes32,t_struct(Receipt)2018_storage)": {
        "encoding": "mapping",
        "key": "t_bytes32",
        "label": "mapping(bytes32 => struct PaymentRouter.Receipt)",
        "numberOfBytes": "32",
        "value": "t_struct(Receipt)2018_storage"
      },
      "t_string_storage": {
        "encoding": "bytes",
        "label": "string",
        "numberOfBytes": "32"
      },
      "t_struct(Receipt)2018_storage": {
        "encoding": "inplace",
        "label": "struct PaymentRouter.Receipt",
        "members": [
          {
            "astId": 1993,
            "contract": "contracts/PaymentRouter.sol:PaymentRouter",
            "label": "orderId",
            "offset": 0,
            "slot": "0",
            "type": "t_bytes32"
          },
          {
            "astId": 1995,
            "contract": "contracts/PaymentRouter.sol:PaymentRouter",
            "label": "recipientENS",
            "offset": 0,
            "slot": "1",
            "type": "t_string_storage"
          },
          {
            "astId": 1997,
            "contract": "contracts/PaymentRouter.sol:PaymentRouter",
            "label": "sender",
            "offset": 0,
            "slot": "2",
            "type": "t_address"
          },
          {
            "astId": 1999,
            "contract": "contracts/PaymentRouter.sol:PaymentRouter",
            "label": "recipient",
            "offset": 0,
            "slot": "3",
            "type": "t_address"
          },
          {
            "astId": 2001,
            "contract": "contracts/PaymentRouter.sol:PaymentRouter",
            "label": "amountGHS",
            "offset": 0,
            "slot": "4",
            "type": "t_uint256"
          },
          {
            "astId": 2003,
            "contract": "contracts/PaymentRouter.sol:PaymentRouter",
            "label": "amountUSDC",
            "offset": 0,
            "slot": "5",
            "type": "t_uint256"
          },
          {
            "astId": 2005,
            "contract": "contracts/PaymentRouter.sol:PaymentRouter",
            "label": "fxRate",
            "offset": 0,
            "slot": "6",
            "type": "t_uint256"
          },
          {
            "astId": 2007,
            "contract": "contracts/PaymentRouter.sol:PaymentRouter",
            "label": "timestamp",
            "offset": 0,
            "slot": "7",
            "type": "t_uint256"
          },
          {
            "astId": 2010,
            "contract": "contracts/PaymentRouter.sol:PaymentRouter",
            "label": "paymentType",
            "offset": 0,
            "slot": "8",
            "type": "t_enum(PaymentType)1986"
          },
          {
            "astId": 2013,
            "contract": "contracts/PaymentRouter.sol:PaymentRouter",
            "label": "status",
            "offset": 1,
            "slot": "8",
            "type": "t_enum(PaymentStatus)1991"
          },
          {
            "astId": 2015,
            "contract": "contracts/PaymentRouter.sol:PaymentRouter",
            "label": "metadata",
            "offset": 0,
            "slot": "9",
            "type": "t_string_storage"
          },
          {
            "astId": 2017,
            "contract": "contracts/PaymentRouter.sol:PaymentRouter",
            "label": "isVendorPayment",
            "offset": 0,
            "slot": "10",
            "type": "t_bool"
          }
        ],
        "numberOfBytes": "352"
      },
      "t_uint256": {
        "encoding": "inplace",
        "label": "uint256",
        "numberOfBytes": "32"
      }
    }
  }
}