{
  "address": "0x75c4D11F142bB29996B11533e6EF9f741c45De7C",
  "abi": [
    {
      "inputs": [
        {
          "internalType": "address",
          "name": "_vendorRegistry",
          "type": "address"
        },
        {
          "internalType": "address",
          "name": "_ensRegistry",
          "type": "address"
        },
        {
          "internalType": "address",
          "name": "_ensResolver",
          "type": "address"
        }
      ],
      "stateMutability": "nonpayable",
      "type": "constructor"
    },
    {
      "inputs": [],
      "name": "EnforcedPause",
      "type": "error"
    },
    {
      "inputs": [],
      "name": "ExpectedPause",
      "type": "error"
    },
    {
      "inputs": [
        {
          "internalType": "address",
          "name": "owner",
          "type": "address"
        }
      ],
      "name": "OwnableInvalidOwner",
      "type": "error"
    },
    {
      "inputs": [
        {
          "internalType": "address",
          "name": "account",
          "type": "address"
        }
      ],
      "name": "OwnableUnauthorizedAccount",
      "type": "error"
    },
    {
      "anonymous": false,
      "inputs": [
        {
          "indexed": true,
          "internalType": "address",
          "name": "previousOwner",
          "type": "address"
        },
        {
          "indexed": true,
          "internalType": "address",
          "name": "newOwner",
          "type": "address"
        }
      ],
      "name": "OwnershipTransferred",
      "type": "event"
    },
    {
      "anonymous": false,
      "inputs": [
        {
          "indexed": false,
          "internalType": "address",
          "name": "account",
          "type": "address"
        }
      ],
      "name": "Paused",
      "type": "event"
    },
    {
      "anonymous": false,
      "inputs": [
        {
          "indexed": false,
          "internalType": "uint256",
          "name": "oldFee",
          "type": "uint256"
        },
        {
          "indexed": false,
          "internalType": "uint256",
          "name": "newFee",
          "type": "uint256"
        }
      ],
      "name": "RegistrationFeeUpdated",
      "type": "event"
    },
    {
      "anonymous": false,
      "inputs": [
        {
          "indexed": true,
          "internalType": "string",
          "name": "subname",
          "type": "string"
        },
        {
          "indexed": true,
          "internalType": "address",
          "name": "owner",
          "type": "address"
        },
        {
          "indexed": true,
          "internalType": "address",
          "name": "vendor",
          "type": "address"
        },
        {
          "indexed": false,
          "internalType": "uint256",
          "name": "timestamp",
          "type": "uint256"
        }
      ],
      "name": "SubnameRegistered",
      "type": "event"
    },
    {
      "anonymous": false,
      "inputs": [
        {
          "indexed": true,
          "internalType": "string",
          "name": "subname",
          "type": "string"
        },
        {
          "indexed": true,
          "internalType": "address",
          "name": "owner",
          "type": "address"
        }
      ],
      "name": "SubnameRevoked",
      "type": "event"
    },
    {
      "anonymous": false,
      "inputs": [
        {
          "indexed": true,
          "internalType": "string",
          "name": "subname",
          "type": "string"
        },
        {
          "indexed": true,
          "internalType": "address",
          "name": "oldOwner",
          "type": "address"
        },
        {
          "indexed": true,
          "internalType": "address",
          "name": "newOwner",
          "type": "address"
        }
      ],
      "name": "SubnameTransferred",
      "type": "event"
    },
    {
      "anonymous": false,
      "inputs": [
        {
          "indexed": false,
          "internalType": "address",
          "name": "account",
          "type": "address"
        }
      ],
      "name": "Unpaused",
      "type": "event"
    },
    {
      "inputs": [],
      "name": "TAPNGO_NODE",
      "outputs": [
        {
          "internalType": "bytes32",
          "name": "",
          "type": "bytes32"
        }
      ],
      "stateMutability": "view",
      "type": "function"
    },
    {
      "inputs": [],
      "name": "ensRegistry",
      "outputs": [
        {
          "internalType": "contract ENSRegistry",
          "name": "",
          "type": "address"
        }
      ],
      "stateMutability": "view",
      "type": "function"
    },
    {
      "inputs": [],
      "name": "ensResolver",
      "outputs": [
        {
          "internalType": "contract ENSResolver",
          "name": "",
          "type": "address"
        }
      ],
      "stateMutability": "view",
      "type": "function"
    },
    {
      "inputs": [
        {
          "internalType": "string",
          "name": "subname",
          "type": "string"
        }
      ],
      "name": "getSubnameOwner",
      "outputs": [
        {
          "internalType": "address",
          "name": "owner",
          "type": "address"
        }
      ],
      "stateMutability": "view",
      "type": "function"
    },
    {
      "inputs": [
        {
          "internalType": "address",
          "name": "owner",
          "type": "address"
        }
      ],
      "name": "getSubnamesByOwner",
      "outputs": [
        {
          "internalType": "string[]",
          "name": "subnames",
          "type": "string[]"
        }
      ],
      "stateMutability": "view",
      "type": "function"
    },
    {
      "inputs": [
        {
          "internalType": "string",
          "name": "subname",
          "type": "string"
        }
      ],
      "name": "isSubnameRegistered",
      "outputs": [
        {
          "internalType": "bool",
          "name": "exists",
          "type": "bool"
        }
      ],
      "stateMutability": "view",
      "type": "function"
    },
    {
      "inputs": [],
      "name": "owner",
      "outputs": [
        {
          "internalType": "address",
          "name": "",
          "type": "address"
        }
      ],
      "stateMutability": "view",
      "type": "function"
    },
    {
      "inputs": [
        {
          "internalType": "address",
          "name": "",
          "type": "address"
        },
        {
          "internalType": "uint256",
          "name": "",
          "type": "uint256"
        }
      ],
      "name": "ownerToSubnames",
      "outputs": [
        {
          "internalType": "string",
          "name": "",
          "type": "string"
        }
      ],
      "stateMutability": "view",
      "type": "function"
    },
    {
      "inputs": [],
      "name": "pause",
      "outputs": [],
      "stateMutability": "nonpayable",
      "type": "function"
    },
    {
      "inputs": [],
      "name": "paused",
      "outputs": [
        {
          "internalType": "bool",
          "name": "",
          "type": "bool"
        }
      ],
      "stateMutability": "view",
      "type": "function"
    },
    {
      "inputs": [
        {
          "internalType": "string",
          "name": "subname",
          "type": "string"
        }
      ],
      "name": "registerSubname",
      "outputs": [],
      "stateMutability": "payable",
      "type": "function"
    },
    {
      "inputs": [],
      "name": "registrationFee",
      "outputs": [
        {
          "internalType": "uint256",
          "name": "",
          "type": "uint256"
        }
      ],
      "stateMutability": "view",
      "type": "function"
    },
    {
      "inputs": [],
      "name": "renounceOwnership",
      "outputs": [],
      "stateMutability": "nonpayable",
      "type": "function"
    },
    {
      "inputs": [
        {
          "internalType": "string",
          "name": "subname",
          "type": "string"
        }
      ],
      "name": "revokeSubname",
      "outputs": [],
      "stateMutability": "nonpayable",
      "type": "function"
    },
    {
      "inputs": [
        {
          "internalType": "string",
          "name": "",
          "type": "string"
        }
      ],
      "name": "subnameExists",
      "outputs": [
        {
          "internalType": "bool",
          "name": "",
          "type": "bool"
        }
      ],
      "stateMutability": "view",
      "type": "function"
    },
    {
      "inputs": [
        {
          "internalType": "string",
          "name": "",
          "type": "string"
        }
      ],
      "name": "subnameToOwner",
      "outputs": [
        {
          "internalType": "address",
          "name": "",
          "type": "address"
        }
      ],
      "stateMutability": "view",
      "type": "function"
    },
    {
      "inputs": [
        {
          "internalType": "address",
          "name": "newOwner",
          "type": "address"
        }
      ],
      "name": "transferOwnership",
      "outputs": [],
      "stateMutability": "nonpayable",
      "type": "function"
    },
    {
      "inputs": [
        {
          "internalType": "string",
          "name": "subname",
          "type": "string"
        },
        {
          "internalType": "address",
          "name": "newOwner",
          "type": "address"
        }
      ],
      "name": "transferSubname",
      "outputs": [],
      "stateMutability": "nonpayable",
      "type": "function"
    },
    {
      "inputs": [],
      "name": "unpause",
      "outputs": [],
      "stateMutability": "nonpayable",
      "type": "function"
    },
    {
      "inputs": [
        {
          "internalType": "uint256",
          "name": "newFee",
          "type": "uint256"
        }
      ],
      "name": "updateRegistrationFee",
      "outputs": [],
      "stateMutability": "nonpayable",
      "type": "function"
    },
    {
      "inputs": [
        {
          "internalType": "address",
          "name": "newResolver",
          "type": "address"
        }
      ],
      "name": "updateResolver",
      "outputs": [],
      "stateMutability": "nonpayable",
      "type": "function"
    },
    {
      "inputs": [],
      "name": "vendorRegistry",
      "outputs": [
        {
          "internalType": "contract VendorRegistry",
          "name": "",
          "type": "address"
        }
      ],
      "stateMutability": "view",
      "type": "function"
    },
    {
      "inputs": [],
      "name": "withdrawFees",
      "outputs": [],
      "stateMutability": "nonpayable",
      "type": "function"
    },
    {
      "stateMutability": "payable",
      "type": "receive"
    }
  ],
  "transactionHash": "0x2d54b7b470852caa2a522f0131c32cb639943a98caf4bb2269f46f3adf006574",
  "args": [
    "0xA9F04F020CF9F511982719196E25FE7c666c9E4D",
    "0x00000000000C2E074eC69A0dFb2997BA6C7d2e1e",
    "0x4976fb03C32e5B8cfe2b6cCB31c09Ba78EBaBa41"
  ],
  "numDeployments": 1,
  "solcInputHash": "1e7f658a624141603997a4c1dbf9231d",
  "bytecode": "0x608060405260006007553480156200001657600080fd5b50604051620025f0380380620025f083398101604081905262000039916200011c565b33806200006057604051631e4fbdf760e01b81526000600482015260240160405180910390fd5b6200006b81620000af565b50600180546001600160a01b039485166001600160a01b03199182161790915560028054938516938216939093179092556003805491909316911617905562000166565b600080546001600160a01b038381166001600160a01b0319831681178455604051919092169283917f8be0079c531659141344cd1fd0a4f28419497f9722a3daafe3b4186f6b6457e09190a35050565b80516001600160a01b03811681146200011757600080fd5b919050565b6000806000606084860312156200013257600080fd5b6200013d84620000ff565b92506200014d60208501620000ff565b91506200015d60408501620000ff565b90509250925092565b61247a80620001766000396000f3fe6080604052600436106101445760003560e01c80637d73b231116100b6578063af582c6b1161006f578063af582c6b1461039d578063b672b168146103bd578063dc55e231146103f8578063dc6ea44714610425578063e6fe39ed14610466578063f2fde38b1461048657600080fd5b80637d73b231146102f75780638456cb59146103175780638da5cb5b1461032c5780638e78d5781461034a578063a43bb5eb1461035d578063adce1c5f1461037d57600080fd5b80633f4ba83a116101085780633f4ba83a14610220578063476343ee146102355780635c975abb1461024a5780636cd5217b14610275578063715018a61461029557806375ec600a146102aa57600080fd5b8063012beac91461015057806314c44e091461018d57806317e362dd146101b15780631b385ec1146101d157806330bdf141146101fe57600080fd5b3661014b57005b600080fd5b34801561015c57600080fd5b50600154610170906001600160a01b031681565b6040516001600160a01b0390911681526020015b60405180910390f35b34801561019957600080fd5b506101a360075481565b604051908152602001610184565b3480156101bd57600080fd5b506101706101cc366004611c4b565b6104a6565b3480156101dd57600080fd5b506101f16101ec366004611c9d565b6104d7565b6040516101849190611d19565b34801561020a57600080fd5b5061021e610219366004611c4b565b610590565b005b34801561022c57600080fd5b5061021e6107dc565b34801561024157600080fd5b5061021e610810565b34801561025657600080fd5b50600054600160a01b900460ff165b6040519015158152602001610184565b34801561028157600080fd5b5061021e610290366004611d33565b61094f565b3480156102a157600080fd5b5061021e610d4f565b3480156102b657600080fd5b506101a36040805160006020820152600080516020612425833981519152918101919091526060016040516020818303038152906040528051906020012081565b34801561030357600080fd5b50600254610170906001600160a01b031681565b34801561032357600080fd5b5061021e610d61565b34801561033857600080fd5b506000546001600160a01b0316610170565b61021e610358366004611c4b565b610d93565b34801561036957600080fd5b50610265610378366004611c4b565b6114b6565b34801561038957600080fd5b50600354610170906001600160a01b031681565b3480156103a957600080fd5b5061021e6103b8366004611d85565b6114e1565b3480156103c957600080fd5b506102656103d8366004611c4b565b805160208183018101805160068252928201919093012091525460ff1681565b34801561040457600080fd5b50610418610413366004611d9e565b611550565b6040516101849190611dbb565b34801561043157600080fd5b50610170610440366004611c4b565b80516020818301810180516004825292820191909301209152546001600160a01b031681565b34801561047257600080fd5b5061021e610481366004611d9e565b61163f565b34801561049257600080fd5b5061021e6104a1366004611d9e565b6116fb565b60006004826040516104b89190611e1d565b908152604051908190036020019020546001600160a01b031692915050565b600560205281600052604060002081815481106104f357600080fd5b9060005260206000200160009150915050805461050f90611e39565b80601f016020809104026020016040519081016040528092919081815260200182805461053b90611e39565b80156105885780601f1061055d57610100808354040283529160200191610588565b820191906000526020600020905b81548152906001019060200180831161056b57829003601f168201915b505050505081565b6000546001600160a01b031633146105c35760405162461bcd60e51b81526004016105ba90611e73565b60405180910390fd5b6006816040516105d39190611e1d565b9081526040519081900360200190205460ff166106435760405162461bcd60e51b815260206004820152602860248201527f5375626e616d655265676973747261723a205375626e616d6520646f6573206e6044820152671bdd08195e1a5cdd60c21b60648201526084016105ba565b60006004826040516106559190611e1d565b908152604051908190036020018120546001600160a01b0316915060049061067e908490611e1d565b90815260405190819003602001812080546001600160a01b03191690556000906006906106ac908590611e1d565b908152604051908190036020019020805491151560ff199092169190911790556106d68183611739565b815160208084019190912060025460405191926001600160a01b0390911691635ef2c7f091610721916000916000805160206124258339815191529101918252602082015260400190565b604051602081830303815290604052805190602001208360008060006040518663ffffffff1660e01b815260040161075d959493929190611ec6565b600060405180830381600087803b15801561077757600080fd5b505af115801561078b573d6000803e3d6000fd5b50505050816001600160a01b0316836040516107a79190611e1d565b604051908190038120907f2fc032eb98f8c4ae6db30fbf4379d617857aef067db2083bd2f30416623a075b90600090a3505050565b6000546001600160a01b031633146108065760405162461bcd60e51b81526004016105ba90611e73565b61080e611838565b565b6000546001600160a01b0316331461083a5760405162461bcd60e51b81526004016105ba90611e73565b47806108965760405162461bcd60e51b815260206004820152602560248201527f5375626e616d655265676973747261723a204e6f206665657320746f20776974604482015264686472617760d81b60648201526084016105ba565b600080546040516001600160a01b039091169083908381818185875af1925050503d80600081146108e3576040519150601f19603f3d011682016040523d82523d6000602084013e6108e8565b606091505b505090508061094b5760405162461bcd60e51b815260206004820152602960248201527f5375626e616d655265676973747261723a204661696c656420746f207769746860448201526864726177206665657360b81b60648201526084016105ba565b5050565b81336001600160a01b031660048260405161096a9190611e1d565b908152604051908190036020019020546001600160a01b0316146109e85760405162461bcd60e51b815260206004820152602f60248201527f5375626e616d655265676973747261723a204e6f7420746865206f776e65722060448201526e6f662074686973207375626e616d6560881b60648201526084016105ba565b6001600160a01b038216610a595760405162461bcd60e51b815260206004820152603260248201527f5375626e616d655265676973747261723a204e6577206f776e65722063616e6e6044820152716f74206265207a65726f206164647265737360701b60648201526084016105ba565b336001600160a01b03831603610ac35760405162461bcd60e51b815260206004820152602960248201527f5375626e616d655265676973747261723a2043616e6e6f74207472616e73666560448201526839103a379039b2b63360b91b60648201526084016105ba565b6000600484604051610ad59190611e1d565b908152604051908190036020018120546001600160a01b031691508390600490610b00908790611e1d565b90815260405190819003602001902080546001600160a01b03929092166001600160a01b0319909216919091179055610b398185611739565b6001600160a01b038316600090815260056020908152604082208054600181018255908352912001610b6b8582611f4b565b5060008480519060200120905060008060001b600080516020612425833981519152604051602001610ba7929190918252602082015260400190565b60408051808303601f190181528282528051602091820120818401528282018590528151808403830181526060840190925281519101206002546000608084015260008051602061242583398151915260a08401529092506001600160a01b031690635ef2c7f09060c00160408051601f198184030181529082905280516020909101206003546001600160e01b031960e085901b168352610c5e9287918b916001600160a01b0390911690600090600401611ec6565b600060405180830381600087803b158015610c7857600080fd5b505af1158015610c8c573d6000803e3d6000fd5b505060035460405162d5fa2b60e81b8152600481018590526001600160a01b038981166024830152909116925063d5fa2b009150604401600060405180830381600087803b158015610cdd57600080fd5b505af1158015610cf1573d6000803e3d6000fd5b50505050846001600160a01b0316836001600160a01b031687604051610d179190611e1d565b604051908190038120907f7d83255ce44603fb701ee6f64038718c14f35b10cb3ea11dc6069599a3af9eba90600090a4505050505050565b610d5761188d565b61080e60006118ba565b6000546001600160a01b03163314610d8b5760405162461bcd60e51b81526004016105ba90611e73565b61080e61190a565b60015460405163353f20fd60e01b81523360048201526001600160a01b039091169063353f20fd90602401602060405180830381865afa158015610ddb573d6000803e3d6000fd5b505050506040513d601f19601f82011682018060405250810190610dff9190612020565b610e715760405162461bcd60e51b815260206004820152603b60248201527f5375626e616d655265676973747261723a204f6e6c792061637469766520766560448201527f6e646f72732063616e207265676973746572207375626e616d6573000000000060648201526084016105ba565b610e7961194d565b6000815111610edc5760405162461bcd60e51b815260206004820152602960248201527f5375626e616d655265676973747261723a205375626e616d652063616e6e6f7460448201526820626520656d70747960b81b60648201526084016105ba565b600681604051610eec9190611e1d565b9081526040519081900360200190205460ff1615610f5d5760405162461bcd60e51b815260206004820152602860248201527f5375626e616d655265676973747261723a205375626e616d6520616c72656164604482015267792065786973747360c01b60648201526084016105ba565b600754341015610fc75760405162461bcd60e51b815260206004820152602f60248201527f5375626e616d655265676973747261723a20496e73756666696369656e74207260448201526e6567697374726174696f6e2066656560881b60648201526084016105ba565b600154604051635480df8960e01b81523360048201526000916001600160a01b031690635480df8990602401600060405180830381865afa158015611010573d6000803e3d6000fd5b505050506040513d6000823e601f3d908101601f19168201604052611038919081019061209a565b90506000816020015151116110a75760405162461bcd60e51b815260206004820152602f60248201527f5375626e616d655265676973747261723a2056656e646f72206d75737420686160448201526e1d9948115394c81b985b59481cd95d608a1b60648201526084016105ba565b60006110b68260200151611978565b905080805190602001208380519060200120146111455760405162461bcd60e51b815260206004820152604160248201527f5375626e616d655265676973747261723a205375626e616d65206d757374206d60448201527f617463682076656e646f722773207265676973746572656420454e53206e616d6064820152606560f81b608482015260a4016105ba565b336004846040516111569190611e1d565b908152602001604051809103902060006101000a8154816001600160a01b0302191690836001600160a01b03160217905550600160068460405161119a9190611e1d565b9081526040805160209281900383019020805460ff1916931515939093179092553360009081526005825291822080546001810182559083529120016111e08482611f4b565b50825160208085019190912060025460405191926001600160a01b0390911691635ef2c7f09161122c916000916000805160206124258339815191529101918252602082015260400190565b60408051601f198184030181529082905280516020909101206003546001600160e01b031960e085901b16835261127892869133916001600160a01b0390911690600090600401611ec6565b600060405180830381600087803b15801561129257600080fd5b505af11580156112a6573d6000803e3d6000fd5b5050604051600092506112d79150829060008051602061242583398151915290602001918252602082015260400190565b60408051601f19818403018152828252805160209182012090830152810183905260600160408051808303601f1901815290829052805160209091012060035462d5fa2b60e81b8352600483018290523360248401529092506001600160a01b03169063d5fa2b0090604401600060405180830381600087803b15801561135d57600080fd5b505af1158015611371573d6000803e3d6000fd5b5050600354604080880151905163043c4ea360e21b81526001600160a01b0390921693506310f13a8c92506113ab918591906004016121b6565b600060405180830381600087803b1580156113c557600080fd5b505af11580156113d9573d6000803e3d6000fd5b50506003546040516001600160a01b0390911692506310f13a8c915083906114059089906020016121f1565b6040516020818303038152906040526040518363ffffffff1660e01b815260040161143192919061222c565b600060405180830381600087803b15801561144b57600080fd5b505af115801561145f573d6000803e3d6000fd5b5050604051339250829150611475908890611e1d565b604051908190038120428252907f9757773aa5da4f18a9d24082f64fa752f0c91d34e92b5c3dfbc63799ef3ac04c9060200160405180910390a45050505050565b60006006826040516114c89190611e1d565b9081526040519081900360200190205460ff1692915050565b6000546001600160a01b0316331461150b5760405162461bcd60e51b81526004016105ba90611e73565b600780549082905560408051828152602081018490527f50b218c5a101ad05d53ab0a964d01da639ee79525ae4b7802ed714249740a8d5910160405180910390a15050565b6001600160a01b0381166000908152600560209081526040808320805482518185028101850190935280835260609492939192909184015b828210156116345783829060005260206000200180546115a790611e39565b80601f01602080910402602001604051908101604052809291908181526020018280546115d390611e39565b80156116205780601f106115f557610100808354040283529160200191611620565b820191906000526020600020905b81548152906001019060200180831161160357829003601f168201915b505050505081526020019060010190611588565b505050509050919050565b6000546001600160a01b031633146116695760405162461bcd60e51b81526004016105ba90611e73565b6001600160a01b0381166116d95760405162461bcd60e51b815260206004820152603160248201527f5375626e616d655265676973747261723a205265736f6c7665722063616e6e6f60448201527074206265207a65726f206164647265737360781b60648201526084016105ba565b600380546001600160a01b0319166001600160a01b0392909216919091179055565b61170361188d565b6001600160a01b03811661172d57604051631e4fbdf760e01b8152600060048201526024016105ba565b611736816118ba565b50565b6001600160a01b0382166000908152600560205260408120905b81548110156118325782805190602001208282815481106117765761177661225f565b9060005260206000200160405161178d9190612275565b60405180910390200361182057815482906117aa90600190612301565b815481106117ba576117ba61225f565b906000526020600020018282815481106117d6576117d661225f565b9060005260206000200190816117ec919061231a565b50818054806117fd576117fd6123f5565b6001900381819060005260206000200160006118199190611b0e565b9055611832565b8061182a8161240b565b915050611753565b50505050565b611840611ae4565b6000805460ff60a01b191690557f5db9ee0a495bf2e6ff9c91a7834c1ba4fdd244a5e8aa4e537bd38aeae4b073aa335b6040516001600160a01b03909116815260200160405180910390a1565b6000546001600160a01b0316331461080e5760405163118cdaa760e01b81523360048201526024016105ba565b600080546001600160a01b038381166001600160a01b0319831681178455604051919092169283917f8be0079c531659141344cd1fd0a4f28419497f9722a3daafe3b4186f6b6457e09190a35050565b61191261194d565b6000805460ff60a01b1916600160a01b1790557f62e78cea01bee320cd4e420270b5ea74000d11b0c9f74754ebdbfc544b05a2586118703390565b600054600160a01b900460ff161561080e5760405163d93c066560e01b815260040160405180910390fd5b6060816000805b82518110156119cd5782818151811061199a5761199a61225f565b01602001516001600160f81b031916601760f91b036119bb578091506119cd565b806119c58161240b565b91505061197f565b5060008111611a305760405162461bcd60e51b815260206004820152602960248201527f5375626e616d655265676973747261723a20496e76616c696420454e53206e616044820152681b5948199bdc9b585d60ba1b60648201526084016105ba565b60008167ffffffffffffffff811115611a4b57611a4b611b5c565b6040519080825280601f01601f191660200182016040528015611a75576020820181803683370190505b50905060005b82811015611adb57838181518110611a9557611a9561225f565b602001015160f81c60f81b828281518110611ab257611ab261225f565b60200101906001600160f81b031916908160001a90535080611ad38161240b565b915050611a7b565b50949350505050565b600054600160a01b900460ff1661080e57604051638dfc202b60e01b815260040160405180910390fd5b508054611b1a90611e39565b6000825580601f10611b2a575050565b601f01602090049060005260206000209081019061173691905b80821115611b585760008155600101611b44565b5090565b634e487b7160e01b600052604160045260246000fd5b604051610140810167ffffffffffffffff81118282101715611b9657611b96611b5c565b60405290565b604051601f8201601f1916810167ffffffffffffffff81118282101715611bc557611bc5611b5c565b604052919050565b600067ffffffffffffffff821115611be757611be7611b5c565b50601f01601f191660200190565b600082601f830112611c0657600080fd5b8135611c19611c1482611bcd565b611b9c565b818152846020838601011115611c2e57600080fd5b816020850160208301376000918101602001919091529392505050565b600060208284031215611c5d57600080fd5b813567ffffffffffffffff811115611c7457600080fd5b611c8084828501611bf5565b949350505050565b6001600160a01b038116811461173657600080fd5b60008060408385031215611cb057600080fd5b8235611cbb81611c88565b946020939093013593505050565b60005b83811015611ce4578181015183820152602001611ccc565b50506000910152565b60008151808452611d05816020860160208601611cc9565b601f01601f19169290920160200192915050565b602081526000611d2c6020830184611ced565b9392505050565b60008060408385031215611d4657600080fd5b823567ffffffffffffffff811115611d5d57600080fd5b611d6985828601611bf5565b9250506020830135611d7a81611c88565b809150509250929050565b600060208284031215611d9757600080fd5b5035919050565b600060208284031215611db057600080fd5b8135611d2c81611c88565b6000602080830181845280855180835260408601915060408160051b870101925083870160005b82811015611e1057603f19888603018452611dfe858351611ced565b94509285019290850190600101611de2565b5092979650505050505050565b60008251611e2f818460208701611cc9565b9190910192915050565b600181811c90821680611e4d57607f821691505b602082108103611e6d57634e487b7160e01b600052602260045260246000fd5b50919050565b60208082526033908201527f5375626e616d655265676973747261723a204f6e6c792061646d696e2063616e6040820152721031b0b636103a3434b990333ab731ba34b7b760691b606082015260800190565b94855260208501939093526001600160a01b03918216604085015216606083015267ffffffffffffffff16608082015260a00190565b601f821115611f4657600081815260208120601f850160051c81016020861015611f235750805b601f850160051c820191505b81811015611f4257828155600101611f2f565b5050505b505050565b815167ffffffffffffffff811115611f6557611f65611b5c565b611f7981611f738454611e39565b84611efc565b602080601f831160018114611fae5760008415611f965750858301515b600019600386901b1c1916600185901b178555611f42565b600085815260208120601f198616915b82811015611fdd57888601518255948401946001909101908401611fbe565b5085821015611ffb5787850151600019600388901b60f8161c191681555b5050505050600190811b01905550565b8051801515811461201b57600080fd5b919050565b60006020828403121561203257600080fd5b611d2c8261200b565b805161201b81611c88565b600082601f83011261205757600080fd5b8151612065611c1482611bcd565b81815284602083860101111561207a57600080fd5b611c80826020830160208701611cc9565b80516004811061201b57600080fd5b6000602082840312156120ac57600080fd5b815167ffffffffffffffff808211156120c457600080fd5b9083019061014082860312156120d957600080fd5b6120e1611b72565b6120ea8361203b565b81526020830151828111156120fe57600080fd5b61210a87828601612046565b60208301525060408301518281111561212257600080fd5b61212e87828601612046565b60408301525060608301518281111561214657600080fd5b61215287828601612046565b6060830152506121646080840161200b565b608082015261217560a0840161200b565b60a082015260c083015160c082015261219060e0840161208b565b60e082015261010083810151908201526101209283015192810192909252509392505050565b82815260606020820152600b60608201526a3232b9b1b934b83a34b7b760a91b608082015260a060408201526000611c8060a0830184611ced565b7268747470733a2f2f7461706e676f2e6574682f60681b81526000825161221f816013850160208701611cc9565b9190910160130192915050565b8281526060602082015260036060820152621d5c9b60ea1b608082015260a060408201526000611c8060a0830184611ced565b634e487b7160e01b600052603260045260246000fd5b600080835461228381611e39565b6001828116801561229b57600181146122b0576122df565b60ff19841687528215158302870194506122df565b8760005260208060002060005b858110156122d65781548a8201529084019082016122bd565b50505082870194505b50929695505050505050565b634e487b7160e01b600052601160045260246000fd5b81810381811115612314576123146122eb565b92915050565b818103612325575050565b61232f8254611e39565b67ffffffffffffffff81111561234757612347611b5c565b61235581611f738454611e39565b6000601f82116001811461238957600083156123715750848201545b600019600385901b1c1916600184901b1784556123ee565b600085815260209020601f19841690600086815260209020845b838110156123c357828601548255600195860195909101906020016123a3565b50858310156123e15781850154600019600388901b60f8161c191681555b50505060018360011b0184555b5050505050565b634e487b7160e01b600052603160045260246000fd5b60006001820161241d5761241d6122eb565b506001019056fe30b1ad1ded92ab20297efc1a63bd196f1eb0465dd09f0051f27ff6780b92ff19a2646970667358221220ec721be6d1a4340bc9d4d3bf8fd2c0ded54a1a1045f634a846bd86828841e3e764736f6c63430008140033",
  "devdoc": {
    "details": "Manages ENS subnames under .tapngo.eth for verified vendors This contract issues subnames only to vendors registered in VendorRegistry",
    "errors": {
      "EnforcedPause()": [
        {
          "details": "The operation failed because the contract is paused."
        }
      ],
      "ExpectedPause()": [
        {
          "details": "The operation failed because the contract is not paused."
        }
      ],
      "OwnableInvalidOwner(address)": [
        {
          "details": "The owner is not a valid owner account. (eg. `address(0)`)"
        }
      ],
      "OwnableUnauthorizedAccount(address)": [
        {
          "details": "The caller account is not authorized to perform an operation."
        }
      ]
    },
    "events": {
      "Paused(address)": {
        "details": "Emitted when the pause is triggered by `account`."
      },
      "Unpaused(address)": {
        "details": "Emitted when the pause is lifted by `account`."
      }
    },
    "kind": "dev",
    "methods": {
      "getSubnameOwner(string)": {
        "details": "Get owner of a subname",
        "params": {
          "subname": "Subname to query"
        },
        "returns": {
          "owner": "Address of the subname owner"
        }
      },
      "getSubnamesByOwner(address)": {
        "details": "Get all subnames owned by an address",
        "params": {
          "owner": "Address to query"
        },
        "returns": {
          "subnames": "Array of subnames owned by the address"
        }
      },
      "isSubnameRegistered(string)": {
        "details": "Check if a subname exists",
        "params": {
          "subname": "Subname to check"
        },
        "returns": {
          "exists": "True if subname exists"
        }
      },
      "owner()": {
        "details": "Returns the address of the current owner."
      },
      "pause()": {
        "details": "Pause the contract (admin only)"
      },
      "paused()": {
        "details": "Returns true if the contract is paused, and false otherwise."
      },
      "registerSubname(string)": {
        "details": "Register a new ENS subname for a vendor",
        "params": {
          "subname": "The subname to register (e.g., \"business\" for business.tapngo.eth)"
        }
      },
      "renounceOwnership()": {
        "details": "Leaves the contract without owner. It will not be possible to call `onlyOwner` functions. Can only be called by the current owner. NOTE: Renouncing ownership will leave the contract without an owner, thereby disabling any functionality that is only available to the owner."
      },
      "revokeSubname(string)": {
        "details": "Revoke a subname (admin only)",
        "params": {
          "subname": "The subname to revoke"
        }
      },
      "transferOwnership(address)": {
        "details": "Transfers ownership of the contract to a new account (`newOwner`). Can only be called by the current owner."
      },
      "transferSubname(string,address)": {
        "details": "Transfer ownership of a subname to another address",
        "params": {
          "newOwner": "The new owner address",
          "subname": "The subname to transfer"
        }
      },
      "unpause()": {
        "details": "Unpause the contract (admin only)"
      },
      "updateRegistrationFee(uint256)": {
        "details": "Update registration fee (admin only)",
        "params": {
          "newFee": "New registration fee in wei"
        }
      },
      "updateResolver(address)": {
        "details": "Update ENS resolver address (admin only)",
        "params": {
          "newResolver": "New resolver address"
        }
      },
      "withdrawFees()": {
        "details": "Withdraw collected fees (admin only)"
      }
    },
    "title": "SubnameRegistrar",
    "version": 1
  },
  "userdoc": {
    "kind": "user",
    "methods": {},
    "version": 1
  },
  "storageLayout": {
    "storage": [
      {
        "astId": 8,
        "contract": "contracts/SubnameRegistrar.sol:SubnameRegistrar",
        "label": "_owner",
        "offset": 0,
        "slot": "0",
        "type": "t_address"
      },
      {
        "astId": 942,
        "contract": "contracts/SubnameRegistrar.sol:SubnameRegistrar",
        "label": "_paused",
        "offset": 20,
        "slot": "0",
        "type": "t_bool"
      },
      {
        "astId": 3112,
        "contract": "contracts/SubnameRegistrar.sol:SubnameRegistrar",
        "label": "vendorRegistry",
        "offset": 0,
        "slot": "1",
        "type": "t_contract(VendorRegistry)4829"
      },
      {
        "astId": 3115,
        "contract": "contracts/SubnameRegistrar.sol:SubnameRegistrar",
        "label": "ensRegistry",
        "offset": 0,
        "slot": "2",
        "type": "t_contract(ENSRegistry)3087"
      },
      {
        "astId": 3118,
        "contract": "contracts/SubnameRegistrar.sol:SubnameRegistrar",
        "label": "ensResolver",
        "offset": 0,
        "slot": "3",
        "type": "t_contract(ENSResolver)3104"
      },
      {
        "astId": 3136,
        "contract": "contracts/SubnameRegistrar.sol:SubnameRegistrar",
        "label": "subnameToOwner",
        "offset": 0,
        "slot": "4",
        "type": "t_mapping(t_string_memory_ptr,t_address)"
      },
      {
        "astId": 3141,
        "contract": "contracts/SubnameRegistrar.sol:SubnameRegistrar",
        "label": "ownerToSubnames",
        "offset": 0,
        "slot": "5",
        "type": "t_mapping(t_address,t_array(t_string_storage)dyn_storage)"
      },
      {
        "astId": 3145,
        "contract": "contracts/SubnameRegistrar.sol:SubnameRegistrar",
        "label": "subnameExists",
        "offset": 0,
        "slot": "6",
        "type": "t_mapping(t_string_memory_ptr,t_bool)"
      },
      {
        "astId": 3148,
        "contract": "contracts/SubnameRegistrar.sol:SubnameRegistrar",
        "label": "registrationFee",
        "offset": 0,
        "slot": "7",
        "type": "t_uint256"
      }
    ],
    "types": {
      "t_address": {
        "encoding": "inplace",
        "label": "address",
        "numberOfBytes": "20"
      },
      "t_array(t_string_storage)dyn_storage": {
        "base": "t_string_storage",
        "encoding": "dynamic_array",
        "label": "string[]",
        "numberOfBytes": "32"
      },
      "t_bool": {
        "encoding": "inplace",
        "label": "bool",
        "numberOfBytes": "1"
      },
      "t_contract(ENSRegistry)3087": {
        "encoding": "inplace",
        "label": "contract ENSRegistry",
        "numberOfBytes": "20"
      },
      "t_contract(ENSResolver)3104": {
        "encoding": "inplace",
        "label": "contract ENSResolver",
        "numberOfBytes": "20"
      },
      "t_contract(VendorRegistry)4829": {
        "encoding": "inplace",
        "label": "contract VendorRegistry",
        "numberOfBytes": "20"
      },
      "t_mapping(t_address,t_array(t_string_storage)dyn_storage)": {
        "encoding": "mapping",
        "key": "t_address",
        "label": "mapping(address => string[])",
        "numberOfBytes": "32",
        "value": "t_array(t_string_storage)dyn_storage"
      },
      "t_mapping(t_string_memory_ptr,t_address)": {
        "encoding": "mapping",
        "key": "t_string_memory_ptr",
        "label": "mapping(string => address)",
        "numberOfBytes": "32",
        "value": "t_address"
      },
      "t_mapping(t_string_memory_ptr,t_bool)": {
        "encoding": "mapping",
        "key": "t_string_memory_ptr",
        "label": "mapping(string => bool)",
        "numberOfBytes": "32",
        "value": "t_bool"
      },
      "t_string_memory_ptr": {
        "encoding": "bytes",
        "label": "string",
        "numberOfBytes": "32"
      },
      "t_string_storage": {
        "encoding": "bytes",
        "label": "string",
        "numberOfBytes": "32"
      },
      "t_uint256": {
        "encoding": "inplace",
        "label": "uint256",
        "numberOfBytes": "32"
      }
    }
  }
}