{
  "address": "0xC3b022250C359c9A9793d018503c20495FcD1B4F",
  "abi": [
    {
      "inputs": [
        {
          "internalType": "address",
          "name": "_vendorRegistry",
          "type": "address"
        }
      ],
      "stateMutability": "nonpayable",
      "type": "constructor"
    },
    {
      "inputs": [],
      "name": "EnforcedPause",
      "type": "error"
    },
    {
      "inputs": [],
      "name": "ExpectedPause",
      "type": "error"
    },
    {
      "inputs": [
        {
          "internalType": "address",
          "name": "owner",
          "type": "address"
        }
      ],
      "name": "OwnableInvalidOwner",
      "type": "error"
    },
    {
      "inputs": [
        {
          "internalType": "address",
          "name": "account",
          "type": "address"
        }
      ],
      "name": "OwnableUnauthorizedAccount",
      "type": "error"
    },
    {
      "anonymous": false,
      "inputs": [
        {
          "indexed": true,
          "internalType": "address",
          "name": "previousOwner",
          "type": "address"
        },
        {
          "indexed": true,
          "internalType": "address",
          "name": "newOwner",
          "type": "address"
        }
      ],
      "name": "OwnershipTransferred",
      "type": "event"
    },
    {
      "anonymous": false,
      "inputs": [
        {
          "indexed": false,
          "internalType": "address",
          "name": "account",
          "type": "address"
        }
      ],
      "name": "Paused",
      "type": "event"
    },
    {
      "anonymous": false,
      "inputs": [
        {
          "indexed": false,
          "internalType": "uint256",
          "name": "oldFee",
          "type": "uint256"
        },
        {
          "indexed": false,
          "internalType": "uint256",
          "name": "newFee",
          "type": "uint256"
        }
      ],
      "name": "RegistrationFeeUpdated",
      "type": "event"
    },
    {
      "anonymous": false,
      "inputs": [
        {
          "indexed": true,
          "internalType": "string",
          "name": "subname",
          "type": "string"
        },
        {
          "indexed": true,
          "internalType": "address",
          "name": "owner",
          "type": "address"
        },
        {
          "indexed": true,
          "internalType": "address",
          "name": "vendor",
          "type": "address"
        },
        {
          "indexed": false,
          "internalType": "uint256",
          "name": "timestamp",
          "type": "uint256"
        }
      ],
      "name": "SubnameRegistered",
      "type": "event"
    },
    {
      "anonymous": false,
      "inputs": [
        {
          "indexed": true,
          "internalType": "string",
          "name": "subname",
          "type": "string"
        },
        {
          "indexed": true,
          "internalType": "address",
          "name": "owner",
          "type": "address"
        }
      ],
      "name": "SubnameRevoked",
      "type": "event"
    },
    {
      "anonymous": false,
      "inputs": [
        {
          "indexed": true,
          "internalType": "string",
          "name": "subname",
          "type": "string"
        },
        {
          "indexed": true,
          "internalType": "address",
          "name": "oldOwner",
          "type": "address"
        },
        {
          "indexed": true,
          "internalType": "address",
          "name": "newOwner",
          "type": "address"
        }
      ],
      "name": "SubnameTransferred",
      "type": "event"
    },
    {
      "anonymous": false,
      "inputs": [
        {
          "indexed": false,
          "internalType": "address",
          "name": "account",
          "type": "address"
        }
      ],
      "name": "Unpaused",
      "type": "event"
    },
    {
      "inputs": [],
      "name": "SEPOLIA_ENS_REGISTRY",
      "outputs": [
        {
          "internalType": "address",
          "name": "",
          "type": "address"
        }
      ],
      "stateMutability": "view",
      "type": "function"
    },
    {
      "inputs": [],
      "name": "SEPOLIA_PUBLIC_RESOLVER",
      "outputs": [
        {
          "internalType": "address",
          "name": "",
          "type": "address"
        }
      ],
      "stateMutability": "view",
      "type": "function"
    },
    {
      "inputs": [],
      "name": "ensRegistry",
      "outputs": [
        {
          "internalType": "contract ENSRegistry",
          "name": "",
          "type": "address"
        }
      ],
      "stateMutability": "view",
      "type": "function"
    },
    {
      "inputs": [],
      "name": "ensResolver",
      "outputs": [
        {
          "internalType": "contract ENSResolver",
          "name": "",
          "type": "address"
        }
      ],
      "stateMutability": "view",
      "type": "function"
    },
    {
      "inputs": [
        {
          "internalType": "string",
          "name": "subname",
          "type": "string"
        }
      ],
      "name": "getSubnameOwner",
      "outputs": [
        {
          "internalType": "address",
          "name": "owner",
          "type": "address"
        }
      ],
      "stateMutability": "view",
      "type": "function"
    },
    {
      "inputs": [
        {
          "internalType": "address",
          "name": "owner",
          "type": "address"
        }
      ],
      "name": "getSubnamesByOwner",
      "outputs": [
        {
          "internalType": "string[]",
          "name": "subnames",
          "type": "string[]"
        }
      ],
      "stateMutability": "view",
      "type": "function"
    },
    {
      "inputs": [
        {
          "internalType": "string",
          "name": "subname",
          "type": "string"
        }
      ],
      "name": "isSubnameRegistered",
      "outputs": [
        {
          "internalType": "bool",
          "name": "exists",
          "type": "bool"
        }
      ],
      "stateMutability": "view",
      "type": "function"
    },
    {
      "inputs": [],
      "name": "owner",
      "outputs": [
        {
          "internalType": "address",
          "name": "",
          "type": "address"
        }
      ],
      "stateMutability": "view",
      "type": "function"
    },
    {
      "inputs": [
        {
          "internalType": "address",
          "name": "",
          "type": "address"
        },
        {
          "internalType": "uint256",
          "name": "",
          "type": "uint256"
        }
      ],
      "name": "ownerToSubnames",
      "outputs": [
        {
          "internalType": "string",
          "name": "",
          "type": "string"
        }
      ],
      "stateMutability": "view",
      "type": "function"
    },
    {
      "inputs": [],
      "name": "pause",
      "outputs": [],
      "stateMutability": "nonpayable",
      "type": "function"
    },
    {
      "inputs": [],
      "name": "paused",
      "outputs": [
        {
          "internalType": "bool",
          "name": "",
          "type": "bool"
        }
      ],
      "stateMutability": "view",
      "type": "function"
    },
    {
      "inputs": [
        {
          "internalType": "string",
          "name": "subname",
          "type": "string"
        }
      ],
      "name": "registerSubname",
      "outputs": [],
      "stateMutability": "payable",
      "type": "function"
    },
    {
      "inputs": [],
      "name": "registrationFee",
      "outputs": [
        {
          "internalType": "uint256",
          "name": "",
          "type": "uint256"
        }
      ],
      "stateMutability": "view",
      "type": "function"
    },
    {
      "inputs": [],
      "name": "renounceOwnership",
      "outputs": [],
      "stateMutability": "nonpayable",
      "type": "function"
    },
    {
      "inputs": [
        {
          "internalType": "string",
          "name": "subname",
          "type": "string"
        }
      ],
      "name": "revokeSubname",
      "outputs": [],
      "stateMutability": "nonpayable",
      "type": "function"
    },
    {
      "inputs": [
        {
          "internalType": "bytes32",
          "name": "_tapngoNode",
          "type": "bytes32"
        }
      ],
      "name": "setTapngoNode",
      "outputs": [],
      "stateMutability": "nonpayable",
      "type": "function"
    },
    {
      "inputs": [
        {
          "internalType": "string",
          "name": "",
          "type": "string"
        }
      ],
      "name": "subnameExists",
      "outputs": [
        {
          "internalType": "bool",
          "name": "",
          "type": "bool"
        }
      ],
      "stateMutability": "view",
      "type": "function"
    },
    {
      "inputs": [
        {
          "internalType": "string",
          "name": "",
          "type": "string"
        }
      ],
      "name": "subnameToOwner",
      "outputs": [
        {
          "internalType": "address",
          "name": "",
          "type": "address"
        }
      ],
      "stateMutability": "view",
      "type": "function"
    },
    {
      "inputs": [],
      "name": "tapngoNode",
      "outputs": [
        {
          "internalType": "bytes32",
          "name": "",
          "type": "bytes32"
        }
      ],
      "stateMutability": "view",
      "type": "function"
    },
    {
      "inputs": [
        {
          "internalType": "address",
          "name": "newOwner",
          "type": "address"
        }
      ],
      "name": "transferOwnership",
      "outputs": [],
      "stateMutability": "nonpayable",
      "type": "function"
    },
    {
      "inputs": [
        {
          "internalType": "string",
          "name": "subname",
          "type": "string"
        },
        {
          "internalType": "address",
          "name": "newOwner",
          "type": "address"
        }
      ],
      "name": "transferSubname",
      "outputs": [],
      "stateMutability": "nonpayable",
      "type": "function"
    },
    {
      "inputs": [],
      "name": "unpause",
      "outputs": [],
      "stateMutability": "nonpayable",
      "type": "function"
    },
    {
      "inputs": [
        {
          "internalType": "uint256",
          "name": "newFee",
          "type": "uint256"
        }
      ],
      "name": "updateRegistrationFee",
      "outputs": [],
      "stateMutability": "nonpayable",
      "type": "function"
    },
    {
      "inputs": [
        {
          "internalType": "address",
          "name": "newResolver",
          "type": "address"
        }
      ],
      "name": "updateResolver",
      "outputs": [],
      "stateMutability": "nonpayable",
      "type": "function"
    },
    {
      "inputs": [],
      "name": "vendorRegistry",
      "outputs": [
        {
          "internalType": "contract VendorRegistry",
          "name": "",
          "type": "address"
        }
      ],
      "stateMutability": "view",
      "type": "function"
    },
    {
      "inputs": [],
      "name": "withdrawFees",
      "outputs": [],
      "stateMutability": "nonpayable",
      "type": "function"
    },
    {
      "stateMutability": "payable",
      "type": "receive"
    }
  ],
  "transactionHash": "0x679b44cda71331b5bb40ca3a0b34983861f6ea09206715ea7fa367fde99dd349",
  "args": [
    "0xA9F04F020CF9F511982719196E25FE7c666c9E4D"
  ],
  "numDeployments": 2,
  "solcInputHash": "6002fd79152c5297841cf1ee1598082e",
  "bytecode": "0x608060405260006008553480156200001657600080fd5b50604051620025d0380380620025d0833981016040819052620000399162000118565b33806200006057604051631e4fbdf760e01b81526000600482015260240160405180910390fd5b6200006b81620000c8565b50600180546001600160a01b039092166001600160a01b03199283161790556002805482166e0c2e074ec69a0dfb2997ba6c7d2e1e1790556003805490911673231b0ee14048e9dccd1d247744d114a4eb5e8e631790556200014a565b600080546001600160a01b038381166001600160a01b0319831681178455604051919092169283917f8be0079c531659141344cd1fd0a4f28419497f9722a3daafe3b4186f6b6457e09190a35050565b6000602082840312156200012b57600080fd5b81516001600160a01b03811681146200014357600080fd5b9392505050565b612476806200015a6000396000f3fe6080604052600436106101855760003560e01c80638456cb59116100d1578063af582c6b1161008a578063dc55e23111610064578063dc55e2311461046d578063dc6ea4471461049a578063e6fe39ed146104db578063f2fde38b146104fb57600080fd5b8063af582c6b146103ea578063b672b1681461040a578063db0b067b1461044557600080fd5b80638456cb59146103445780638da5cb5b146103595780638e396b91146103775780638e78d57814610397578063a43bb5eb146103aa578063adce1c5f146103ca57600080fd5b80633f4ba83a1161013e57806364d9fafc1161011857806364d9fafc146102cc5780636cd5217b146102ef578063715018a61461030f5780637d73b2311461032457600080fd5b80633f4ba83a14610277578063476343ee1461028c5780635c975abb146102a157600080fd5b8063012beac91461019157806314a3caed146101ce57806314c44e09146101f257806317e362dd146102085780631b385ec11461022857806330bdf1411461025557600080fd5b3661018c57005b600080fd5b34801561019d57600080fd5b506001546101b1906001600160a01b031681565b6040516001600160a01b0390911681526020015b60405180910390f35b3480156101da57600080fd5b506101e460045481565b6040519081526020016101c5565b3480156101fe57600080fd5b506101e460085481565b34801561021457600080fd5b506101b1610223366004611c67565b61051b565b34801561023457600080fd5b50610248610243366004611cb9565b61054c565b6040516101c59190611d35565b34801561026157600080fd5b50610275610270366004611c67565b610605565b005b34801561028357600080fd5b5061027561080b565b34801561029857600080fd5b5061027561083f565b3480156102ad57600080fd5b50600054600160a01b900460ff165b60405190151581526020016101c5565b3480156102d857600080fd5b506101b16e0c2e074ec69a0dfb2997ba6c7d2e1e81565b3480156102fb57600080fd5b5061027561030a366004611d4f565b61097e565b34801561031b57600080fd5b50610275610d10565b34801561033057600080fd5b506002546101b1906001600160a01b031681565b34801561035057600080fd5b50610275610d22565b34801561036557600080fd5b506000546001600160a01b03166101b1565b34801561038357600080fd5b50610275610392366004611da1565b610d54565b6102756103a5366004611c67565b610dd0565b3480156103b657600080fd5b506102bc6103c5366004611c67565b6114d2565b3480156103d657600080fd5b506003546101b1906001600160a01b031681565b3480156103f657600080fd5b50610275610405366004611da1565b6114fd565b34801561041657600080fd5b506102bc610425366004611c67565b805160208183018101805160078252928201919093012091525460ff1681565b34801561045157600080fd5b506101b173231b0ee14048e9dccd1d247744d114a4eb5e8e6381565b34801561047957600080fd5b5061048d610488366004611dba565b61156c565b6040516101c59190611dd7565b3480156104a657600080fd5b506101b16104b5366004611c67565b80516020818301810180516005825292820191909301209152546001600160a01b031681565b3480156104e757600080fd5b506102756104f6366004611dba565b61165b565b34801561050757600080fd5b50610275610516366004611dba565b611717565b600060058260405161052d9190611e39565b908152604051908190036020019020546001600160a01b031692915050565b6006602052816000526040600020818154811061056857600080fd5b9060005260206000200160009150915050805461058490611e55565b80601f01602080910402602001604051908101604052809291908181526020018280546105b090611e55565b80156105fd5780601f106105d2576101008083540402835291602001916105fd565b820191906000526020600020905b8154815290600101906020018083116105e057829003601f168201915b505050505081565b6000546001600160a01b031633146106385760405162461bcd60e51b815260040161062f90611e8f565b60405180910390fd5b6007816040516106489190611e39565b9081526040519081900360200190205460ff166106b85760405162461bcd60e51b815260206004820152602860248201527f5375626e616d655265676973747261723a205375626e616d6520646f6573206e6044820152671bdd08195e1a5cdd60c21b606482015260840161062f565b60006005826040516106ca9190611e39565b908152604051908190036020018120546001600160a01b031691506005906106f3908490611e39565b90815260405190819003602001812080546001600160a01b0319169055600090600790610721908590611e39565b908152604051908190036020019020805491151560ff1990921691909117905561074b8183611755565b81516020830120600254600480546040516305ef2c7f60e41b81526001600160a01b0390931692635ef2c7f09261078c929186916000918291829101611ee2565b600060405180830381600087803b1580156107a657600080fd5b505af11580156107ba573d6000803e3d6000fd5b50505050816001600160a01b0316836040516107d69190611e39565b604051908190038120907f2fc032eb98f8c4ae6db30fbf4379d617857aef067db2083bd2f30416623a075b90600090a3505050565b6000546001600160a01b031633146108355760405162461bcd60e51b815260040161062f90611e8f565b61083d611854565b565b6000546001600160a01b031633146108695760405162461bcd60e51b815260040161062f90611e8f565b47806108c55760405162461bcd60e51b815260206004820152602560248201527f5375626e616d655265676973747261723a204e6f206665657320746f20776974604482015264686472617760d81b606482015260840161062f565b600080546040516001600160a01b039091169083908381818185875af1925050503d8060008114610912576040519150601f19603f3d011682016040523d82523d6000602084013e610917565b606091505b505090508061097a5760405162461bcd60e51b815260206004820152602960248201527f5375626e616d655265676973747261723a204661696c656420746f207769746860448201526864726177206665657360b81b606482015260840161062f565b5050565b81336001600160a01b03166005826040516109999190611e39565b908152604051908190036020019020546001600160a01b031614610a175760405162461bcd60e51b815260206004820152602f60248201527f5375626e616d655265676973747261723a204e6f7420746865206f776e65722060448201526e6f662074686973207375626e616d6560881b606482015260840161062f565b6001600160a01b038216610a885760405162461bcd60e51b815260206004820152603260248201527f5375626e616d655265676973747261723a204e6577206f776e65722063616e6e6044820152716f74206265207a65726f206164647265737360701b606482015260840161062f565b336001600160a01b03831603610af25760405162461bcd60e51b815260206004820152602960248201527f5375626e616d655265676973747261723a2043616e6e6f74207472616e73666560448201526839103a379039b2b63360b91b606482015260840161062f565b6000600584604051610b049190611e39565b908152604051908190036020018120546001600160a01b031691508390600590610b2f908790611e39565b90815260405190819003602001902080546001600160a01b03929092166001600160a01b0319909216919091179055610b688185611755565b6001600160a01b038316600090815260066020908152604082208054600181018255908352912001610b9a8582611f67565b50600084805190602001209050600060045482604051602001610bc7929190918252602082015260400190565b60408051601f19818403018152908290528051602090910120600254600480546003546305ef2c7f60e41b86529395506001600160a01b0392831694635ef2c7f094610c1f94929389938d9392169160009101611ee2565b600060405180830381600087803b158015610c3957600080fd5b505af1158015610c4d573d6000803e3d6000fd5b505060035460405162d5fa2b60e81b8152600481018590526001600160a01b038981166024830152909116925063d5fa2b009150604401600060405180830381600087803b158015610c9e57600080fd5b505af1158015610cb2573d6000803e3d6000fd5b50505050846001600160a01b0316836001600160a01b031687604051610cd89190611e39565b604051908190038120907f7d83255ce44603fb701ee6f64038718c14f35b10cb3ea11dc6069599a3af9eba90600090a4505050505050565b610d186118a9565b61083d60006118d6565b6000546001600160a01b03163314610d4c5760405162461bcd60e51b815260040161062f90611e8f565b61083d611926565b6000546001600160a01b03163314610d7e5760405162461bcd60e51b815260040161062f90611e8f565b80610dcb5760405162461bcd60e51b815260206004820152601e60248201527f5375626e616d655265676973747261723a20496e76616c6964206e6f64650000604482015260640161062f565b600455565b60015460405163353f20fd60e01b81523360048201526001600160a01b039091169063353f20fd90602401602060405180830381865afa158015610e18573d6000803e3d6000fd5b505050506040513d601f19601f82011682018060405250810190610e3c919061203c565b610eae5760405162461bcd60e51b815260206004820152603b60248201527f5375626e616d655265676973747261723a204f6e6c792061637469766520766560448201527f6e646f72732063616e207265676973746572207375626e616d65730000000000606482015260840161062f565b610eb6611969565b6000815111610f195760405162461bcd60e51b815260206004820152602960248201527f5375626e616d655265676973747261723a205375626e616d652063616e6e6f7460448201526820626520656d70747960b81b606482015260840161062f565b600781604051610f299190611e39565b9081526040519081900360200190205460ff1615610f9a5760405162461bcd60e51b815260206004820152602860248201527f5375626e616d655265676973747261723a205375626e616d6520616c72656164604482015267792065786973747360c01b606482015260840161062f565b6008543410156110045760405162461bcd60e51b815260206004820152602f60248201527f5375626e616d655265676973747261723a20496e73756666696369656e74207260448201526e6567697374726174696f6e2066656560881b606482015260840161062f565b6004546110655760405162461bcd60e51b815260206004820152602960248201527f5375626e616d655265676973747261723a207461706e676f2e657468206e6f6460448201526819481b9bdd081cd95d60ba1b606482015260840161062f565b600154604051635480df8960e01b81523360048201526000916001600160a01b031690635480df8990602401600060405180830381865afa1580156110ae573d6000803e3d6000fd5b505050506040513d6000823e601f3d908101601f191682016040526110d691908101906120b6565b90506000816020015151116111455760405162461bcd60e51b815260206004820152602f60248201527f5375626e616d655265676973747261723a2056656e646f72206d75737420686160448201526e1d9948115394c81b985b59481cd95d608a1b606482015260840161062f565b60006111548260200151611994565b905080805190602001208380519060200120146111e35760405162461bcd60e51b815260206004820152604160248201527f5375626e616d655265676973747261723a205375626e616d65206d757374206d60448201527f617463682076656e646f722773207265676973746572656420454e53206e616d6064820152606560f81b608482015260a40161062f565b336005846040516111f49190611e39565b908152602001604051809103902060006101000a8154816001600160a01b0302191690836001600160a01b0316021790555060016007846040516112389190611e39565b9081526040805160209281900383019020805460ff19169315159390931790925533600090815260068252918220805460018101825590835291200161127e8482611f67565b5082516020840120600254600480546003546040516305ef2c7f60e41b81526001600160a01b0394851694635ef2c7f0946112c59493889333939091169160009101611ee2565b600060405180830381600087803b1580156112df57600080fd5b505af11580156112f3573d6000803e3d6000fd5b50505050600060045482604051602001611317929190918252602082015260400190565b60408051808303601f1901815290829052805160209091012060035462d5fa2b60e81b8352600483018290523360248401529092506001600160a01b03169063d5fa2b0090604401600060405180830381600087803b15801561137957600080fd5b505af115801561138d573d6000803e3d6000fd5b5050600354604080880151905163043c4ea360e21b81526001600160a01b0390921693506310f13a8c92506113c7918591906004016121d2565b600060405180830381600087803b1580156113e157600080fd5b505af11580156113f5573d6000803e3d6000fd5b50506003546040516001600160a01b0390911692506310f13a8c9150839061142190899060200161220d565b6040516020818303038152906040526040518363ffffffff1660e01b815260040161144d929190612248565b600060405180830381600087803b15801561146757600080fd5b505af115801561147b573d6000803e3d6000fd5b5050604051339250829150611491908890611e39565b604051908190038120428252907f9757773aa5da4f18a9d24082f64fa752f0c91d34e92b5c3dfbc63799ef3ac04c9060200160405180910390a45050505050565b60006007826040516114e49190611e39565b9081526040519081900360200190205460ff1692915050565b6000546001600160a01b031633146115275760405162461bcd60e51b815260040161062f90611e8f565b600880549082905560408051828152602081018490527f50b218c5a101ad05d53ab0a964d01da639ee79525ae4b7802ed714249740a8d5910160405180910390a15050565b6001600160a01b0381166000908152600660209081526040808320805482518185028101850190935280835260609492939192909184015b828210156116505783829060005260206000200180546115c390611e55565b80601f01602080910402602001604051908101604052809291908181526020018280546115ef90611e55565b801561163c5780601f106116115761010080835404028352916020019161163c565b820191906000526020600020905b81548152906001019060200180831161161f57829003601f168201915b5050505050815260200190600101906115a4565b505050509050919050565b6000546001600160a01b031633146116855760405162461bcd60e51b815260040161062f90611e8f565b6001600160a01b0381166116f55760405162461bcd60e51b815260206004820152603160248201527f5375626e616d655265676973747261723a205265736f6c7665722063616e6e6f60448201527074206265207a65726f206164647265737360781b606482015260840161062f565b600380546001600160a01b0319166001600160a01b0392909216919091179055565b61171f6118a9565b6001600160a01b03811661174957604051631e4fbdf760e01b81526000600482015260240161062f565b611752816118d6565b50565b6001600160a01b0382166000908152600660205260408120905b815481101561184e5782805190602001208282815481106117925761179261227b565b906000526020600020016040516117a99190612291565b60405180910390200361183c57815482906117c69060019061231d565b815481106117d6576117d661227b565b906000526020600020018282815481106117f2576117f261227b565b9060005260206000200190816118089190612336565b508180548061181957611819612411565b6001900381819060005260206000200160006118359190611b2a565b905561184e565b8061184681612427565b91505061176f565b50505050565b61185c611b00565b6000805460ff60a01b191690557f5db9ee0a495bf2e6ff9c91a7834c1ba4fdd244a5e8aa4e537bd38aeae4b073aa335b6040516001600160a01b03909116815260200160405180910390a1565b6000546001600160a01b0316331461083d5760405163118cdaa760e01b815233600482015260240161062f565b600080546001600160a01b038381166001600160a01b0319831681178455604051919092169283917f8be0079c531659141344cd1fd0a4f28419497f9722a3daafe3b4186f6b6457e09190a35050565b61192e611969565b6000805460ff60a01b1916600160a01b1790557f62e78cea01bee320cd4e420270b5ea74000d11b0c9f74754ebdbfc544b05a25861188c3390565b600054600160a01b900460ff161561083d5760405163d93c066560e01b815260040160405180910390fd5b6060816000805b82518110156119e9578281815181106119b6576119b661227b565b01602001516001600160f81b031916601760f91b036119d7578091506119e9565b806119e181612427565b91505061199b565b5060008111611a4c5760405162461bcd60e51b815260206004820152602960248201527f5375626e616d655265676973747261723a20496e76616c696420454e53206e616044820152681b5948199bdc9b585d60ba1b606482015260840161062f565b60008167ffffffffffffffff811115611a6757611a67611b78565b6040519080825280601f01601f191660200182016040528015611a91576020820181803683370190505b50905060005b82811015611af757838181518110611ab157611ab161227b565b602001015160f81c60f81b828281518110611ace57611ace61227b565b60200101906001600160f81b031916908160001a90535080611aef81612427565b915050611a97565b50949350505050565b600054600160a01b900460ff1661083d57604051638dfc202b60e01b815260040160405180910390fd5b508054611b3690611e55565b6000825580601f10611b46575050565b601f01602090049060005260206000209081019061175291905b80821115611b745760008155600101611b60565b5090565b634e487b7160e01b600052604160045260246000fd5b604051610140810167ffffffffffffffff81118282101715611bb257611bb2611b78565b60405290565b604051601f8201601f1916810167ffffffffffffffff81118282101715611be157611be1611b78565b604052919050565b600067ffffffffffffffff821115611c0357611c03611b78565b50601f01601f191660200190565b600082601f830112611c2257600080fd5b8135611c35611c3082611be9565b611bb8565b818152846020838601011115611c4a57600080fd5b816020850160208301376000918101602001919091529392505050565b600060208284031215611c7957600080fd5b813567ffffffffffffffff811115611c9057600080fd5b611c9c84828501611c11565b949350505050565b6001600160a01b038116811461175257600080fd5b60008060408385031215611ccc57600080fd5b8235611cd781611ca4565b946020939093013593505050565b60005b83811015611d00578181015183820152602001611ce8565b50506000910152565b60008151808452611d21816020860160208601611ce5565b601f01601f19169290920160200192915050565b602081526000611d486020830184611d09565b9392505050565b60008060408385031215611d6257600080fd5b823567ffffffffffffffff811115611d7957600080fd5b611d8585828601611c11565b9250506020830135611d9681611ca4565b809150509250929050565b600060208284031215611db357600080fd5b5035919050565b600060208284031215611dcc57600080fd5b8135611d4881611ca4565b6000602080830181845280855180835260408601915060408160051b870101925083870160005b82811015611e2c57603f19888603018452611e1a858351611d09565b94509285019290850190600101611dfe565b5092979650505050505050565b60008251611e4b818460208701611ce5565b9190910192915050565b600181811c90821680611e6957607f821691505b602082108103611e8957634e487b7160e01b600052602260045260246000fd5b50919050565b60208082526033908201527f5375626e616d655265676973747261723a204f6e6c792061646d696e2063616e6040820152721031b0b636103a3434b990333ab731ba34b7b760691b606082015260800190565b94855260208501939093526001600160a01b03918216604085015216606083015267ffffffffffffffff16608082015260a00190565b601f821115611f6257600081815260208120601f850160051c81016020861015611f3f5750805b601f850160051c820191505b81811015611f5e57828155600101611f4b565b5050505b505050565b815167ffffffffffffffff811115611f8157611f81611b78565b611f9581611f8f8454611e55565b84611f18565b602080601f831160018114611fca5760008415611fb25750858301515b600019600386901b1c1916600185901b178555611f5e565b600085815260208120601f198616915b82811015611ff957888601518255948401946001909101908401611fda565b50858210156120175787850151600019600388901b60f8161c191681555b5050505050600190811b01905550565b8051801515811461203757600080fd5b919050565b60006020828403121561204e57600080fd5b611d4882612027565b805161203781611ca4565b600082601f83011261207357600080fd5b8151612081611c3082611be9565b81815284602083860101111561209657600080fd5b611c9c826020830160208701611ce5565b80516004811061203757600080fd5b6000602082840312156120c857600080fd5b815167ffffffffffffffff808211156120e057600080fd5b9083019061014082860312156120f557600080fd5b6120fd611b8e565b61210683612057565b815260208301518281111561211a57600080fd5b61212687828601612062565b60208301525060408301518281111561213e57600080fd5b61214a87828601612062565b60408301525060608301518281111561216257600080fd5b61216e87828601612062565b60608301525061218060808401612027565b608082015261219160a08401612027565b60a082015260c083015160c08201526121ac60e084016120a7565b60e082015261010083810151908201526101209283015192810192909252509392505050565b82815260606020820152600b60608201526a3232b9b1b934b83a34b7b760a91b608082015260a060408201526000611c9c60a0830184611d09565b7268747470733a2f2f7461706e676f2e6574682f60681b81526000825161223b816013850160208701611ce5565b9190910160130192915050565b8281526060602082015260036060820152621d5c9b60ea1b608082015260a060408201526000611c9c60a0830184611d09565b634e487b7160e01b600052603260045260246000fd5b600080835461229f81611e55565b600182811680156122b757600181146122cc576122fb565b60ff19841687528215158302870194506122fb565b8760005260208060002060005b858110156122f25781548a8201529084019082016122d9565b50505082870194505b50929695505050505050565b634e487b7160e01b600052601160045260246000fd5b8181038181111561233057612330612307565b92915050565b818103612341575050565b61234b8254611e55565b67ffffffffffffffff81111561236357612363611b78565b61237181611f8f8454611e55565b6000601f8211600181146123a5576000831561238d5750848201545b600019600385901b1c1916600184901b17845561240a565b600085815260209020601f19841690600086815260209020845b838110156123df57828601548255600195860195909101906020016123bf565b50858310156123fd5781850154600019600388901b60f8161c191681555b50505060018360011b0184555b5050505050565b634e487b7160e01b600052603160045260246000fd5b60006001820161243957612439612307565b506001019056fea26469706673582212208744a1e1c28467fab5efbfa418944634f142144b8d9802294cf590053c778b3064736f6c63430008140033",
  "devdoc": {
    "details": "Manages ENS subnames under .tapngo.eth for verified vendors Integrates with real Sepolia ENS registry for cross-chain resolution This contract issues subnames only to vendors registered in VendorRegistry",
    "errors": {
      "EnforcedPause()": [
        {
          "details": "The operation failed because the contract is paused."
        }
      ],
      "ExpectedPause()": [
        {
          "details": "The operation failed because the contract is not paused."
        }
      ],
      "OwnableInvalidOwner(address)": [
        {
          "details": "The owner is not a valid owner account. (eg. `address(0)`)"
        }
      ],
      "OwnableUnauthorizedAccount(address)": [
        {
          "details": "The caller account is not authorized to perform an operation."
        }
      ]
    },
    "events": {
      "Paused(address)": {
        "details": "Emitted when the pause is triggered by `account`."
      },
      "Unpaused(address)": {
        "details": "Emitted when the pause is lifted by `account`."
      }
    },
    "kind": "dev",
    "methods": {
      "getSubnameOwner(string)": {
        "details": "Get owner of a subname",
        "params": {
          "subname": "Subname to query"
        },
        "returns": {
          "owner": "Address of the subname owner"
        }
      },
      "getSubnamesByOwner(address)": {
        "details": "Get all subnames owned by an address",
        "params": {
          "owner": "Address to query"
        },
        "returns": {
          "subnames": "Array of subnames owned by the address"
        }
      },
      "isSubnameRegistered(string)": {
        "details": "Check if a subname exists",
        "params": {
          "subname": "Subname to check"
        },
        "returns": {
          "exists": "True if subname exists"
        }
      },
      "owner()": {
        "details": "Returns the address of the current owner."
      },
      "pause()": {
        "details": "Pause the contract (admin only)"
      },
      "paused()": {
        "details": "Returns true if the contract is paused, and false otherwise."
      },
      "registerSubname(string)": {
        "details": "Register a new ENS subname for a vendor",
        "params": {
          "subname": "The subname to register (e.g., \"business\" for business.tapngo.eth)"
        }
      },
      "renounceOwnership()": {
        "details": "Leaves the contract without owner. It will not be possible to call `onlyOwner` functions. Can only be called by the current owner. NOTE: Renouncing ownership will leave the contract without an owner, thereby disabling any functionality that is only available to the owner."
      },
      "revokeSubname(string)": {
        "details": "Revoke a subname (admin only)",
        "params": {
          "subname": "The subname to revoke"
        }
      },
      "setTapngoNode(bytes32)": {
        "details": "Set the tapngo.eth node (admin only)",
        "params": {
          "_tapngoNode": "The namehash of tapngo.eth"
        }
      },
      "transferOwnership(address)": {
        "details": "Transfers ownership of the contract to a new account (`newOwner`). Can only be called by the current owner."
      },
      "transferSubname(string,address)": {
        "details": "Transfer ownership of a subname to another address",
        "params": {
          "newOwner": "The new owner address",
          "subname": "The subname to transfer"
        }
      },
      "unpause()": {
        "details": "Unpause the contract (admin only)"
      },
      "updateRegistrationFee(uint256)": {
        "details": "Update registration fee (admin only)",
        "params": {
          "newFee": "New registration fee in wei"
        }
      },
      "updateResolver(address)": {
        "details": "Update ENS resolver address (admin only)",
        "params": {
          "newResolver": "New resolver address"
        }
      },
      "withdrawFees()": {
        "details": "Withdraw collected fees (admin only)"
      }
    },
    "title": "SubnameRegistrar",
    "version": 1
  },
  "userdoc": {
    "kind": "user",
    "methods": {},
    "version": 1
  },
  "storageLayout": {
    "storage": [
      {
        "astId": 8,
        "contract": "contracts/SubnameRegistrar.sol:SubnameRegistrar",
        "label": "_owner",
        "offset": 0,
        "slot": "0",
        "type": "t_address"
      },
      {
        "astId": 942,
        "contract": "contracts/SubnameRegistrar.sol:SubnameRegistrar",
        "label": "_paused",
        "offset": 20,
        "slot": "0",
        "type": "t_bool"
      },
      {
        "astId": 3270,
        "contract": "contracts/SubnameRegistrar.sol:SubnameRegistrar",
        "label": "vendorRegistry",
        "offset": 0,
        "slot": "1",
        "type": "t_contract(VendorRegistry)5010"
      },
      {
        "astId": 3273,
        "contract": "contracts/SubnameRegistrar.sol:SubnameRegistrar",
        "label": "ensRegistry",
        "offset": 0,
        "slot": "2",
        "type": "t_contract(ENSRegistry)3229"
      },
      {
        "astId": 3276,
        "contract": "contracts/SubnameRegistrar.sol:SubnameRegistrar",
        "label": "ensResolver",
        "offset": 0,
        "slot": "3",
        "type": "t_contract(ENSResolver)3262"
      },
      {
        "astId": 3278,
        "contract": "contracts/SubnameRegistrar.sol:SubnameRegistrar",
        "label": "tapngoNode",
        "offset": 0,
        "slot": "4",
        "type": "t_bytes32"
      },
      {
        "astId": 3288,
        "contract": "contracts/SubnameRegistrar.sol:SubnameRegistrar",
        "label": "subnameToOwner",
        "offset": 0,
        "slot": "5",
        "type": "t_mapping(t_string_memory_ptr,t_address)"
      },
      {
        "astId": 3293,
        "contract": "contracts/SubnameRegistrar.sol:SubnameRegistrar",
        "label": "ownerToSubnames",
        "offset": 0,
        "slot": "6",
        "type": "t_mapping(t_address,t_array(t_string_storage)dyn_storage)"
      },
      {
        "astId": 3297,
        "contract": "contracts/SubnameRegistrar.sol:SubnameRegistrar",
        "label": "subnameExists",
        "offset": 0,
        "slot": "7",
        "type": "t_mapping(t_string_memory_ptr,t_bool)"
      },
      {
        "astId": 3300,
        "contract": "contracts/SubnameRegistrar.sol:SubnameRegistrar",
        "label": "registrationFee",
        "offset": 0,
        "slot": "8",
        "type": "t_uint256"
      }
    ],
    "types": {
      "t_address": {
        "encoding": "inplace",
        "label": "address",
        "numberOfBytes": "20"
      },
      "t_array(t_string_storage)dyn_storage": {
        "base": "t_string_storage",
        "encoding": "dynamic_array",
        "label": "string[]",
        "numberOfBytes": "32"
      },
      "t_bool": {
        "encoding": "inplace",
        "label": "bool",
        "numberOfBytes": "1"
      },
      "t_bytes32": {
        "encoding": "inplace",
        "label": "bytes32",
        "numberOfBytes": "32"
      },
      "t_contract(ENSRegistry)3229": {
        "encoding": "inplace",
        "label": "contract ENSRegistry",
        "numberOfBytes": "20"
      },
      "t_contract(ENSResolver)3262": {
        "encoding": "inplace",
        "label": "contract ENSResolver",
        "numberOfBytes": "20"
      },
      "t_contract(VendorRegistry)5010": {
        "encoding": "inplace",
        "label": "contract VendorRegistry",
        "numberOfBytes": "20"
      },
      "t_mapping(t_address,t_array(t_string_storage)dyn_storage)": {
        "encoding": "mapping",
        "key": "t_address",
        "label": "mapping(address => string[])",
        "numberOfBytes": "32",
        "value": "t_array(t_string_storage)dyn_storage"
      },
      "t_mapping(t_string_memory_ptr,t_address)": {
        "encoding": "mapping",
        "key": "t_string_memory_ptr",
        "label": "mapping(string => address)",
        "numberOfBytes": "32",
        "value": "t_address"
      },
      "t_mapping(t_string_memory_ptr,t_bool)": {
        "encoding": "mapping",
        "key": "t_string_memory_ptr",
        "label": "mapping(string => bool)",
        "numberOfBytes": "32",
        "value": "t_bool"
      },
      "t_string_memory_ptr": {
        "encoding": "bytes",
        "label": "string",
        "numberOfBytes": "32"
      },
      "t_string_storage": {
        "encoding": "bytes",
        "label": "string",
        "numberOfBytes": "32"
      },
      "t_uint256": {
        "encoding": "inplace",
        "label": "uint256",
        "numberOfBytes": "32"
      }
    }
  }
}